:100000000C9486030C94AE030C94AE030C94AE03D4
:100010000C94AE030C94AE030C94AE030C94AE039C
:100020000C94AE030C94AE030C94AE030C94AE038C
:100030000C94AE030C94AE030C94AE030C94AE037C
:100040000C94B51E0C94AE030C94251F0C94FF1E4B
:100050000C94AE030C94AE030C94AE030C94AE035C
:100060000C94AE030C94AE03A605B705BA05C10502
:10007000C405840CCB05AA07C1086D0A7009560B8C
:10008000EF0CF20CFB0CF90C040D020D0B0D0E0D18
:10009000150D180D1F0D220D2A0D2D0D310D340DCE
:1000A000B205B705BA05C105C405DA0C360738082C
:1000B0001F096D0A7009560BEF0CF20CFB0CF90CC2
:1000C000040D020D0B0D0E0D150D180D1F0D220D3B
:1000D0002A0D2D0D310D340DA01AD51A0F1B561BEC
:1000E000A11BE91B301C511CA8240125A225A22517
:1000F0005125A225A225A2250000000024002700EA
:100100002A0000000000250028002B00000000004D
:100110002300260029000404040404040404020249
:100120000202020203030303030301020408102076
:100130004080010204081020010204081020000081
:100140000008000201000003040700000000000096
:100150000000460100FF0800053E5B4F5B3E053E88
:100160006B4F6B3E051C3E7C3E1C05183C7E3C18CC
:10017000051C577D571C051C5E7F5E1C0400183C47
:100180001805FFE7C3E7FF040018241805FFE7DBA5
:10019000E7FF0530483A060E05262979292605404D
:1001A0007F05050705407F05253F055A3CE73C5A7A
:1001B000057F3E1C1C0805081C1C3E7F0514227F81
:1001C0002214055F5F005F5F0506097F017F0466FB
:1001D00089956A0560606060600594A2FFA294053D
:1001E00008047E04080510207E20100508082A1C3B
:1001F0000805081C2A0808051E10101010050C1E02
:100200000C1E0C0530383E383005060E3E0E060238
:100210000000015F0307000705147F147F14052405
:100220002A7F2A1205231308646205364956205096
:1002300003080703031C22410341221C052A1C7FDB
:100240001C2A0508083E08080380703005080808C5
:100250000808026060052010080402053E51494567
:100260003E03427F40057249494946052141494DB7
:1002700033051814127F10052745454539053C4ABA
:1002800049493105412111090705364949493605D2
:10029000464949291E0114028068040814224105B8
:1002A00014141414140441221408050201590906F7
:1002B000053E415D594E057C1211127C057F49496E
:1002C0004936053E41414122057F4141413E057F7E
:1002D00049494941057F09090901053E41415173D9
:1002E000057F0808087F03417F41052040413F0109
:1002F000057F08142241057F40404040057F021CD5
:10030000027F057F0408107F053E4141413E057F85
:1003100009090906053E4151215E057F0919294653
:100320000526494949320503017F0103053F404045
:10033000403F051F2040201F053F4038403F0563D8
:1003400014081463050304780403056159494D43F7
:10035000037F41410502040810200341417F050449
:100360000201020405404040404003030708052005
:1003700054547840057F2844443805384444442880
:1003800005384444287F05385454541804087E091D
:10039000020518A4A49C78057F0804047803447D12
:1003A00040044080807A047F10284403417F400548
:1003B0007C04780478057C080404780538444444B7
:1003C0003805FC182424180518242418FC057C087A
:1003D00004040805485454542404043F4424053CB0
:1003E0004040207C051C2040201C053C4030403C07
:1003F000054428102844054C9090907C0544645492
:100400004C440308364101770341360805020102D6
:100410000402053C2623263C051EA1A161120538D5
:100420004240227805385454555905215555794193
:1004300005215454784105215554784005205455E0
:10044000794005183CA4E42405395555555905381B
:100450005554555805395554545803457C410402A8
:10046000457D420401457C4005F0292429F005F032
:10047000282528F0047C545545072054547C5454B6
:1004800008067C0A097F4949053249494932053045
:100490004A484A3005324A484830053A4141217AB3
:1004A000053A42402078049DA0A07D05384544458A
:1004B00038053C4140413C053C24FF242405487E4E
:1004C000494366052B2FFC2F2B05FF0929F6200534
:1004D000C0887E090305205454794103447D4105B9
:1004E0003048484A3205384040227A047A0A0A7273
:1004F000057D0D19317D052629292F280526292955
:1005000029260530484D4020053808080808050808
:1005100008080838052F10C8ACBA052F102834FA7F
:10052000017B0508142A14220522142A140805AA9E
:10053000005500AA05AA55AA55AA0500000000FF0B
:100540000510101010FF0514141414FF051010FFEF
:1005500000FF051010F010F00514141414FC05141D
:1005600014F700FF050000FF00FF051414F404FC5D
:1005700005141417101F0510101F101F0514141454
:10058000141F0510101010F0050000001F100510BA
:1005900010101F1005101010F01005000000FF10C3
:1005A00005101010101005101010FF1005000000AD
:1005B000FF14050000FF00FF0500001F10170500D5
:1005C00000FC04F4051414171017051414F404F4B3
:1005D000050000FF00F7051414141414051414F793
:1005E00000F70514141417140510101F101F05141C
:1005F0001414F414051010F010F00500001F101F63
:10060000050000001F1405000000FC14050000F0A8
:1006100010F0051010FF10FF05141414FF1405103E
:100620001010101F05000000F01005FFFFFFFFFF76
:1006300005F0F0F0F0F003FFFFFF05000000FFFF02
:10064000050F0F0F0F0F053844443844057C2A2A44
:100650003E14057E0202060605027E027E02056346
:1006600055494163053844443C0405407E201E2022
:100670000506027E02020599A5E7A599051C2A49EF
:100680002A1C054C7201724C05304A4D4D30053024
:100690004878483005BC625A463D043E4949490500
:1006A0007E0101017E052A2A2A2A2A0544445F4444
:1006B000440540514A44400540444A514005000029
:1006C000FF010303E080FF0508086B6B0805361285
:1006D00036243605060F090F06040000181804001A
:1006E000001010053040FF010105001F01011E052B
:1006F00000191D171205003C3C3C3C05FF8181811F
:10070000FF05FFFFFFFFFF003E2C6D2711241FBEDA
:10071000CFEFD8E0DEBFCDBF11E0A0E0B1E0E6E86A
:10072000F4E602C005900D92AE37B107D9F723E089
:10073000AEE7B1E001C01D92AC37B207E1F713E0BC
:10074000C5E8D3E004C02197FE010E94F12DC43812
:10075000D107C9F70E94BD270C9436320C940000D3
:10076000CF93DF9300D0CDB7DEB769831A82DC0167
:10077000ED91FC910084F185E02DBE016F5F7F4F0C
:10078000099581E090E00F900F90DF91CF9108954F
:10079000089580E090E008950F931F93FC01678F08
:1007A000062F10E022E030E042A161A1808191811A
:1007B0000E94FF1C1F910F9108950F931F939B019F
:1007C0008A01FC014185415060E00E94FF1C1F919D
:1007D0000F9108952F923F924F925F926F927F9266
:1007E0008F929F92AF92BF92CF92DF92EF92FF9241
:1007F0000F931F93CF93DF93CDB7DEB760970FB6FC
:10080000F894DEBF0FBECDBF3C019C012C5F3F4F73
:100810003C872B8740E050E06AE070E0C9010E940D
:10082000DD031F821886B301665D7E4F7E876D876C
:1008300082E4382EAD85BE858C91BF81B81710F04B
:100840000C94C40F4B2E512CF3013B9EE00DF11D77
:100850001124FA83E983EF5BFF4F1082A981BA81EB
:100860009C968D919C919D978630910509F446C088
:10087000059731F10E94D31D349CF001359CF00D99
:100880001124FA83E9838F01060D171DD801949670
:10089000CD90DD90ED90FC909797AB01BC014C1989
:1008A0005D096E097F0998968D919C919997A0E0BA
:1008B000B0E0481759076A077B0708F456C018C00C
:1008C0000E94D31DE981FA8104A115A126A137A1B7
:1008D000AB01BC01401B510B620B730B82A593A5AE
:1008E000A0E0B0E0481759076A077B07F0F1C2CFD4
:1008F000D80193968C91811138C008C081E0988509
:10090000982B9887AF81AF5FAF8394CF0E94D31DA0
:10091000F80164A375A386A397A381E0EF5BFF4F63
:1009200080833A96C080D180C114D10489F0E981D6
:10093000FA81B196E60DF71DFA87E987D8019C96F2
:100940008D919C919D97009791F0069709F0DCC0DE
:10095000349CF001359CF00D1124E60DF71D81E06B
:1009600024A535A52630310551F280E0C8CFF80125
:10097000E35BFF4FD182C0825301EF81B2E4EB9F72
:10098000A00CB11C1124F2E4AF0EB11CD5018C9166
:10099000F801ED5BFF4F8080B8E08B9E9001112441
:1009A000295F3F4F4901E8E08E9F8018910811248C
:1009B000FFEF8F1A9F0AE12CF12C98012D5A3F4F1F
:1009C0003A832983B8016E5A7F4F7E836D830B5A19
:1009D0001F4FD6016D916D016623C9F0E981FA813F
:1009E00020813181AD81BE814C9189859A850E949B
:1009F000CE2190E0E80EF91E892B59F3F601808193
:100A0000882339F3D8018C91E80EF11CE2CF349C95
:100A1000F001359CF00D1124E60DF71DF7A6E6A6B2
:100A200085A996A981309105B9F118F00297C9F00E
:100A30005FC0DF01AD5BBF4F8C9190E0019603E09A
:100A4000880F991F0A95E1F79C012150310931ABBC
:100A500020AB8E149F0470F18E199F0993AB82AB6B
:100A600047C0D5018C91B8E08B9FC001112493AB96
:100A700082AB8E149F0460F4DF01AD5BBF4F8C919D
:100A800028E0829FC0011124079691AB80AB1AC069
:100A90000197E80EF91E2AC08E149F04A8F4DF0106
:100AA000AD5BBF4F8C9138E0839FC0011124079646
:100AB00091AB80ABD5018C91B8E08B9FC001112424
:100AC00093AB82AB80E015C0D5018C918E189F0846
:100AD00096948794B8E08B9F800C911C112493AA64
:100AE00082AA21E0E21AF108E80CF91CF1AAE0AAB6
:100AF00081E0349CF001359CF00D1124E60DF71DCA
:100B000091E0892784AB93AF349CF001359CF00DC4
:100B10001124E60DF71D23AC222061F007A8F0ADEB
:100B2000E02D3197EC31F10508F0A5C7EC5CFF4FE3
:100B30000C94F12D01ACF2ADE02D3197EC31F105C3
:100B400008F099C7E05BFF4F0C94F12D89859A85D9
:100B50000E94F610349CF001359CF00D1124E60D36
:100B6000F71D83C289859A850E94192084C7422D6A
:100B700061E002C0422D60E089859A850E941812CA
:100B800085C7422D61E002C0422D60E089859A85CB
:100B90000E940C157BC7349C7001359CF00C11240D
:100BA00083010E0D1F1D68019CE2C90ED11CD801E6
:100BB0009C968D919C919D978230910561F458018E
:100BC000B6E5AB0EB11C015B1F4FE6E5EE0EF11C66
:100BD000E60CF71C4EC08230910520F0039709F413
:100BE00064C041C1F6E5EF0EF11CB3016E0D7F1D2F
:100BF00089859A850E94CF22882309F46EC389854E
:100C00009A850E941920F801E95AFF4F118210823B
:100C1000C2010196389EF001399EF00D1124E60DB7
:100C2000F71D8081F801EC5BFF4F28E0829FC00137
:100C3000112491838083D801D0968D919C91D19776
:100C400035969183808346C4B70189859A850E9431
:100C50008A22811105C0E5E0F0E0D601ED93FC9316
:100C6000D5018C9181110CC0F6018081918105978D
:100C700039F0D5011C92F80180818111ECCFE4CFCD
:100C8000349CF001359CF00D1124E60DF71D84A570
:100C900095A5059709F4FAC6DF01A95ABF4F1D9221
:100CA0001C9283E090E095A784A7349C9001359C2A
:100CB000300D1124260D371D3A832983690134E450
:100CC000C30ED11CD6016D917C91E981FA81E75B5D
:100CD000FF4F20813181E981FA81ED5AFF4F7F0179
:100CE00009811A81095A1F4F6217730761F5A9819B
:100CF000BA81DC968C91882359F00190F081E02D27
:100D0000D8018D919C91E80FF91F4081409509C051
:100D10000190F081E02DD8018D919C91E80FF91F91
:100D20004081349CF001359CF00D1124E60DF71D37
:100D3000FA83E98381A192A10E94C820E5E0F0E056
:100D4000A981BA81F7C50190F081E02DD8018D917C
:100D50009C91E80FF91F8081811104C0F601318355
:100D6000208331C0A981BA81DC964C91DC974195F2
:100D700091968D919C9192970E94C820F601608176
:100D800071816F5F7F4F71836083A981BA81DC9627
:100D90004C91F70120813181D8018D919C91F9010D
:100DA000E80FF91F442319F04081409501C04081AC
:100DB000349CF001359CF00D1124E60DF71D81A146
:100DC00092A10E94C820349CC001359C900D112432
:100DD000860D971DDC01AC5BBF4F2D913C911197A7
:100DE0008C01075B1F4FF8014081518124173507A3
:100DF00001F5B2016F5F7F4F369EA001379E500D07
:100E00001124460D571DFA014081F8E04F9FA001C3
:100E1000112411965C934E9353964D915C911197CA
:100E20004F5F5F4F4D935C9321503109D8012D9353
:100E30003C93349CF001359CF00D1124E60DF71D18
:100E40009F01295A3F4FAF014A5A5F4FDA018C91F7
:100E500090E0D9012D913C912817390709F016C669
:100E600082E090E011C625E030E0C0C1349CF00182
:100E7000359CF00D1124E60DF71D84A595A5813054
:100E8000910508F45FC08430910590F0059709F052
:100E900059C080A991A9DF01A75BBF4F11969C9310
:100EA0008E9315978D939C9383E090E095A784A7EC
:100EB000349CF001359CF00D1124E60DF71D81A046
:100EC00092A084AD882321F0AA24AA94B12C02C058
:100ED000A12CB12C349CB001359C700D1124660DF1
:100EE000771D7A8369837B0174E4E70EF11CC98066
:100EF000DA8089E4C80ED11CA981BA81D296BA835E
:100F0000A983F70100811181602FC4010E94122082
:100F1000282F30E02A153B0509F0D3C5D6012D91C5
:100F20003C91E981FA8140815181241735070CF405
:100F3000C8C5C9010197D6018D939C93F7013183F0
:100F40002083DFCF349CF001359CF00D1124E60D99
:100F5000F71D2DC5349CF001359CF00D1124E60DD4
:100F6000F71D84A595A58430910560F4019768F478
:100F7000DF01AC5BBF4F1D921C9283E090E095A710
:100F800084A703C0059709F070C089859A850E94DF
:100F9000192089859A850E94F610C2010196389E13
:100FA000F001399EF00D1124E60DF71D9080990C8B
:100FB000990C990C88248394349CB001359C700D55
:100FC0001124660D771D7E836D836D5B7F4F7A8361
:100FD00069830D811E810C5B1F4FAD80BE8071E265
:100FE000A70EB11C22242394A981BA818C9190E090
:100FF000019673E0880F991F7A95E1F7C92CD12CDF
:10100000C816D9061CF5F501E080F180692DC701ED
:101010000E941220482F50E0D8018D919C91E7E06A
:10102000F0E0E81BF90B882031F002C05595479598
:10103000EA95E2F704C001C0440FEA95EAF7B60169
:10104000C7010E94C82082249394CECFD8018D91ED
:101050009C91119701968D939C93089709F016C562
:1010600025E030E0ED81FE81C2C065E070E0B4C4EF
:10107000349CF001359CF00D1124E60DF71D84A57C
:1010800095A58430910518F4019720F015C00597B7
:1010900009F08DC4349CF001359CF00D1124E60D4F
:1010A000F71DDF01AC5BBF4F81E090E08D939C9317
:1010B00083E090E095A784A7C2010196389EF001D5
:1010C000399EF00D1124E60DF71D9080990C990CB6
:1010D000990C88248394349CD001359CB00D112444
:1010E000A60DB71DBE83AD83AD5BBF4FBA83A98389
:1010F0000D811E810C5B1F4FAD80BE80B1E2AB0E37
:10110000B11C22242394E981FA81808190E0019628
:1011100063E0880F991F6A95E1F7C92CD12CC81696
:10112000D9060CF5D501ED90FC90692DC7010E9400
:101130001220482F50E0882041F0F801008002C0C2
:10114000440F551F0A94E2F707C0D8010C9002C063
:10115000559547950A94E2F7B601C7010E94C82049
:1011600082249394D0CFF80180819181019691835C
:101170008083089709F08AC4E6E0F0E0AD81BE8183
:10118000D9C3349C8001359C100D1124060D171D08
:10119000D8019C968D919C919D978430910580F407
:1011A0008230910538F5009771F0019709F03FC042
:1011B000F801EC5BFF4F60817181CB01019665C046
:1011C0000597C1F034C0F801EC5BFF4F118210822B
:1011D0003596A985BA855F968C915F9790E091834B
:1011E0008083CD010E94192021E030E0F80135A76D
:1011F00024A74CC4349CF001359CF00D1124E60D5D
:10120000F71D9F012C5B3F4FD9016D917C91CF0160
:10121000875B9F4FDC018D919C91861797070CF49B
:1012200070C3CB010196D9018D939C9351C0349C1E
:10123000F001359CF00D1124E60DF71D62C3349CBE
:101240008001359C100D1124060D171DD8019C96A8
:101250008D919C919D978430910518F4019718F019
:101260001FC00597D1F5E985FA85678D862F90E037
:10127000349C8001359C100D1124060D171DF801BA
:10128000E75BFF4F918380833597918380838985C6
:101290009A850E94CC0389859A850E94F610F2C136
:1012A000F801EC5BFF4F6081718177FF0DC03596CF
:1012B000608189859A850E94CC0389859A850E94E0
:1012C000192026E030E092CFCB01019791838083F3
:1012D00089859A850E94CC03D9C3E6E0F0E029C352
:1012E000349CF001359CF00D1124E60DF71D84A50A
:1012F00095A58230910509F482C028F4009751F039
:101300000197C1F0B3C28330910509F4C3C10597B9
:1013100009F0ACC2349CF001359CF00D1124E60DAF
:10132000F71DDF01AC5BBF4F1D921C9221E030E046
:1013300035A724A7349C8001359C100D1124060D7F
:10134000171D780134E4E30EF11CD7018D919C91B7
:10135000119701968D939C93C2010196389EF001DE
:10136000399EF00D1124E60DF71DB08128E0B29FE3
:10137000F0011124FE83ED83680198012D5B3F4F3E
:101380003A832983470158013CE3A30EB11C222470
:10139000239451E2C50ED11CA981BA818C9190E0B1
:1013A000019653E0880F991F5A95E1F7ED81FE8170
:1013B000E817F907D4F4D4012D913C91CF01837043
:1013C0009927821793075CF4F501408142254195E6
:1013D0006D817E81D6018D919C910E94C820ED8106
:1013E000FE813196FE83ED83D7CFD7018D919C91FD
:1013F000049709F04BC382E090E0F80145C389856A
:101400009A850E941920222021F089859A850E94C0
:10141000F610349C8001359C100D1124060D171D0B
:101420006801F4E4CF0ED11CD6018D919C911197E7
:1014300001978D939C93C2010196389EF001399ECD
:10144000F00D1124E60DF71DB08128E0B29FF001E8
:101450001124FE83ED83780198012D5B3F4F3A8381
:101460002983460158013CE3A30EB11C2224239496
:1014700051E2E50EF11CA981BA818C9190E00196B0
:1014800043E0880F991F4A95E1F7ED81FE81E81747
:10149000F907D4F4D4012D913C91CF0183709927A1
:1014A000821793075CF4F5014081422541956D81D7
:1014B0007E81D7018D919C910E94C820ED81FE8193
:1014C0003196FE83ED83D7CFD6018D919C91892BE8
:1014D00009F0DCC283E090E090CF349CF001359CB1
:1014E000F00D1124E60DF71D84A595A58230910518
:1014F00009F464C038F08330910509F4CBC0059736
:1015000009F0B4C1C2010196389EF001399EF00D78
:101510001124E60DF71D208188E0289FB0011124D9
:101520007A836983349C8001359C100D1124060D4B
:10153000171D580173E4A70EB11C68018CE3C80E97
:10154000D11CD80191967D01F501808190E0019632
:1015500033E0880F991F3A95E1F729813A812817DE
:1015600039074CF5D6019C906981992039F0F70133
:10157000808191810E941220809505C0D7018D91B4
:101580009C910E941220B981B0FD02C09AEA01C06C
:1015900095E5482F492B9110409569817A81F70193
:1015A000808191810E94C82029813A812F5F3F4F1D
:1015B0003A832983C9CF82E090E066C089859A8505
:1015C0000E941920222021F089859A850E94F61018
:1015D000C2010196389EF001399EF00D1124E60DEE
:1015E000F71DB08128E0B29FF0011124FA83E9834E
:1015F000349C8001359C100D1124060D171D5801D7
:10160000F3E4AF0EB11C68012CE3C20ED11CB8018B
:101610006F5D7F4F7B01D5018C9190E0019623E0B7
:10162000880F991F2A95E1F7E981FA81E817F907F0
:101630004CF5D6019C906981992039F0F7018081A1
:1016400091810E941220809505C0D7018D919C91B7
:101650000E941220B981B0FD02C095E501C09AEA4E
:10166000482F492B9110409569817A81F70180813B
:1016700091810E94C82029813A812F5F3F4F3A8390
:101680002983C9CF83E090E0D8019D969C938E93E7
:101690009C97FCC189859A850E941920222009F413
:1016A000E7C089859A850E94F610E5C0349CF00158
:1016B000359CF00D1124E60DF71D84A595A5843009
:1016C000910518F4019720F015C0059709F0CEC0D8
:1016D000E2E8F1E01192B1E0ED38FB07D9F7349C74
:1016E000F001359CF00D1124E60DF71D83E090E02C
:1016F00095A784A7349C8001359C100D1124060DFC
:10170000171DF801EC5BFF4F118210828F010E94C0
:101710000F2D4B015C010E940F2D69837A838B830F
:101720009C83F801C080D180FFEFCF1ADF0AD80177
:10173000CD92DC92C501B4012BE030E040E050E0F6
:101740000E94662D70E0FB01EE57FE4F7F01B080D6
:1017500069817A818B819C8128E030E040E050E013
:101760000E94662D8B2D90E0062E02C095958795E0
:101770000A94E2F780FD30C081E090E001C0880F5C
:101780006A95EAF7B82AD701BC9289859A850E94A2
:10179000F610349C6001359CD00C1124C60CD71C6B
:1017A000F601EC5BFF4FFA83E98311821082C201DC
:1017B0000196389EF001399EF00D1124E60DF71DBB
:1017C0009080990C990C990C5601F3E4AF0EB11C62
:1017D00021E2C20ED11C27C038E8C31633E1D3067C
:1017E0000CF495CFC9CFF60100811181692DC80194
:1017F0000E941220A981BA81ED91FC91EE57FE4F13
:10180000222021F140814823B701C8010E94C8204D
:10181000E981FA818081918101968B309105D1F027
:10182000918380839394D5018C9190E00196B3E0ED
:10183000880F991FBA95E1F7E92CF12CE816F90603
:1018400094F2E2E8F1E02AE831E00CC09081492FFF
:101850004095D9CFA981BA811D921C92E3CF2E1752
:101860003F0721F081918F3FD1F310C1211003C0B8
:1018700086E090E002C085E090E0349CF001359C69
:10188000F00D1124E60DF71DFFC0E981FA81EA5B36
:10189000FF4F80818F5F8083082E000C990B298178
:1018A0003A812F593F4FD9012C9130E0821793078D
:1018B0000CF01082C2010196389EF001399EF00DA5
:1018C0001124E60DF71D8081349CF001359CF00D4C
:1018D0001124E60DF71DAF014C5B5F4FB8E08B9F05
:1018E000C0011124BF01615A7F4FDB012C91821B83
:1018F00091090197DA012D913C912817390709F0D8
:10190000C5C025E030E073CC349C8001359C100DBF
:101910001124060D171DD8019C968D919C919D97C1
:101920008430910508F431C1059709F470C1E5E0F0
:10193000F0E0D8019D96FC93EE939C97A7C0E981B7
:10194000FA81EA5BFF4F80818F5F8083082E000C55
:10195000990B29813A812E593F4FD9012C9130E0C2
:10196000821793070CF01082349CF001359CF00D27
:101970001124E60DF71DAF014C5B5F4F9F012D5BFE
:101980003F4FD9018C91B8E08B9FC001112407967D
:10199000BF01605A7F4FDB012C91820F911D019690
:1019A000DA012D913C912817390709F06FC026E024
:1019B00030E01DCC349CF001359CF00D1124E60D77
:1019C000F71D84A595A58430910508F4DAC1059723
:1019D00009F4DAC166E070E075A764A757C0422D2C
:1019E00060E002C0422D61E089859A850E9456110F
:1019F0004DC041E001C040E0622D89859A850E947A
:101A0000591344C041E001C040E0622D89859A85A8
:101A10000E9495123BC0422D60E002C0422D61E061
:101A200089859A850E94F51331C0422D60E002C07D
:101A3000422D61E089859A850E94D22027C0222DFF
:101A400041E002C0222D40E061E089859A850E9434
:101A500034201CC0222D41E002C0222D40E060E075
:101A6000F4CF422D61E002C0422D60E089859A8565
:101A70000E9499160BC0349CF001359CF00D112486
:101A8000E60DF71D86E090E095A784A7349CF00151
:101A9000359CF00D1124E60DF71D83AD882339F038
:101AA00081E024A535A52530310509F480E0349C7A
:101AB000F001359CF00D1124E60DF71D83AF0C9459
:101AC000A804349CF001359CF00D1124E60DF71D9F
:101AD000DF01A75BBF4F2D913C912F5F3F4F42A984
:101AE00053A9241735070CF462CFED5BFF4F20811B
:101AF00058E0259F90011124295F3F4F02171307DB
:101B00003CF4B8016F5F7F4F482FC4010E94C8208A
:101B1000349C8001359C100D1124060D171DD80131
:101B2000DC964C91DC974195F801EC5BFF4FFA8312
:101B3000E9836081718191968D919C9192970E9429
:101B4000C820E981FA81208131812F5F3F4F3183A5
:101B50002083F801ED5BFF4F808190E00196A3E0C8
:101B6000880F991FAA95E1F72817390709F08ECF3A
:101B70003696808191819C012150310931832083E7
:101B8000A981BA818D939C9381CF019708F03FC0C2
:101B900089859A850E944123D801A95BBF4F8D9109
:101BA0009C911197F801E75BFF4F208131818217EB
:101BB000930724F42D933C9391838083349CF0010C
:101BC000359CF00D1124E60DF71DDF01A55ABF4F1E
:101BD0008D919C91892B09F4EACEDF01AA5BBF4F5E
:101BE0001C929F012C5B3F4FCF018D5B9F4FDC010F
:101BF0008C9190E00196A3E0880F991FAA95E1F7D8
:101C0000D9018D939C9383E090E095A784A7898563
:101C10009A850E94F610349C6001359CD00C1124EA
:101C2000C3018C0D9D1DFC01EC5BFF4FF88BEF8712
:101C3000208131812150310931832083212C9C0165
:101C4000215A3F4F3A832983FE83ED83BC016D5BAC
:101C50007F4F7A87698792012F5F3F4F329E400105
:101C6000339E900C1124860C971C5C017CE3A70E1C
:101C7000B11C8C010A5B1F4FDC01A55ABF4F7D01CF
:101C80006C01B1E2CB0ED11CE981FA8140812416AE
:101C900008F047C0822D90E0AD81BE816D917C91AE
:101CA000680F791FE985FA85208130E02F5F3F4F6B
:101CB000E3E0220F331FEA95E1F7621773077CF523
:101CC000D4012C91B8E02B9F900111246217730767
:101CD00034F1F5012081222381F0D8012C912403D5
:101CE000F00111248E0F9F1FD701ED91FC91E80F99
:101CF000F91FE4914E2F40950DC0F8012081240377
:101D0000F00111248E0F9F1FD701ED91FC91E80F78
:101D1000F91F4491F601808191810E94C82023948B
:101D2000B3CFAF85B8890D911C9101501109349C36
:101D3000F001359CF00D1124E60DF71DFA83E983BF
:101D40005F01F9E4AF0EB11CC980DA802CE3C20E4A
:101D5000D11CE980FA8031E2E30EF11CD5018D91AE
:101D60009C91081719070CF490CDF601408141951C
:101D7000B801D7018D919C910E94C8200150110992
:101D8000EDCF019708F046C089859A850E944123CE
:101D9000349CF001359CF00D1124E60DF71DDF0198
:101DA000A95BBF4F8D919C911197E75BFF4F2081FD
:101DB00031818217930724F42D933C939183808380
:101DC000349CF001359CF00D1124E60DF71DDF0168
:101DD000A35ABF4F8D919C91892B09F4E8CDC20184
:101DE0000196389ED001399EB00D1124A60DB71D65
:101DF0008C91DF01AC5BBF4F38E0839FC0011124A1
:101E0000019711969C938E9312961C9283E090E01A
:101E100095A784A789859A850E94F610349C600155
:101E2000359CD00C1124C3018C0D9D1DBC016C5B35
:101E30007F4F788B6F87DB012D913C9111972F5F3E
:101E40003F4F2D933C93212CFC01E05AFF4FFA8326
:101E5000E9837E836D839C012D5B3F4F3A87298701
:101E600092012F5F3F4F329E4001339E900C112410
:101E7000860C971C5C013CE3A30EB11C8C010A5B31
:101E80001F4F675E7F4F7B016C0171E2C70ED11C53
:101E9000A981BA814C91241608F046C0822D90E0A9
:101EA000ED81FE8160817181681B790BA985BA85FE
:101EB0002C9130E02F5F3F4F53E0220F331F5A9594
:101EC000E1F76217730774F5F4012081F8E02F9FA2
:101ED00090011124621773072CF1D5012C91F801A0
:101EE000222379F020812403F00111248E0F9F1FFB
:101EF000D701ED91FC91E80FF91FE4914E2F409529
:101F00000CC020812403F00111248E0F9F1FD701E4
:101F1000ED91FC91E80FF91F4491F60180819181C8
:101F20000E94C8202394B4CFAF85B8890D911C912D
:101F3000041B1109349CF001359CF00D1124E60DB1
:101F4000F71DFA83E9835F01F9E4AF0EB11CC98084
:101F5000DA802CE3C20ED11CE980FA8031E2E30E74
:101F6000F11CD5018D919C91081719070CF4E7CC51
:101F7000F60140814195B801D7018D919C910E9455
:101F8000C82001501109EDCF41E050E06AE070E057
:101F90008B859C850E94DD03888560960FB6F8943A
:101FA000DEBF0FBECDBFDF91CF911F910F91FF908C
:101FB000EF90DF90CF90BF90AF909F908F907F90E9
:101FC0006F905F904F903F902F9008954F925F9247
:101FD0006F927F928F929F92AF92BF92CF92DF9239
:101FE000EF92FF920F932B013C0149015A010E948D
:101FF000D31D6419750986099709A50194010E94EA
:10200000982DC601820F931F6CE370E00E94C92DCA
:10201000E60EF71E9F938F93602F70E0C7010E941A
:10202000C92D9F938F938CE391E09F938F938DE0C5
:1020300091E09F938F930E944C2F8DB79EB7089687
:102040000FB6F8949EBF0FBE8DBF0F91FF90EF901B
:10205000DF90CF90BF90AF909F908F907F906F90C8
:102060005F904F900895CF92DF92EF92FF92CF93BF
:10207000DF93D82F0E945D18892B19F080E090E043
:102080003EC00E94D31D6B017C01C0E08D2F0E94D9
:102090005D18892B79F40E94D31DDC01CB018C19CA
:1020A0009D09AE09BF098D329140A105B10570F3BC
:1020B000C1E0ECCFC11121C00E94D31DC0907E01B0
:1020C000D0907F01E0908001F0908101DC01CB0194
:1020D0008C199D09AE09BF09C397A105B10570F21E
:1020E0000E94D31D60937E0170937F0180938001D5
:1020F0009093810181E090E002C082E090E0DF9166
:10210000CF91FF90EF90DF90CF9008950F931F93A2
:1021100042E050E06DE071E083E091E00E943D2FED
:1021200042E050E06FE071E080E091E00E943D2FDE
:1021300004E110E021E030E043E051E061E08DE4B3
:1021400092E00E94D32321E030E040E051E060E0E3
:102150008DE492E00E94D32380917703882331F0AD
:102160008091790290917A02069729F08DE492E0AD
:102170000E94EA03F1CF1F910F910895FC01918D08
:10218000228D892F90E0805C9F4F821B91098F7375
:102190009927089580E090E0892B29F00E943C1E49
:1021A00081110C9400000895FC01848DDF01A80FBB
:1021B000B11DA35ABF4F2C91848D90E001968F736F
:1021C0009927848FA689B7892C93A089B1898C918E
:1021D000837080648C93938D848D981306C00288DD
:1021E000F389E02D80818F7D80830895CF92DF92E7
:1021F000EF92FF920F931F93CF93DF93EC010E9416
:102200001920CF84D8887E0185E3E80EF11CB70140
:10221000CE010E94CF221FAA1EAA860189899A890F
:1022200008171907D4F18DA9282F30E04EA95FA90E
:102230004217530711F081110AC01DAA8EA5811102
:1022400004C0B701CE010E948A221FAA1EAA8DA92E
:10225000882321F34B8D8EA99FA92AA93BA944234A
:1022600059F0AC014F5F5F4F5FAB4EABF901E80F28
:10227000F91F4081409509C0AC014F5F5F4F5FABD4
:102280004EABF901E80FF91F4081B80188819981AF
:102290000E94C82001501109C1CFDF91CF911F9139
:1022A0000F91FF90EF90DF90CF900895FF920F93E2
:1022B0001F93CF93DF93EC01F62E8B859C854423EF
:1022C00009F457C08430910550F4019758F4CE01B9
:1022D0000E94412383E090E09C878B8703C0059791
:1022E00009F044C08B859C85059721F483E090E03C
:1022F0009C878B87CE010E94F6100BA11CA12DA1FB
:1023000088A599A5820F911D27FD9A950817190791
:1023100069F04B8D4195B801888199810E94C82050
:102320008DA1080F111D87FD1A95E9CFFF2069F0D7
:102330006BA17CA10617170741F04B8D81E0482760
:102340004195888199810E94C8204BA15CA19DA1E3
:10235000892F990F990B28A539A5280F391F4217E6
:10236000530709F056C025E030E051C085E090E009
:1023700057C08430910518F4019720F00AC00597E2
:1023800009F04CC0CE010E94412383E090E09C877D
:102390008B87CE010E94F6100EA11FA16BA17CA11C
:1023A0008DA1082E000C990B9B01280F391F0217D5
:1023B000130769F04B8D4195B801888199810E947E
:1023C000C8208DA1080F111D87FD1A95E7CFFF20AA
:1023D00079F028A539A5820F931F6817790741F076
:1023E0004B8D81E048274195888199810E94C820C2
:1023F0004BA15CA19DA1892F990F990B28A539A507
:10240000280F391F4217530721F426E030E03C879C
:102410002B87840F951F9CA38BA304C086E090E0BC
:102420009C878B87DF91CF911F910F91FF9008952B
:10243000EF92FF920F931F93CF93DF93EC01F62E51
:102440008B859C854423F1F18430910598F40197A4
:1024500098F41CA21BA200E010E02BE030E04AA19F
:1024600069A1888199810E94FF1C83E090E09C878C
:102470008B8702C0059719F5CE010E941920CE0165
:102480000E94F6101BA1FF2021F093E0E92EF12C11
:1024900003C082E0E82EF12C173048F497014AA1DE
:1024A00069A1888199810E947C241F5FF5CF8BA14F
:1024B0009CA18730910551F525E030E025C085E0ED
:1024C00090E02AC08430910518F4019718F008C0F4
:1024D000059701F51CA21BA283E090E09C878B87E7
:1024E000F11003C023E030E002C022E030E04AA156
:1024F00069A1888199810E947C248BA19CA187304D
:10250000910521F426E030E03C872B8701969CA3BF
:102510008BA304C086E090E09C878B87DF91CF91EE
:102520001F910F91FF90EF900895CF92DF92EF925D
:10253000FF921F93CF93DF93EC01D42E8B859C8564
:10254000662309F452C08430910560F4019768F461
:10255000CE010E9441231CA21BA283E090E09C8735
:102560008B8703C0059709F03DC0CE010E94F6108D
:102570002BA13CA128303105A9F1EEA0FFA081E0FC
:1025800090E001C0880F2A95EAF7182FD110109516
:102590002DA188A599A5820F911D27FD9A95E81672
:1025A000F906E1F08B8DC880D9806E2D882339F033
:1025B000C6010E941220412F4095842B04C0C60101
:1025C0000E9412208123482FB701C6010E94C82013
:1025D0008DA1E80EF11C87FDFA94DACF8BA19CA1A6
:1025E000019658C085E090E05AC08430910518F4F7
:1025F000019720F00EC0059709F04FC0CE010E9450
:10260000412387E090E09CA38BA383E090E09C872C
:102610008B87CE010E94F6108BA19CA197FD06C06E
:1026200011E001C0110F8A95EAF701C010E0EEA099
:10263000FFA0D11010952DA188A599A5820F911DFD
:1026400027FD9A95E816F906E1F08B8DC880D980B0
:102650006E2D882339F0C6010E941220412F40952B
:10266000842B04C0C6010E9412208123482FB70189
:10267000C6010E94C8208DA1E80EF11C87FDFA94C6
:10268000DACF8BA19CA197FF04C026E030E03C8705
:102690002B8701979CA38BA304C086E090E09C87C6
:1026A0008B87DF91CF911F91FF90EF90DF90CF90BC
:1026B0000895FF920F931F93CF93DF93EC01F42EB5
:1026C0008B859C85662309F442C08430910550F4C3
:1026D000019750F4CE010E94412383E090E09C8753
:1026E0008B8702C0059781F5CE010E94F6102BA1C1
:1026F0003CA188A599A52817390731F10EA11FA182
:102700008DA1082E000C990B48A559A5480F591FFB
:102710002BA13CA10417150709F458C0F11004C0FF
:102720000217130721F40AC00217130739F44B8D5F
:102730004195B801888199810E94C8208DA1080F18
:10274000111D87FD1A95DCCF85E090E046C08430EE
:10275000910518F4019718F009C00597E1F5CE012D
:102760000E94412383E090E09C878B87CE010E94EA
:10277000F6100EA11FA148A559A58DA1282F880FDD
:10278000330BBA01620F731F8BA19CA106171707A9
:10279000B1F0F11004C00817190721F40AC0081796
:1027A000190739F44B8D4195B801888199810E94B0
:1027B000C8208DA1080F111D87FD1A95DCCF841745
:1027C000950724F446E050E05C874B87820F931F07
:1027D0009CA38BA304C086E090E09C878B87DF914D
:1027E000CF911F910F91FF900895EF92FF920F9359
:1027F0001F93CF93DF93EC01062F8B859C85442399
:1028000009F479C08330910518F0039761F170C025
:102810006F85788989899A899B01281B390BC901A1
:1028200037FD01969595879501969CA38BA3002370
:10283000B9F04B8D11E041274195681B790B8881D8
:1028400099810E94C8204B8D4127419569897A89D9
:102850008BA19CA1680F791F888199810E94C82053
:1028600083E090E0D0C08BA19CA197FD41C0CE0138
:102870000E94F610E12CF12C6BA17CA1E616F70664
:10288000C4F44B8D419569897A896E0D7F1D8881CD
:1028900099810E94C8204B8D41956F8578896E196A
:1028A0007F09888199810E94C8203FEFE31AF30ACB
:1028B000E3CF615071097CA36BA3002309F4A5C089
:1028C00077FDA3C04B8D11E04127419589899A89F5
:1028D000680F791F888199810E94C8204B8D4127FC
:1028E00041956F8578898BA19CA1681B790B7FC06E
:1028F00085E090E088C08330910549F120F401978C
:1029000008F47FC003C0059709F07BC0CE010E9488
:102910001920CE010E94F6101CA21BA2002399F0E0
:102920004B8D11E0412741956F8578898881998188
:102930000E94C8204B8D4127419569897A898881F9
:1029400099810E94C82083E090E09C878B872BA10F
:102950003CA16F85788989899A89AB01481B590BFD
:10296000CA0157FD019695958795821793070CF438
:1029700048C04B8D4195621B730B888199810E94E1
:10298000C8204B8D419569897A898BA19CA1680FDC
:10299000791F888199810E94C8202BA13CA12F5FBB
:1029A0003F4F3CA32BA3002381F16F857889898950
:1029B0009A89AB01481B590BCA0157FD01969595A1
:1029C0008795821793070CF14B8D11E041274195B4
:1029D000621B730B888199810E94C8204B8D41270F
:1029E000419569897A898BA19CA1680F791F88819B
:1029F0009981DF91CF911F910F91FF90EF900C94EF
:102A0000C82086E090E09C878B87DF91CF911F9153
:102A10000F91FF90EF9008958F929F92AF92BF9287
:102A2000CF92DF92EF92FF920F931F93CF93DF939A
:102A3000EC01D62E8B859C85442309F4D3C08230CB
:102A4000910539F48E010B5C1F4F55E0E52EF12CFA
:102A500028C08230910538F08330910581F10497C8
:102A600009F497C0BCC0BE016B5C7F4FCE010E94D1
:102A7000CF22882309F441C11FAA1EAA83E090E057
:102A80003EC1B801CE010E948A22811102C0FC869B
:102A9000EB862DA98B859C85211108C08530910579
:102AA00029F01DAA8EA58111F2CFEBCF059709F46D
:102AB00033C11FAA1EAA83E090E09C878B878DA953
:102AC0008823B9F121E02D2530E04AA169A1888150
:102AD00099810E947C244B8D2AA93BA98EA99FA98C
:102AE000442359F0AC014F5F5F4F5FAB4EABF90130
:102AF000E80FF91F4081409509C0AC014F5F5F4F5F
:102B00005FAB4EABF901E80FF91F4081DD2031F0DA
:102B100069A128E0629FB001112407C06AA188E082
:102B2000689FB0011124695F7F4F888199810E945D
:102B3000C8208DA990E02EA93FA92817390709F0D0
:102B4000EBC08EA5811103C082E090E0D8C02F8534
:102B50003889DD2071F049A18D859E85B901681BFA
:102B6000790BCB01019678E0479F801991091124D8
:102B700008C08AA148E0849FC00111240796821BE7
:102B8000930B9FAB8EAB181619064CF584E090E0C2
:102B9000B6C021E0262730E04AA169A18881998149
:102BA0000E947C244B8D4195DD2031F069A188E0A5
:102BB000689FB001112407C06AA128E0629FB0019C
:102BC0001124695F7F4F888199810E94C8208EA956
:102BD0009FA901979FAB8EAB892B09F09DC085E023
:102BE00090E08DC08430910539F0059709F085C0DB
:102BF00084E090E09C878B8721E02D2530E04AA17E
:102C000069A1888199810E947C244B8D4195DD20AA
:102C100031F069A188E0689FB001112407C06AA162
:102C200028E0629FB0011124695F7F4F88819981FC
:102C30000E94C8200AA110E0A9A0B12C7801EA18CE
:102C4000FB084FEFE41AF40A43E0EE0CFF1C4A9530
:102C5000E1F78C8D9D8D009721F08E159F0508F46E
:102C60007C010F5F1F4FDD2019F123E0AA0CBB1C74
:102C70002A95E1F733E0000F111F3A95E1F745017E
:102C80006401CA18DB0880169106A4F5682D8881B6
:102C900099810E94122090E02B8D211103C020E029
:102CA00030E002C02FEF30E02817390719F52AC0AD
:102CB00083E0000F111F8A95E1F70150110993E09D
:102CC000AA0CBB1C9A95E1F7C12CD12C0A151B0547
:102CD0008CF0602F888199810E94122090E02B8DCA
:102CE000211103C020E030E002C02FEF30E02817B0
:102CF000390761F0CE14DF0478F086E090E09C871D
:102D00008B870AC06FEF861A960ABACF0150110955
:102D10007FEFC71AD70ADACFDF91CF911F910F91BA
:102D2000FF90EF90DF90CF90BF90AF909F908F90EB
:102D30000895CF92DF92EF92FF920F931F93CF935C
:102D4000DF93EC01D62E8B859C85442309F45AC071
:102D50008430910518F4019720F013C0059789F08D
:102D60004EC0CE010E944123D11003C081E090E00B
:102D700002C08FEF90E09CA38BA383E090E09C8740
:102D80008B87CE010E94F6102BA13CA1D11003C06D
:102D90008FEF90E002C080E090E08217930779F116
:102DA0000EA11FA12DA188A599A5820F911D27FD18
:102DB0009A9508171907E9F0CB8CE880F980602F05
:102DC000C701CC2021F00E941220809502C00E94F1
:102DD00012204BA1D11040954823C1104095B80155
:102DE000C7010E94C8208DA1080F111D87FD1A95EB
:102DF000D9CF8BA19CA1DD2009F456C05BC085E032
:102E000090E05FC08430910518F4019720F013C062
:102E1000059709F054C0CE010E944123D11003C090
:102E20008FEF90E002C081E090E09CA38BA383E051
:102E300090E09C878B87CE010E94F6100EA11FA107
:102E40002DA188A599A5820F911D27FD9A95081798
:102E50001907E9F0CB8CE880F980602FC701CC20FE
:102E600021F00E941220809502C00E9412204BA1E6
:102E7000D11040954823C1104095B801C7010E9468
:102E8000C8208DA1080F111D87FD1A95D9CF8BA1E0
:102E90009CA1DD2069F08F3F910531F426E030E000
:102EA0003C872B87DD2031F0880F991F816004C09B
:102EB0000097A1F3959587959CA38BA304C086E00A
:102EC00090E09C878B87DF91CF911F910F91FF90AE
:102ED000EF90DF90CF900895CF92DF92EF92FF9224
:102EE0000F931F93CF93DF93FC018381882351F0CD
:102EF00087E090E0841B910991E001C0990F8A95C9
:102F0000EAF706C091E0042E01C0990F0A94EAF78F
:102F1000218530E0A62FB0E0A217B3079CF548301A
:102F200088F522853385A90189E0689F400D511DF0
:102F30001124BA01E48140E050E080E0A7E0B0E075
:102F4000C12CD12C7601C394EE2321F09D01241BCA
:102F5000350B01C09A01EB01C20FD31F2881292331
:102F600059F097018601042E04C0000F111F221F83
:102F7000331F0A94D2F7802B4F5F5F4F48305105C3
:102F800019F701C080E0DF91CF911F910F91FF9061
:102F9000EF90DF90CF900895833081F028F4813056
:102FA00099F08230A1F008958730A9F08830B9F007
:102FB0008430D1F4809180008F7D03C080918000A7
:102FC0008F7780938000089584B58F7702C084B591
:102FD0008F7D84BD08958091B0008F7703C080916C
:102FE000B0008F7D8093B0000895DC0112963C9173
:102FF00012971996EC91A62FB0E0F0E0332339F048
:10300000AE17BF075CF4483048F40C943926AE176D
:10301000BF0724F4483010F40C94A32680E00895F0
:10302000FC01418550E0440F551F60E070E084854D
:1030300095850C94262FDC0112963C9112971996D7
:10304000EC91A62FB0E0F0E0332339F0AE17BF07C4
:103050005CF4483048F40C94A326AE17BF0724F460
:10306000483010F40C94392680E00895FC01228148
:1030700021110C946C17FC01218530E0E62FF0E063
:10308000E217F30724F4483010F40C94432780E04F
:103090000895962F9295692F6C7C862F869586953C
:1030A000937324E0929FB0011124682B862F8A7AB3
:1030B00086956575660F862B0895CF93DF93282F2D
:1030C00030E0F901E25CFE4F8491F901E65DFE4FCC
:1030D000D491F901EA5EFE4FC491CC2391F08111A5
:1030E0000E94CC17EC2FF0E0EE0FFF1FE45FFE4FC5
:1030F000A591B491EC91ED2381E090E021F480E082
:1031000002C080E090E0DF91CF9108951F93CF93AC
:10311000DF93282F30E0F901E25CFE4F8491F90142
:10312000E65DFE4FD491F901EA5EFE4FC491CC23D7
:10313000C1F0162F81110E94CC17EC2FF0E0EE0F9A
:10314000FF1FEE5FFE4FA591B4919FB7F894111148
:1031500004C08C91D095D82302C0EC91DE2BDC9377
:103160009FBFDF91CF911F910895BF92CF92DF92C1
:10317000EF92FF920F931F93CF93DF93EC0188851B
:103180008823B9F080919101882379F08FB7F89462
:1031900090919101913039F49DB3909392019DB338
:1031A0009DBB8FBF02C08093920180E58CBD81E002
:1031B0008DBD60E08F810E9486188885811102C0D4
:1031C000F12C2FC040E0242F30E0898590E0880F5B
:1031D000991F28173907D0F58C859D85FC01E20FD2
:1031E000F31F80818EBD00000DB407FEFDCF8EB5AC
:1031F0004F5FE9CFB601002E02C0759567950A941E
:10320000E2F761708B2D0E94861861E08E2D0E947E
:10321000861860E08E2D0E9486180150110950F723
:10322000F3942F2D30E0898590E0880F991F28179F
:10323000390760F48C859D85FC01E20FF31FC08087
:10324000EE80BD8007E010E0D12CD4CF61E08F810B
:103250000E9486188885882381F0809191018823B7
:1032600061F09FB7F89420919101809192012130F3
:1032700019F48DBB9FBF01C08FBFDF91CF911F910C
:103280000F91FF90EF90DF90CF90BF900895CF9275
:10329000DF92EF92FF920F931F93CF93DF93E62E6F
:1032A000F12CFC01218530E0E216F3060CF049C058
:1032B000EC01F9E06F9F80011124C12CD12CEA852B
:1032C000FB85E00FF11F808590E00C2C02C09595E6
:1032D00087950A94E2F780FF27C0CE010E9410185C
:1032E000E985F0E03197EE19FF09EE0FFF1F8C859D
:1032F0009D85E80FF91F81E08C0D8083EA85FB85B1
:10330000E00FF11FEC0DFD1D8081E985F0E03197A4
:10331000EE19FF09EE0FFF1F2C853D85E20FF31F0D
:103320008183CE010E94B5188FEFC81AD80AE8E051
:10333000CE16D10421F66A857B85FB01E00FF11FD3
:103340001086DF91CF911F910F91FF90EF90DF904A
:10335000CF900895AF92BF92CF92DF92EF92FF92FB
:103360000F931F93CF93DF93FC018281A185C62F1A
:10337000D0E0882309F451C0B0E0CA17DB070CF095
:10338000B5C0483008F0B2C0283008F0AFC0E284C1
:10339000F38479E0679F500111243481A22FB0E0BB
:1033A000332329F087E090E08A1B9B0B01C0CD01FD
:1033B000EA0CFB1C50E0332331F007E010E0E80199
:1033C000C41BD50BAE014E0D5F1DEA0138818E0D79
:1033D0009F1DEC01388382859385E501C80FD91FB5
:1033E00048858481882321F027E030E02A1B3B0BAD
:1033F00081E090E0A0E0B0E004C0880F991FAA1F10
:10340000BB1F2A95D2F7842B88878289882319F0DD
:10341000CF010E94471981E06AC09381992359F036
:1034200007E010E07801E41AF10831E001C0330F41
:10343000EA94EAF706C031E0042E01C0330F0A9483
:10344000EAF7B0E0CA17DB070CF051C0483008F0CB
:103450004EC0283008F04BC0D9E06D9FA001112468
:10346000C7E0D0E0C21BD10981E090E0A0E0B0E06D
:103470006C017D0104C0CC0CDD1CEE1CFF1CCA9548
:10348000D2F77C2D04C0880F991FAA1FBB1F2A9555
:10349000D2F7182FC0948095C0E0D0E0A285B38504
:1034A000A40FB51FAC0FBD1FFC902F2D23239381BC
:1034B000222341F0992311F0272F01C0212F2F291A
:1034C0002C9307C0992311F09C2D01C0982F9F21A8
:1034D0009C932196C830D10509F782859385DC013C
:1034E000A40FB51F8FEF18968C938FCF80E0DF91DC
:1034F000CF911F910F91FF90EF90DF90CF90BF90F1
:10350000AF9008958F929F92AF92BF92CF92DF9229
:10351000FF920F931F93CF93DF93CDB7DEB728971A
:103520000FB6F894DEBF0FBECDBF4830510508F08E
:10353000DCC1FA01F62E8C01E459FF4F0C94F12DF9
:10354000DC0112962C91B9E06B9FC001112422235B
:10355000D9F020E030E0F80143810284F385E02DCA
:10356000E80FF91FE20FF31F442329F0408150E0D8
:103570005595479502C04081440F40832F5F3F4FD0
:103580002830310541F7A3C127E030E0D8011A9671
:10359000ED91FC911B97E80FF91FE20FF31F40819B
:1035A00041832150310990F792C1FC018281F9E0F9
:1035B0006F9F900111248823E9F080E090E0D8010A
:1035C00013964C9113971A96ED91FC911B97E20F6D
:1035D000F31FE80FF91F442319F04081440F04C082
:1035E000408150E05595479540830196883091057C
:1035F00031F76DC180E090E0F80142855385420FBC
:10360000531FBC010196FA01E80FF91FE081DA01AE
:10361000A60FB71FEC938730910571F758C1DC01F5
:1036200053968C9153971296DC9012978823B9F099
:10363000DD2069F019968C9190E0262F30E0281754
:10364000390754F440E0C8010E94432706C040E017
:10365000C8010E946C1701C080E0898301C01982F3
:10366000DD2079F020E0DD24D394D20E4D2D6F2D96
:10367000C8010E94AA192D2D2730A9F7298147E0FA
:1036800041C0B9E0FB9EA001112487E090E0D80181
:103690001A96ED91FC911B97E40FF51FE80FF91FA7
:1036A0002081220F2083019790F7E8CFFC018389C6
:1036B000D2808823B1F0DD2061F0818590E0262F53
:1036C00030E02817390754F447E0C8010E94432727
:1036D00006C047E0C8010E946C1701C080E08983E2
:1036E00001C01982DD2099F028E0DD24DA94D20EA1
:1036F0004D2D6F2DC8010E94AA192D2DD110F5CF87
:10370000298140E06F2DC8010E94F517E0C0F9E063
:10371000FF9EA001112420E030E0D8011A96ED911F
:10372000FC911B97E40FF51FE20FF31F808190E0DF
:103730009595879580832F5F3F4F2830310569F736
:10374000DFCFFC018281F9E06F9F600111248823A3
:10375000D1F0812C912CD8011A96AD90BC901B977A
:10376000AC0CBD1CA80CB91CF5016081C8010E94FD
:103770004918D5018C93BFEF8B1A9B0AE8E08E168F
:10378000910449F7A4C020E030E067E070E0D80180
:103790001A968D919C911B978C0D9D1DFC01E20F3B
:1037A000F31FB080AB01421B530B840F951FDC014C
:1037B0008C918083F801828593858C0D9D1DFC0181
:1037C000E40FF51FB0822F5F3F4F24303105F9F62B
:1037D0007EC0DC0112968C91B9E06B9F40011124F0
:1037E000882321F120E030E067E070E0F801828575
:1037F0009385880D991DFC01E20FF31FD080AB016A
:10380000421B530B840F951FDC018C918083F801C0
:1038100082859385880D991DFC01E40FF51FD082E8
:103820002F5F3F4F2430310509F751C0A12CB12C37
:10383000D8011A96CD90DC901B97C80CD91CCA0CE5
:10384000DB1CF6016081C8010E944918D6018C93E7
:10385000BFEFAB1ABB0AE8E0AE16B10449F737C0B8
:103860009E012F5F3F4F5901490187E0D82E4D2D12
:103870006F2DC8010E943618D4018D934D01DA9442
:10388000BFEFDB12F4CFD12CF50121915F014D2D5B
:103890006F2DC8010E94F517D394F8E0DF12F4CF22
:1038A00016C029E0629FA001112480E090E0D801B9
:1038B0001A96ED91FC911B97E40FF51FE80FF91F85
:1038C00020812095208301968830910581F7D801C9
:1038D0001A96ED91FC911B97B9E0FB9EE00DF11D4E
:1038E00011248FEF808781E001C080E028960FB619
:1038F000F894DEBF0FBECDBFDF91CF911F910F9126
:10390000FF90DF90CF90BF90AF909F908F900895E1
:10391000DF92EF92FF920F931F93CF93DF93EC010F
:10392000E12CF12C01E010E0CE010E94101898016A
:103930000E2C02C0220F331F0A94E2F760E0D12C54
:1039400071E07E0D898590E0462F50E048175907B9
:103950007CF5E9E06E9FD0011124EA85FB85EA0F32
:10396000FB1FE085F0E0E223F323EF2BF9F0019752
:10397000841B950B880F991FEC85FD85E80FF91FB7
:1039800070838A859B85A80FB91FAE0DBF1D8C91D2
:10399000E985F0E03197E41BF50BEE0FFF1F4C8536
:1039A0005D85E40FF51F8183DD24D3946F5FCACF5B
:1039B000DD2019F0CE010E94B5188FEFE81AF80A41
:1039C00098E0E916F10409F0AFCF80E0298530E0F6
:1039D000482F50E04217530754F4EA85FB8599E0DD
:1039E000899FE00DF11D112410868F5FEFCFDF91CD
:1039F000CF911F910F91FF90EF90DF900895CF929C
:103A0000DF92EF92FF920F931F93CF93DF93EC011E
:103A1000D62EC42E7901461708F47DC02A30310510
:103A20000CF05EC0CE010E94101882E0E816F1048E
:103A300001F140F4E114F10471F081E0E816F104C1
:103A400089F046C083E0E816F10411F184E0E8163D
:103A5000F104B1F03DC081E00115110509F080E0ED
:103A60009CE01CC0802F083011050CF087E09BE023
:103A700015C0802F003111050CF08FE09AE00EC0C8
:103A800081E00115110509F480E0819599E006C0F7
:103A900081E00115110509F480E09FE02D2D30E053
:103AA000E985F0E03197E21BF30BEE0FFF1F4C8529
:103AB0005D85E40FF51F9083E985F0E03197E21B07
:103AC000F30BEE0FFF1F2C853D85E20FF31F818363
:103AD000D394CD1408F0A9CFCE010E94B5181DC013
:103AE0002A30310521F02B30310571F016C081E00C
:103AF0000130110509F080E08A8B0130110569F46D
:103B0000CE010E94881C09C081E00130110509F036
:103B100080E08B8B02C080E001C081E0DF91CF911B
:103B20001F910F91FF90EF90DF90CF900895CF936A
:103B3000DF9390E0FC01E65DFE4F2491FC01EA5E1C
:103B4000FE4F8491882361F190E0880F991FFC015A
:103B5000E850FF4FC591D491FC01EE5FFE4FA59157
:103B6000B491611109C09FB7F89488812095822390
:103B70008883EC912E230BC0623061F49FB7F894D8
:103B80008881322F309583238883EC912E2B2C93C0
:103B90009FBF06C08FB7F894E8812E2B28838FBF74
:103BA000DF91CF9108952FB7F89460918D017091B6
:103BB0008E0180918F01909190012FBF0895CF9237
:103BC000DF92EF92FF920F931F93CF93DF936C01DD
:103BD0007A018B01C0E0D0E0CE15DF0581F0D8017D
:103BE0006D918D01D601ED91FC910190F081E02D58
:103BF000C6010995892B11F02196EECF7E01C701F0
:103C0000DF91CF911F910F91FF90EF90DF90CF90B8
:103C10000895FC01538D448D252F30E0842F90E0D2
:103C2000821B930B541710F0CF96089501970895B7
:103C3000FC01918D828D981761F0828DDF01A80FB4
:103C4000B11D5D968C91928D9F5F9F73928F90E0D6
:103C500008958FEF9FEF0895FC01918D828D981745
:103C600031F0828DE80FF11D858D90E008958FEF82
:103C70009FEF08950E94182F80EB91E00E94BE10E4
:103C800021E0892B09F420E0822F0895EF92FF9222
:103C90000F931F93CF93DF93EC0181E0888F9B8D6F
:103CA0008C8D981305C0E889F989808185FD26C02F
:103CB000F62E0B8D10E00F5F1F4F0F731127E02EB4
:103CC0008C8DE8120CC00FB607FCFACFE889F98991
:103CD000808185FFF5CFCE010E94D410F1CF8B8D6E
:103CE000FE01E80FF11DE35AFF4FF0829FB7F894F1
:103CF0000B8FEA89FB89808180620AC09FB7F894A4
:103D0000EE89FF896083E889F98980818370806406
:103D100080839FBF81E090E0DF91CF911F910F9151
:103D2000FF90EF900895CF93DF93EC01888D882367
:103D3000C9F0EA89FB89808185FD05C0A889B98918
:103D40008C9186FD0FC00FB607FCF5CF808185FFF3
:103D5000F2CFA889B9898C9185FFEDCFCE010E9461
:103D6000D410E7CFDF91CF9108951F920F920FB635
:103D70000F9211242F933F938F939F93AF93BF93F1
:103D800080918D0190918E01A0918F01B091900151
:103D90003091AF0123E0230F2D3720F40196A11DB0
:103DA000B11D05C026E8230F0296A11DB11D209369
:103DB000AF0180938D0190938E01A0938F01B093FA
:103DC00090018091AB019091AC01A091AD01B091B7
:103DD000AE010196A11DB11D8093AB019093AC0182
:103DE000A093AD01B093AE01BF91AF919F918F9120
:103DF0003F912F910F900FBE0F901F9018951F921B
:103E00000F920FB60F9211242F933F934F935F930E
:103E10006F937F938F939F93AF93BF93EF93FF9392
:103E200080EB91E00E94D410FF91EF91BF91AF9190
:103E30009F918F917F916F915F914F913F912F91C2
:103E40000F900FBE0F901F9018951F920F920FB6F4
:103E50000F9211242F938F939F93EF93FF93E091F1
:103E6000C001F091C1018081E091C601F091C701CC
:103E700082FD12C090818091C9018F5F8F73209164
:103E8000CA01821751F0E091C901F0E0E055FE4F00
:103E9000958F8093C90101C08081FF91EF919F911F
:103EA0008F912F910F900FBE0F901F901895FC01CE
:103EB000968D828DA4A5B5A591FD0AC0882319F021
:103EC0008689978902C0808D918D0597B1F409C0CC
:103ED000882319F08689978902C0808D918D059776
:103EE00061F081E022A533A52A173B0709F080E0A5
:103EF00086A71197B5A7A4A70895CD01019695A708
:103F000084A781E011969C91911180E086A7089585
:103F1000362FFB018E2F831B8417B8F48081982FD6
:103F20009695292F2575982F9575990F922B892F86
:103F300086958695282F2373937354E0959FC0012F
:103F40001124822B82958193E5CF0895242F269505
:103F500050E0460F571F362FFB018E2F831B821711
:103F600040F4808141505109DA019C9191938C93E6
:103F7000F4CF0895CF92DF92EF92FF920F931F93A9
:103F8000CF93DF937C016B01EA01CA0101960E9485
:103F9000F72D8C010097B1F0AE01B6010E941D2FE4
:103FA000F801EC0FFD1F1082D701ED91FC91008408
:103FB000F185E02DB801C7010995C8010E948F2E37
:103FC000CE0102C080E090E0DF91CF911F910F9170
:103FD000FF90EF90DF90CF900895EF92FF920F93B4
:103FE0001F93CF93DF937C01EB01FC0125A936A938
:103FF00000E010E0AB0160E00E94D323C7010E9403
:10400000EA038111FBCFFE0101900020E9F7CF0107
:1040100001978C1B9D0BDF91CF911F910F91FF900A
:10402000EF900895462F47706695669566950C94B7
:104030003618CF93DF93EC014AA169A1461720F00F
:10404000888199810E9454248B8D882351F027E028
:1040500030E04AA169A188819981DF91CF910C94C8
:104060007C24DF91CF910895CF92DF92EF92FF925F
:104070000F931F93CF93DF93EC01F62EC42E8B8505
:104080009C85222309F446C08430910598F4019759
:1040900098F41CA21BA200E010E02BE030E04AA143
:1040A00069A1888199810E94FF1C83E090E09C8730
:1040B0008B8702C0059759F5CE010E941920CE01C9
:1040C0000E94F6101BA1FF2021F093E0E92EF12CB5
:1040D00003C082E0E82EF12CD12C173080F4970138
:1040E0004AA169A1888199810E947C2496014AA1F4
:1040F00069A1888199810E947C241F5FEECF8BA1EA
:104100009CA18730910599F525E030E02EC085E02F
:1041100090E033C08430910518F4019718F008C07E
:10412000059749F51CA21BA283E090E09C878B8732
:10413000F11003C023E030E002C022E030E04AA1E9
:1041400069A1888199810E947C2421E02C2530E09E
:104150004AA169A1888199810E947C248BA19CA19C
:104160008730910521F426E030E03C872B870196CB
:104170009CA38BA304C086E090E09C878B87DF9193
:10418000CF911F910F91FF90EF90DF90CF90089506
:10419000242F462F477033E0769567953A95E1F7DF
:1041A0000C941B18CF92DF92FF920F931F93CF9323
:1041B000DF93EC01F62E8B859C85442309F462C0C5
:1041C0008330910518F00397F9F059C01CA21BA287
:1041D000CE010E941920FF2099F04B8D11E041275C
:1041E00041956F857889888199810E94C8204B8D7F
:1041F0004127419569897A89888199810E94C820DF
:1042000083E090E09C878B87CE010E941920CE012D
:104210000E94F61009891A898F859889801B910B55
:1042200097FD01966C01D594C7948BA19CA1C816EB
:10423000D9062CF1080F191F0F5F1F4F6F85788962
:104240008BA19CA19B01281B390B0217130744F477
:104250004B8D4195B801888199810E94C820ECCF8F
:1042600001969CA38BA3FF2009F490C0C816D90621
:104270000CF48CC04B8D11E04127419569C085E05D
:1042800090E082C083309105D1F120F4019708F4C9
:1042900079C003C0059709F075C08F859889298971
:1042A0003A89821B930B97FD0196959587959CA360
:1042B0008BA3CE010E941920CE010E94F610FF2090
:1042C000D9F04B8D11E0412741956F8578898BA1FD
:1042D0009CA1681B790B888199810E94C8204B8D15
:1042E0004127419569897A898BA19CA1680F791F23
:1042F000888199810E94C82083E090E045C08BA10D
:104300009CA197FD3FC04B8D41956F857889681BB7
:10431000790B888199810E94C8204B8D41956989CC
:104320007A898BA19CA1680F791F888199810E944D
:10433000C8208BA19CA101979CA38BA3FF2031F1E6
:1043400097FD24C04B8D11E0412741956F857889F9
:10435000681B790B888199810E94C8204B8D412769
:10436000419569897A898BA19CA1680F791F888101
:104370009981DF91CF911F910F91FF90DF90CF90A6
:104380000C94C82086E090E09C878B87DF91CF91CA
:104390001F910F91FF90DF90CF900895CF92DF9201
:1043A000EF92FF920F931F93CF93DF936C01D62F61
:1043B000C42F7901DC019F96ED91FC91D097309745
:1043C000C1F080818D1311C00180F281E02DD08178
:1043D000CD1708F4DC2F4D2F50E0BF016F5F7F4FEA
:1043E000C7010E941D2F8D2F6BC00380F481E02D2B
:1043F000E6CFF60120AD31AD80819181DC0154968C
:104400004D915C9155972417350751F021153105D1
:1044100011F422E531E0FC01358B248B0E94CB2581
:10442000E114F10409F449C0F601A081B181599663
:104430008C915997D817C0F05A969C915A979D170E
:1044400098F05B960D911C915C97D81769F0549683
:10445000ED91FC915597E00FF11FE4910E0F111DA6
:104460000F5F1F4F8F5FF1CF0F3FFFEF1F0741F42B
:104470004C2F50E060E070E0C7010E94262F1DC065
:104480005496ED91FC915597E00FF11F8491C81758
:1044900008F0C4912E2DC7010F5F1F4F382F321B1C
:1044A0003C1768F45496ED91FC915597E00FF11F7D
:1044B0003491FC013193CF01EFCF80E001C08C2F0C
:1044C000DF91CF911F910F91FF90EF90DF90CF90F0
:1044D00008951F93CF93DF93EC01142F2AA93BA9D2
:1044E00049A90E94CE21112389F0882379F090E018
:1044F0002CA9921758F429A9821730F4EAA9FBA92C
:10450000E80FF11D10828F5F9F5FF2CFDF91CF9197
:104510001F9108950F931F93CF93DF93EC018B01AD
:10452000ECA5FDA541E08181811101C040E06081E1
:10453000CE010E946922F80180832E8D9A8D21FD83
:104540000BC0992319F02E893F8902C0288D398D1F
:104550002530310589F40AC0992319F02E893F8945
:1045600002C0288D398D2530310531F06AA97BA92B
:10457000482FCE010E94A61F8E8D80FF07C06AA91A
:104580007BA9F8014081CE010E94881FCE010E94C4
:10459000571F81E0DF91CF911F910F9108950F93E5
:1045A0001F93CF93DF93EC01FB011082EAA5FBA5DB
:1045B000FDA7ECA7309719F08081811104C081E03C
:1045C0008EA780E059C01EA69E8D8A8D91FD0AC0DF
:1045D000882319F08E899F8902C0888D998D05974F
:1045E00081F409C0882319F08E899F8902C0888DC3
:1045F000998D059731F001900020E9F73297FDA7DA
:10460000ECA7ECA5FDA541E08181811101C040E04E
:104610008B016081CE010E946922F80180832E8D7A
:104620009A8D21FD0BC0992319F02E893F8902C074
:10463000288D398D2530310589F40AC0992319F068
:104640002E893F8902C0288D398D2530310531F002
:104650006AA97BA9482FCE010E94A61F8E8D80FFDC
:1046600007C06AA97BA9F8014081CE010E94881F7A
:10467000CE010E94571F81E0DF91CF911F910F91D2
:104680000895FC01848995898230910519F4218966
:10469000328902C02785308934A323A337A326A3F8
:1046A0008230910519F42785308902C02189328929
:1046B00031A720A7029711F08FEF01C081E085A3F9
:1046C00008951F93CF93DF93FC01A081B181589689
:1046D0001C9184A9180F81A9811770F4EF0182A998
:1046E00093A9009711F00E948F2E19AB812F90E0B3
:1046F0000E94F72D9BAB8AABDF91CF911F9108955C
:10470000009769F0FC0101900020E9F73197AF01B3
:10471000481B590BBC0180EB91E00C94DF1D80E03D
:1047200090E008958F929F92AF92BF920F931F9344
:10473000CF93DF93CDB7DEB7A1970FB6F894DEBF66
:104740000FBECDBF19A2423008F44AE08E010F5DC2
:104750001F4F842E912CA12CB12CA50194010E94F5
:10476000982DE62FB901CA0101501109EA3014F45D
:10477000E05D01C0E95CD801EC93232B242B252BB1
:1047800061F7C8010E948023A1960FB6F894DEBF9E
:104790000FBECDBFDF91CF911F910F91BF90AF9012
:1047A0009F908F9008950F931F93FC01E65DFE4F3D
:1047B0007081671758F4DC0172E4679FA00DB11D8A
:1047C000112491969B965C934E939A97408164171F
:1047D00050F4DC0142E4649FA00DB11D1124D69673
:1047E0003C932E93D5972081621750F4DC0172E43C
:1047F000679FA00DB11D112499961C930E93989755
:104800002081621750F4DC0122E4629FA00DB11DEB
:1048100011249B961C921E929A972081621790F405
:1048200042E4649FB0011124FC01E60FF71F21E070
:1048300030E030AF27AB12AE11AEFC01E60FF71F30
:1048400015A614A61F910F910895CF93DF930E9490
:104850008023EC0185E491E00E9480238C0F9D1F52
:10486000DF91CF910895CF92DF92EF92FF92CF9395
:10487000DF936B017C016DE280EB91E00E94461EAC
:10488000EC0166277727CB016C197D098E099F09FA
:104890004AE00E9492238C0F9D1FDF91CF91FF90E1
:1048A000EF90DF90CF900895CF9378E05FEF4617B9
:1048B000D0F0A9E06A9F90011124DC011A96ED91D5
:1048C000FC911B97E20FF31FDF01C72F1D92CA95C2
:1048D000E9F7DC011A96ED91FC911B97E20FF31FAB
:1048E00050876F5FE4CFFC012289222319F0CF911A
:1048F0000C94881CCF9108956F927F928F929F9213
:10490000AF92BF92CF92DF92EF92FF920F931F93DD
:10491000CF93DF93CDB7DEB729970FB6F894DEBFFC
:104920000FBECDBF8C01E62EF42E6901461708F4A8
:104930001AC1DC0152967C90529752961C922830F4
:10494000310508F010C1F901EC58FF4F0C94F12D1E
:10495000FC018389882351F0642F660F660F660F70
:10496000695FC8010E941220B82E14C0C088D18887
:10497000C114D10471F0642F660F660F660F695F72
:10498000C8010E941220482F60E070E08F2DF601D0
:104990000995B12CCE2CD12C8F2D0F2C000C990BFE
:1049A0008C159D05B4F040E050E06F2DC8010E94C9
:1049B000821AAA24AA94AF0C47E06A2DC8010E946B
:1049C0003618282F40E06F2DC8010E941B18FA2CC2
:1049D000E3CFD8011E96ED91FC911F97309749F0D7
:1049E00053968C91811105C060E070E08E2D099581
:1049F000B82EB60143E0660F771F4A95E1F74B2DBD
:104A00004CC0FC018389882341F0660F660F660F56
:104A1000C8010E941220D82E12C0C088D188C114AB
:104A2000D10461F0660F660F660FC8010E94122064
:104A3000482F61E070E08E2DF6010995D12C41E000
:104A400050E06E2DC8010E94821ACC24C394CE0C73
:104A500040E06C2DC8010E943618282F47E06E2DCB
:104A6000C8010E941B18EC2CFC1448F7D8011E96B4
:104A7000ED91FC911F97309749F053968C918111DD
:104A800005C061E070E08F2D0995D82EB8E0FB9E3F
:104A9000B0011124695F7F4F4D2DC8010E94C820CD
:104AA00059C0C42ED12CA62EB12CC6018A199B093F
:104AB00097FD019695958795812C39E0932E282DA9
:104AC00030E028173907A4F5F80162857385F901EC
:104AD000EA0DFB1D9E9EA0019F9E500D1124460FC6
:104AE000571FFA01DE011196692C01900D926A940C
:104AF000E1F7F601E21BF30B9E9E90019F9E300DA5
:104B00001124FB01E20FF31FDA01492D01900D92F0
:104B10004A95E1F7F801A285B385A20FB31FFE0104
:104B20003196292D01900D922A95E1F78394C7CFF4
:104B300044E050E06E2DC8010E94821AE394FE14F6
:104B4000B8F708C0A6016E2DC8010E94821AE3942E
:104B5000FE14C0F7D80152967C92772031F0C8013C
:104B60000E94881C02C080E001C081E029960FB637
:104B7000F894DEBF0FBECDBFDF91CF911F910F9193
:104B8000FF90EF90DF90CF90BF90AF909F908F906D
:104B90007F906F9008951F93CF93DF93DC0156961B
:104BA0001C92569788E057968C93579758961C926C
:104BB000589759961C9259978FEF5A968C935A97FB
:104BC0005C961C921E925B9754968D919C91559782
:104BD000009709F44AC0FC0124912634F9F4319677
:104BE000E491E130A9F4FC013296E4915996EC93FA
:104BF0005997FC013396E4915A96EC935A97FC012D
:104C00003496E4915796EC93579725E030E002C034
:104C100022E030E05C963C932E935B975B964D913F
:104C20005C915C9759962C91599730E05A966C910B
:104C30005A9770E010E06217730770F0FC01E40F00
:104C4000F51FE4911E1708F41E2FF0E031964E0F69
:104C50005F1F2F5F3F4FEFCFED01612F70E080E0CE
:104C600090E04AE00E949223188FDF91CF911F912C
:104C700008958F929F92AF92BF92CF92DF92EF9260
:104C8000FF920F931F93CF93DF93EC01162F042F06
:104C900089E0689F40011124AA84BB84A80CB91C38
:104CA0008C81C42ED12C882331F087E090E07C01E8
:104CB000EC18FD0801C076018B81882329F0622F52
:104CC000CE010E94491801C0822FF501EE0DFF1D93
:104CD0008083EA85FB85E80DF91D40858C8188235A
:104CE00081F027E030E02C193D0981E090E0A0E060
:104CF000B0E004C0880F991FAA1FBB1F2A95D2F7E6
:104D00000BC081E090E0A0E0B0E004C0880F991FE4
:104D1000AA1FBB1F0A95D2F7842B80878A89882314
:104D200021F0612FCE010E94471981E0DF91CF91E0
:104D30001F910F91FF90EF90DF90CF90BF90AF90B9
:104D40009F908F9008954F925F926F927F929F9263
:104D5000AF92BF92CF92DF92EF92FF920F931F9389
:104D6000CF93DF93DC0189E0689F8001112487E005
:104D700090E0841B9109C12CD12C7601C3942601AB
:104D8000370104C0440C551C661C771C8A95D2F769
:104D9000942C04C0CC0CDD1CEE1CFF1C4A95D2F7F1
:104DA0007C2D342D30959C2D9095C7E0D0E047E0C8
:104DB000A42EB12CE22EF12CF501EC1BFD0B6701AA
:104DC0000E2E02C0D594C7940A94E2F71A964D911C
:104DD0005C911B9714962C91149713968C911397B2
:104DE000C0FE16C0222311F06E0101C06F01400FFA
:104DF000511F2111FE01E40FF51F2081882311F0BE
:104E0000892D01C0872FFA01EC0DFD1D822B15C0E5
:104E1000222311F06E0101C06F01400F511F2111BB
:104E2000FE01E40FF51F2081882311F0832F01C0BC
:104E3000892FFA01EC0DFD1D82238083219708F054
:104E4000BBCF1A968D919C911B97FC01E00FF11F2F
:104E50008FEF808752968C915297882319F0CD015D
:104E60000E94471981E0DF91CF911F910F91FF9030
:104E7000EF90DF90CF90BF90AF909F907F906F901A
:104E80005F904F900895FC01A38129E0629FB001DB
:104E9000112422853385848150E0620F731FAA2379
:104EA00079F0882331F087E090E09C01241B350BDA
:104EB000A901DB01A40FB51F6C91CF010C94491817
:104EC000882331F087E090E09C01241B350BA90179
:104ED000FB01E40FF51F808108950F931F93CF937B
:104EE000DF9382E391E090934E0280934D028EE631
:104EF00092E0892B29F480915902882371F11AC01C
:104F0000C4E3D3E08FA598A9009739F0FC01038191
:104F100014810E948F2EC801F7CF8AA99BA9009700
:104F200011F00E948F2EC254D109F2E0CC32DF077B
:104F300049F7E1CF9FB7F89480919301882319F046
:104F400081508093930180919301811105C08CB5AC
:104F50008F7B8CBD109291019FBF80915B029091DD
:104F60005C020E948F2E80915D0290915E02DF9123
:104F7000CF911F910F910C948F2ECF93DF9300D080
:104F800000D0CDB7DEB7789484B5826084BD84B597
:104F9000816084BD85B5826085BD85B5816085BD34
:104FA00080916E00816080936E00109281008091EC
:104FB0008100826080938100809181008160809374
:104FC0008100809180008160809380008091B10099
:104FD00084608093B1008091B00081608093B000C4
:104FE00080917A00846080937A0080917A00826058
:104FF00080937A0080917A00816080937A0080911A
:105000007A00806880937A001092C100E091C0011C
:10501000F091C10182E08083E091BC01F091BD017B
:105020001082E091BE01F091BF018FEC808310925D
:10503000C801E091C401F091C50186E08083E09150
:10504000C201F091C301808180618083E091C2013F
:10505000F091C301808188608083E091C201F0916A
:10506000C301808180688083E091C201F091C30117
:1050700080818F7D808362E083E00E94971D62E0E3
:1050800082E00E94971D61E084E00E94971D80915C
:105090005902882309F436C02FB72983F8948091E8
:1050A0009301811127C0E0E2F1E08491E4E3F1E0B3
:1050B0009491E82FF0E0EE0FFF1FE850FF4FA5910D
:1050C000B491EC91E92321F461E08AE00E94861812
:1050D00061E08AE00E94971D8CB580618CBD8CB523
:1050E00080648CBD61E08DE00E94971D61E08BE0E3
:1050F0000E94971D809193018F5F80939301398166
:105100003FBF0AC061E0809156020E94971D61E096
:10511000809157020E94971D61E0809158020E9481
:10512000861861E0809158020E94971D10926002DB
:1051300010925F02109262021092610240915A0234
:10514000498359E0459FC00111240E94F72D909397
:105150005C0280935B022981822F90E0880F991F67
:105160000E94F72D90935E0280935D02809165020C
:10517000909166028255914051F082E591E09093C2
:1051800066028093650281E592E00E94CB2540E0B3
:1051900050E063E070E081E592E00E94DD0347E0CB
:1051A00050E061E070E081E592E00E94DD0347E0BD
:1051B00050E062E070E081E592E00E94DD0340E0B3
:1051C00050E064E070E081E592E00E94DD034091F0
:1051D0005A02415060E081E592E00E94542440E090
:1051E00050E060E070E081E592E00E94DD0382E043
:1051F00080937703198201E512E08091770349815A
:10520000481788F452E4549FC0011124FC01E35B69
:10521000FD4F12A301A382599D4F0E9461238981F2
:105220008F5F8983EACF813051F4909176038FEFBD
:10523000890F891720F410928F028093900280E0EA
:1052400092E42AE030E040917703841748F4989F75
:10525000F0011124E259FD4F308727838F5FF3CF90
:1052600080917502909176024AE0489F9001499F93
:10527000300D112480E092E440917703841718F0F8
:10528000198212E419C0989FF0011124E259FD4FD0
:10529000328721878F5FF0CF2981129FC0011124AF
:1052A000FC01EE55FD4F31E0308382599D4F0E9445
:1052B000612349814F5F49838091770399819817D2
:1052C00058F380E092E408C0989FF0011124E2595D
:1052D000FD4F158E148E8F5F209177038217A0F3F8
:1052E00080E022E408C0289FF0011124E259FD4F1C
:1052F000158A148A8F5F909177038917A0F3EDE4E4
:10530000F2E080E021E030E0891741F030AF27ABD8
:1053100012AE11AE8F5FEE5BFF4FF6CF1092990287
:105320001092980280E092E420917703821710F0A7
:10533000198208C0989FF0011124E259FD4F138E85
:105340008F5FF2CF809177035981581768F422E478
:10535000259FC001112467E082599D4F0E94CC0314
:1053600039813F5F3983EECF80916502909166026B
:10537000892B51F082E591E090936602809365025B
:1053800081E592E00E94CB2580E022E490917703B2
:105390008917D0F080917603823008F47BC099237E
:1053A00009F478C010928F0221E02093900284309B
:1053B00008F470C0923008F46DC082E08093D1028E
:1053C00083E08093D20266C0289FF0011124E25945
:1053D000FD4F138E8F5FDACF4AE00E94922385E45F
:1053E00091E00E94802383E00E9433105C0182E000
:1053F0000E9433109C838B8342E0A416B10489F48D
:105400008091A9019091AA0101969093AA0180939D
:10541000A9010E94D31D2B013C0161E084E00E94A0
:1054200086180E94D31DDC01CB0184199509A609B9
:10543000B7098D329140A105B10520F060E084E00C
:105440000E9486188091A9019091AA0163E070E002
:105450000E94DD2D9093AA018093A90181309105CE
:1054600009F44AC08230910509F4D8C0892BF9F0BB
:1054700068E071E08DE091E00E942D2F892B11F4FE
:105480000E9486106DE071E088E091E00E94362F66
:105490000E94CA106091A9017091AA01072E000C08
:1054A000880B990B97FF98CF0E94332498CF88E4FC
:1054B00091E00E942524AA94AB2829F480919501BB
:1054C0008F5F809395012B813C812130310529F438
:1054D000809194018F5F80939401C0909501D12CAD
:1054E000E0909401F12C08E120E63AEE40E050E033
:1054F00060E070E0CB018FC085E591E00E9425243B
:1055000032E0A316B10471F51F921F921F921F92F1
:105510004CE351E05F934F932DE031E03F932F93A5
:105520000E944C2F0FB6F894DEBF0FBECDBF2B816B
:105530003C812130310509F059C080910601882352
:10554000B9F080919A0190919B01A0919C01B0913A
:105550009D018093960190939701A0939801B09339
:1055600099011BC04B815C814130510549F5E5CF64
:1055700081E0809306010E94D31D60939A0170938D
:105580009B0180939C0190939D0160939601709381
:105590009701809398019093990160919601709181
:1055A00097018091980190919901C12CD12CE12C07
:1055B000F12C04E628EE33E040E050E00E94E60FD4
:1055C000AA94AB2899F49091060181E089278093F1
:1055D0000601882309F428C10E94D31D60939A0113
:1055E00070939B0180939C0190939D018091060193
:1055F00081113ECF60919601709197018091980141
:1056000090919901C12CD12CE12CF12C04E628EECB
:1056100033E040E050E00E94E60F2ACF85E691E0BB
:105620000E94252481E791E00E9425246091A80131
:1056300070E080E090E04AE00E9492238091A70110
:10564000811117C0809107011F928F938091A6014D
:105650001F928F938CE391E09F938F934DE051E0E5
:105660005F934F930E944C2F0FB6F894DEBF0FBE8E
:10567000CDBF8091A701882309F4BEC080900701A7
:10568000912C2091A601022F10E0C090A201D09091
:10569000A301E090A401F090A5018091A8018111DF
:1056A00006C02090A0013090A10130E00FC0109200
:1056B000A1011092A00110929F0110929E01212C35
:1056C000312C09C05CE3850E911C3F5F832F90E075
:1056D00082159305BCF340919E0150919F015A831E
:1056E0004983822F801B90E049815A818417950756
:1056F0001CF401501109F5CF0E94D31D6C197D09CE
:105700008E099F0928EE33E040E050E00E94982D7A
:10571000821A930A97FE0EC089819A81019690930E
:105720009F0180939E015FEF251A350A3092A101F7
:105730002092A0019F928F921F930F938CE391E090
:105740009F938F934DE051E05F934F930E944C2FB6
:105750006DE071E088E791E00E942D2F0FB6F8947C
:10576000DEBF0FBECDBF892BB1F41092A101109204
:10577000A00110929F0110929E010E94861083E06A
:105780000E943310019729F061E084E00E9486189E
:10579000F6CF1092A7011092A801AA94AB2819F590
:1057A0008091A70181110EC081E08093A7010E9422
:1057B000D31D6093A2017093A3018093A4019093E1
:1057C000A50156CE1092A70181E08093A8014B81DC
:1057D0005C814130510509F04CC08091A6018F5F7A
:1057E0008093A60145CE8B819C81019769F48091BD
:1057F000A70181113DCEF1CFAA94AB28A9F24B812C
:105800005C814130510549F32B813C8122303105C7
:1058100009F02ECE8091A70181112ACE8091070137
:105820008F5F8093070124CE0E94D31D00919601C3
:10583000109197012091980130919901C0909A019F
:10584000D0909B01E0909C01F0909D010C191D09E6
:105850002E093F09DC01CB01800F911FA21FB31F4E
:105860008093960190939701A0939801B09399012A
:10587000BDCE8B819C81029789F2FACD1092B30143
:105880001092B20188EE93E0A0E0B0E08093B40102
:105890009093B501A093B601B093B70180E291E077
:1058A0009093B1018093B00185EC90E09093BD019D
:1058B0008093BC0184EC90E09093BF018093BE0183
:1058C00080EC90E09093C1018093C00181EC90E066
:1058D0009093C3018093C20182EC90E09093C50144
:1058E0008093C40186EC90E09093C7018093C60139
:1058F0001092C9011092CA011092CB011092CC01F2
:105900001092500210924F0282E391E090934E0267
:1059100080934D0210925602109257028AE08093B3
:10592000580281E08093590294E090935A02809348
:10593000630223E030E030935202209351028093BF
:1059400053021092540210925502E9E7F2E026E069
:1059500030E031832083128A118A138A15A214A29F
:1059600016A210A617A281A716A615A610AA17A6FA
:1059700012AA11AAEE5BFF4F93E0E138F90749F74D
:1059800084E08093760308958F929F92AF92BF92A6
:10599000CF92DF92EF92FF92CF93DF93EC01688179
:1059A00079818A819B81611571058105910521F4B9
:1059B00064E279ED8BE597E02DE133EF41E050E0D3
:1059C0000E94662D49015A019B01AC01A7EAB1E48E
:1059D0000E94852D6B017C01ACEEB4EFA501940112
:1059E0000E94932DDC01CB018C0D9D1DAE1DBF1DB2
:1059F000B7FF03C00197A109B04888839983AA83A0
:105A0000BB83BC01CD019F77DF91CF91FF90EF90D9
:105A1000DF90CF90BF90AF909F908F9008958F921E
:105A20009F92AF92BF92CF92DF92EF92FF926091DE
:105A3000120170911301809114019091150161156B
:105A400071058105910521F464E279ED8BE597E01C
:105A50002DE133EF41E050E00E94662D49015A01EB
:105A60009B01AC01A7EAB1E40E94852D6B017C018A
:105A7000ACEEB4EFA50194010E94932DDC01CB01A3
:105A80008C0D9D1DAE1DBF1DB7FF03C00197A10961
:105A9000B0488093120190931301A0931401B09326
:105AA0001501BC01CD019F77FF90EF90DF90CF9063
:105AB000BF90AF909F908F90089560931201709364
:105AC000130180931401909315010895052E97FBFF
:105AD0001EF400940E947D2D57FD07D00E94982D42
