:100000000C9486030C94AE030C94AE030C94AE03D4
:100010000C94AE030C94AE030C94AE030C94AE039C
:100020000C94AE030C94AE030C94AE030C94AE038C
:100030000C94AE030C94AE030C94AE030C94AE037C
:100040000C94B2170C94AE030C9422180C94FC1769
:100050000C94AE030C94AE030C94AE030C94AE035C
:100060000C94AE030C94AE03A605B705BA05C10502
:10007000C405840CCB05AA07C1086D0A7009560B8C
:10008000EF0CF20CFB0CF90C040D020D0B0D0E0D18
:10009000150D180D1F0D220D2A0D2D0D310D340DCE
:1000A000B205B705BA05C105C405DA0C360738082C
:1000B0001F096D0A7009560BEF0CF20CFB0CF90CC2
:1000C000040D020D0B0D0E0D150D180D1F0D220D3B
:1000D0002A0D2D0D310D340D071B3C1B761BBD1B4E
:1000E000081C501C971CB81C1C24752416251625AA
:1000F000C524162516251625460100FF0800053ED5
:100100005B4F5B3E053E6B4F6B3E051C3E7C3E1CD1
:1001100005183C7E3C18051C577D571C051C5E7F4E
:100120005E1C0400183C1805FFE7C3E7FF04001835
:10013000241805FFE7DBE7FF0530483A060E0526E1
:100140002979292605407F05050705407F05253FBC
:10015000055A3CE73C5A057F3E1C1C0805081C1C40
:100160003E7F0514227F2214055F5F005F5F050656
:10017000097F017F046689956A056060606060059B
:1001800094A2FFA2940508047E04080510207E2096
:10019000100508082A1C0805081C2A0808051E1056
:1001A000101010050C1E0C1E0C0530383E383005A2
:1001B000060E3E0E06020000015F0307000705144D
:1001C0007F147F1405242A7F2A12052313086462F2
:1001D00005364956205003080703031C22410341FA
:1001E000221C052A1C7F1C2A0508083E08080380DB
:1001F000703005080808080802606005201008042F
:1002000002053E5149453E03427F40057249494936
:1002100046052141494D33051814127F1005274525
:10022000454539053C4A4949310541211109070530
:10023000364949493605464949291E011402806854
:10024000040814224105141414141404412214083F
:10025000050201590906053E415D594E057C121102
:10026000127C057F49494936053E41414122057FBF
:100270004141413E057F49494941057F090909013D
:10028000053E41415173057F0808087F03417F41C6
:10029000052040413F01057F08142241057F404071
:1002A0004040057F021C027F057F0408107F053E49
:1002B0004141413E057F09090906053E4151215E44
:1002C000057F091929460526494949320503017F59
:1002D0000103053F4040403F051F2040201F053FD0
:1002E0004038403F05631408146305030478040391
:1002F000056159494D43037F41410502040810201F
:100300000341417F05040201020405404040404092
:1003100003030708052054547840057F28444438D7
:1003200005384444442805384444287F053854544B
:10033000541804087E09020518A4A49C78057F08B7
:1003400004047803447D40044080807A047F1028B0
:100350004403417F40057C04780478057C0804044C
:100360007805384444443805FC182424180518241A
:100370002418FC057C08040408054854545424043B
:10038000043F4424053C4040207C051C2040201CA8
:10039000053C4030403C054428102844054C9090D2
:1003A000907C054464544C44030836410177034172
:1003B0003608050201020402053C2623263C051EE0
:1003C000A1A161120538424022780538545455598C
:1003D000052155557941052154547841052155543D
:1003E000784005205455794005183CA4E42405398B
:1003F000555555590538555455580539555454587F
:1004000003457C410402457D420401457C4005F0E2
:10041000292429F005F0282528F0047C54554507A7
:100420002054547C545408067C0A097F49490532FB
:100430004949493205304A484A3005324A4848302D
:10044000053A4141217A053A42402078049DA0A016
:100450007D053845444538053C4140413C053C2438
:10046000FF242405487E494366052B2FFC2F2B05CE
:10047000FF0929F62005C0887E0903052054547918
:100480004103447D41053048484A32053840402206
:100490007A047A0A0A72057D0D19317D052629290B
:1004A0002F280526292929260530484D40200538C2
:1004B00008080808050808080838052F10C8ACBA4D
:1004C000052F102834FA017B0508142A142205226E
:1004D000142A140805AA005500AA05AA55AA55AA67
:1004E0000500000000FF0510101010FF0514141483
:1004F00014FF051010FF00FF051010F010F0051498
:10050000141414FC051414F700FF050000FF00FF8D
:10051000051414F404FC05141417101F0510101F03
:10052000101F05141414141F0510101010F00500EE
:1005300000001F10051010101F1005101010F010F3
:1005400005000000FF10051010101010051010100D
:10055000FF1005000000FF14050000FF00FF05006C
:10056000001F1017050000FC04F4051414171017E1
:10057000051414F404F4050000FF00F70514141426
:100580001414051414F700F70514141417140510A7
:10059000101F101F05141414F414051010F010F09F
:1005A0000500001F101F050000001F1405000000BB
:1005B000FC14050000F010F0051010FF10FF0514EA
:1005C0001414FF1405101010101F05000000F01087
:1005D00005FFFFFFFFFF05F0F0F0F0F003FFFFFF66
:1005E00005000000FFFF050F0F0F0F0F05384444F3
:1005F0003844057C2A2A3E14057E020206060502BE
:100600007E027E02056355494163053844443C043B
:1006100005407E201E200506027E02020599A5E700
:10062000A599051C2A492A1C054C7201724C0530FB
:100630004A4D4D3005304878483005BC625A463D39
:10064000043E494949057E0101017E052A2A2A2ADC
:100650002A0544445F44440540514A44400540440F
:100660004A5140050000FF010303E080FF05080830
:100670006B6B0805361236243605060F090F060483
:10068000000018180400001010053040FF0101059B
:10069000001F01011E0500191D171205003C3C3CFE
:1006A0003C05FF818181FF05FFFFFFFFFF00000088
:1006B00000240027002A0000000000250028002B4D
:1006C00000000000002300260029000404040404A4
:1006D00004040402020202020203030303030301EF
:1006E00002040810204080010204081020010204C6
:1006F00008102000000008000201000003040700A9
:100700000000000000000000AC2AE12611241FBEFA
:10071000CFEFD8E0DEBFCDBF11E0A0E0B1E0E2E670
:10072000F1E602C005900D92A436B107D9F723E097
:10073000A4E6B1E001C01D92A335B207E1F713E0D2
:10074000C5E8D3E004C02197FE010E945F2CC438A5
:10075000D107C9F70E9431270C94A4300C940000F3
:10076000CF93DF9300D0CDB7DEB769831A82DC0167
:10077000ED91FC910084F185E02DBE016F5F7F4F0C
:10078000099581E090E00F900F90DF91CF9108954F
:10079000089580E090E008950F931F93FC01678F08
:1007A000062F10E022E030E042A161A1808191811A
:1007B0000E94661D1F910F9108950F931F939B0137
:1007C0008A01FC014185415060E00E94661D1F9135
:1007D0000F9108952F923F924F925F926F927F9266
:1007E0008F929F92AF92BF92CF92DF92EF92FF9241
:1007F0000F931F93CF93DF93CDB7DEB760970FB6FC
:10080000F894DEBF0FBECDBF3C019C012C5F3F4F73
:100810003C872B8740E050E06AE070E0C9010E940D
:10082000DD031F821886B301665D7E4F7E876D876C
:1008300082E4382EAD85BE858C91BF81B81710F04B
:100840000C94C40F4B2E512CF3013B9EE00DF11D77
:100850001124FA83E983EF5BFF4F1082A981BA81EB
:100860009C968D919C919D978630910509F446C088
:10087000059731F10E94A617349CF001359CF00DCC
:100880001124FA83E9838F01060D171DD801949670
:10089000CD90DD90ED90FC909797AB01BC014C1989
:1008A0005D096E097F0998968D919C919997A0E0BA
:1008B000B0E0481759076A077B0708F456C018C00C
:1008C0000E94A617E981FA8104A115A126A137A1EA
:1008D000AB01BC01401B510B620B730B82A593A5AE
:1008E000A0E0B0E0481759076A077B07F0F1C2CFD4
:1008F000D80193968C91811138C008C081E0988509
:10090000982B9887AF81AF5FAF8394CF0E94A617D3
:10091000F80164A375A386A397A381E0EF5BFF4F63
:1009200080833A96C080D180C114D10489F0E981D6
:10093000FA81B196E60DF71DFA87E987D8019C96F2
:100940008D919C919D97009791F0069709F0DCC0DE
:10095000349CF001359CF00D1124E60DF71D81E06B
:1009600024A535A52630310551F280E0C8CFF80125
:10097000E35BFF4FD182C0825301EF81B2E4EB9F72
:10098000A00CB11C1124F2E4AF0EB11CD5018C9166
:10099000F801ED5BFF4F8080B8E08B9E9001112441
:1009A000295F3F4F4901E8E08E9F8018910811248C
:1009B000FFEF8F1A9F0AE12CF12C98012D5A3F4F1F
:1009C0003A832983B8016E5A7F4F7E836D830B5A19
:1009D0001F4FD6016D916D016623C9F0E981FA813F
:1009E00020813181AD81BE814C9189859A850E949B
:1009F0009E2090E0E80EF91E892B59F3F6018081C4
:100A0000882339F3D8018C91E80EF11CE2CF349C95
:100A1000F001359CF00D1124E60DF71DF7A6E6A6B2
:100A200085A996A981309105B9F118F00297C9F00E
:100A30005FC0DF01AD5BBF4F8C9190E0019603E09A
:100A4000880F991F0A95E1F79C012150310931ABBC
:100A500020AB8E149F0470F18E199F0993AB82AB6B
:100A600047C0D5018C91B8E08B9FC001112493AB96
:100A700082AB8E149F0460F4DF01AD5BBF4F8C919D
:100A800028E0829FC0011124079691AB80AB1AC069
:100A90000197E80EF91E2AC08E149F04A8F4DF0106
:100AA000AD5BBF4F8C9138E0839FC0011124079646
:100AB00091AB80ABD5018C91B8E08B9FC001112424
:100AC00093AB82AB80E015C0D5018C918E189F0846
:100AD00096948794B8E08B9F800C911C112493AA64
:100AE00082AA21E0E21AF108E80CF91CF1AAE0AAB6
:100AF00081E0349CF001359CF00D1124E60DF71DCA
:100B000091E0892784AB93AF349CF001359CF00DC4
:100B10001124E60DF71D23AC222061F007A8F0ADEB
:100B2000E02D3197EC31F10508F0A5C7EC5CFF4FE3
:100B30000C945F2C01ACF2ADE02D3197EC31F10556
:100B400008F099C7E05BFF4F0C945F2C89859A856C
:100B50000E943911349CF001359CF00D1124E60DF2
:100B6000F71D83C289859A850E94E91E84C7422D9C
:100B700061E002C0422D60E089859A850E945B1287
:100B800085C7422D61E002C0422D60E089859A85CB
:100B90000E944F157BC7349C7001359CF00C1124CA
:100BA00083010E0D1F1D68019CE2C90ED11CD801E6
:100BB0009C968D919C919D978230910561F458018E
:100BC000B6E5AB0EB11C015B1F4FE6E5EE0EF11C66
:100BD000E60CF71C4EC08230910520F0039709F413
:100BE00064C041C1F6E5EF0EF11CB3016E0D7F1D2F
:100BF00089859A850E949F21882309F46EC389857F
:100C00009A850E94E91EF801E95AFF4F118210826D
:100C1000C2010196389EF001399EF00D1124E60DB7
:100C2000F71D8081F801EC5BFF4F28E0829FC00137
:100C3000112491838083D801D0968D919C91D19776
:100C400035969183808346C4B70189859A850E9431
:100C50005A21811105C0E5E0F0E0D601ED93FC9347
:100C6000D5018C9181110CC0F6018081918105978D
:100C700039F0D5011C92F80180818111ECCFE4CFCD
:100C8000349CF001359CF00D1124E60DF71D84A570
:100C900095A5059709F4FAC6DF01A95ABF4F1D9221
:100CA0001C9283E090E095A784A7349C9001359C2A
:100CB000300D1124260D371D3A832983690134E450
:100CC000C30ED11CD6016D917C91E981FA81E75B5D
:100CD000FF4F20813181E981FA81ED5AFF4F7F0179
:100CE00009811A81095A1F4F6217730761F5A9819B
:100CF000BA81DC968C91882359F00190F081E02D27
:100D0000D8018D919C91E80FF91F4081409509C051
:100D10000190F081E02DD8018D919C91E80FF91F91
:100D20004081349CF001359CF00D1124E60DF71D37
:100D3000FA83E98381A192A10E94981FE5E0F0E087
:100D4000A981BA81F7C50190F081E02DD8018D917C
:100D50009C91E80FF91F8081811104C0F601318355
:100D6000208331C0A981BA81DC964C91DC974195F2
:100D700091968D919C9192970E94981FF6016081A7
:100D800071816F5F7F4F71836083A981BA81DC9627
:100D90004C91F70120813181D8018D919C91F9010D
:100DA000E80FF91F442319F04081409501C04081AC
:100DB000349CF001359CF00D1124E60DF71D81A146
:100DC00092A10E94981F349CC001359C900D112463
:100DD000860D971DDC01AC5BBF4F2D913C911197A7
:100DE0008C01075B1F4FF8014081518124173507A3
:100DF00001F5B2016F5F7F4F369EA001379E500D07
:100E00001124460D571DFA014081F8E04F9FA001C3
:100E1000112411965C934E9353964D915C911197CA
:100E20004F5F5F4F4D935C9321503109D8012D9353
:100E30003C93349CF001359CF00D1124E60DF71D18
:100E40009F01295A3F4FAF014A5A5F4FDA018C91F7
:100E500090E0D9012D913C912817390709F016C669
:100E600082E090E011C625E030E0C0C1349CF00182
:100E7000359CF00D1124E60DF71D84A595A5813054
:100E8000910508F45FC08430910590F0059709F052
:100E900059C080A991A9DF01A75BBF4F11969C9310
:100EA0008E9315978D939C9383E090E095A784A7EC
:100EB000349CF001359CF00D1124E60DF71D81A046
:100EC00092A084AD882321F0AA24AA94B12C02C058
:100ED000A12CB12C349CB001359C700D1124660DF1
:100EE000771D7A8369837B0174E4E70EF11CC98066
:100EF000DA8089E4C80ED11CA981BA81D296BA835E
:100F0000A983F70100811181602FC4010E94E21EB4
:100F1000282F30E02A153B0509F0D3C5D6012D91C5
:100F20003C91E981FA8140815181241735070CF405
:100F3000C8C5C9010197D6018D939C93F7013183F0
:100F40002083DFCF349CF001359CF00D1124E60D99
:100F5000F71D2DC5349CF001359CF00D1124E60DD4
:100F6000F71D84A595A58430910560F4019768F478
:100F7000DF01AC5BBF4F1D921C9283E090E095A710
:100F800084A703C0059709F070C089859A850E94DF
:100F9000E91E89859A850E943911C2010196389E01
:100FA000F001399EF00D1124E60DF71D9080990C8B
:100FB000990C990C88248394349CB001359C700D55
:100FC0001124660D771D7E836D836D5B7F4F7A8361
:100FD00069830D811E810C5B1F4FAD80BE8071E265
:100FE000A70EB11C22242394A981BA818C9190E090
:100FF000019673E0880F991F7A95E1F7C92CD12CDF
:10100000C816D9061CF5F501E080F180692DC701ED
:101010000E94E21E482F50E0D8018D919C91E7E09C
:10102000F0E0E81BF90B882031F002C05595479598
:10103000EA95E2F704C001C0440FEA95EAF7B60169
:10104000C7010E94981F82249394CECFD8018D911E
:101050009C91119701968D939C93089709F016C562
:1010600025E030E0ED81FE81C2C065E070E0B4C4EF
:10107000349CF001359CF00D1124E60DF71D84A57C
:1010800095A58430910518F4019720F015C00597B7
:1010900009F08DC4349CF001359CF00D1124E60D4F
:1010A000F71DDF01AC5BBF4F81E090E08D939C9317
:1010B00083E090E095A784A7C2010196389EF001D5
:1010C000399EF00D1124E60DF71D9080990C990CB6
:1010D000990C88248394349CD001359CB00D112444
:1010E000A60DB71DBE83AD83AD5BBF4FBA83A98389
:1010F0000D811E810C5B1F4FAD80BE80B1E2AB0E37
:10110000B11C22242394E981FA81808190E0019628
:1011100063E0880F991F6A95E1F7C92CD12CC81696
:10112000D9060CF5D501ED90FC90692DC7010E9400
:10113000E21E482F50E0882041F0F801008002C0F4
:10114000440F551F0A94E2F707C0D8010C9002C063
:10115000559547950A94E2F7B601C7010E94981F7A
:1011600082249394D0CFF80180819181019691835C
:101170008083089709F08AC4E6E0F0E0AD81BE8183
:10118000D9C3349C8001359C100D1124060D171D08
:10119000D8019C968D919C919D978430910580F407
:1011A0008230910538F5009771F0019709F03FC042
:1011B000F801EC5BFF4F60817181CB01019665C046
:1011C0000597C1F034C0F801EC5BFF4F118210822B
:1011D0003596A985BA855F968C915F9790E091834B
:1011E0008083CD010E94E91E21E030E0F80135A79F
:1011F00024A74CC4349CF001359CF00D1124E60D5D
:10120000F71D9F012C5B3F4FD9016D917C91CF0160
:10121000875B9F4FDC018D919C91861797070CF49B
:1012200070C3CB010196D9018D939C9351C0349C1E
:10123000F001359CF00D1124E60DF71D62C3349CBE
:101240008001359C100D1124060D171DD8019C96A8
:101250008D919C919D978430910518F4019718F019
:101260001FC00597D1F5E985FA85678D862F90E037
:10127000349C8001359C100D1124060D171DF801BA
:10128000E75BFF4F918380833597918380838985C6
:101290009A850E94CC0389859A850E943911F2C1F2
:1012A000F801EC5BFF4F6081718177FF0DC03596CF
:1012B000608189859A850E94CC0389859A850E94E0
:1012C000E91E26E030E092CFCB0101979183808325
:1012D00089859A850E94CC03D9C3E6E0F0E029C352
:1012E000349CF001359CF00D1124E60DF71D84A50A
:1012F00095A58230910509F482C028F4009751F039
:101300000197C1F0B3C28330910509F4C3C10597B9
:1013100009F0ACC2349CF001359CF00D1124E60DAF
:10132000F71DDF01AC5BBF4F1D921C9221E030E046
:1013300035A724A7349C8001359C100D1124060D7F
:10134000171D780134E4E30EF11CD7018D919C91B7
:10135000119701968D939C93C2010196389EF001DE
:10136000399EF00D1124E60DF71DB08128E0B29FE3
:10137000F0011124FE83ED83680198012D5B3F4F3E
:101380003A832983470158013CE3A30EB11C222470
:10139000239451E2C50ED11CA981BA818C9190E0B1
:1013A000019653E0880F991F5A95E1F7ED81FE8170
:1013B000E817F907D4F4D4012D913C91CF01837043
:1013C0009927821793075CF4F501408142254195E6
:1013D0006D817E81D6018D919C910E94981FED8137
:1013E000FE813196FE83ED83D7CFD7018D919C91FD
:1013F000049709F04BC382E090E0F80145C389856A
:101400009A850E94E91E222021F089859A850E94F2
:101410003911349C8001359C100D1124060D171DC7
:101420006801F4E4CF0ED11CD6018D919C911197E7
:1014300001978D939C93C2010196389EF001399ECD
:10144000F00D1124E60DF71DB08128E0B29FF001E8
:101450001124FE83ED83780198012D5B3F4F3A8381
:101460002983460158013CE3A30EB11C2224239496
:1014700051E2E50EF11CA981BA818C9190E00196B0
:1014800043E0880F991F4A95E1F7ED81FE81E81747
:10149000F907D4F4D4012D913C91CF0183709927A1
:1014A000821793075CF4F5014081422541956D81D7
:1014B0007E81D7018D919C910E94981FED81FE81C4
:1014C0003196FE83ED83D7CFD6018D919C91892BE8
:1014D00009F0DCC283E090E090CF349CF001359CB1
:1014E000F00D1124E60DF71D84A595A58230910518
:1014F00009F464C038F08330910509F4CBC0059736
:1015000009F0B4C1C2010196389EF001399EF00D78
:101510001124E60DF71D208188E0289FB0011124D9
:101520007A836983349C8001359C100D1124060D4B
:10153000171D580173E4A70EB11C68018CE3C80E97
:10154000D11CD80191967D01F501808190E0019632
:1015500033E0880F991F3A95E1F729813A812817DE
:1015600039074CF5D6019C906981992039F0F70133
:10157000808191810E94E21E809505C0D7018D91E6
:101580009C910E94E21EB981B0FD02C09AEA01C09E
:1015900095E5482F492B9110409569817A81F70193
:1015A000808191810E94981F29813A812F5F3F4F4E
:1015B0003A832983C9CF82E090E066C089859A8505
:1015C0000E94E91E222021F089859A850E94391106
:1015D000C2010196389EF001399EF00D1124E60DEE
:1015E000F71DB08128E0B29FF0011124FA83E9834E
:1015F000349C8001359C100D1124060D171D5801D7
:10160000F3E4AF0EB11C68012CE3C20ED11CB8018B
:101610006F5D7F4F7B01D5018C9190E0019623E0B7
:10162000880F991F2A95E1F7E981FA81E817F907F0
:101630004CF5D6019C906981992039F0F7018081A1
:1016400091810E94E21E809505C0D7018D919C91E9
:101650000E94E21EB981B0FD02C095E501C09AEA80
:10166000482F492B9110409569817A81F70180813B
:1016700091810E94981F29813A812F5F3F4F3A83C1
:101680002983C9CF83E090E0D8019D969C938E93E7
:101690009C97FCC189859A850E94E91E222009F445
:1016A000E7C089859A850E943911E5C0349CF00114
:1016B000359CF00D1124E60DF71D84A595A5843009
:1016C000910518F4019720F015C0059709F0CEC0D8
:1016D000E4E6F1E01192B1E0EF36FB07D9F7349C74
:1016E000F001359CF00D1124E60DF71D83E090E02C
:1016F00095A784A7349C8001359C100D1124060DFC
:10170000171DF801EC5BFF4F118210828F010E94C0
:101710007D2B4B015C010E947D2B69837A838B8337
:101720009C83F801C080D180FFEFCF1ADF0AD80177
:10173000CD92DC92C501B4012BE030E040E050E0F6
:101740000E94D42B70E0FB01EC59FE4F7F01B0806A
:1017500069817A818B819C8128E030E040E050E013
:101760000E94D42B8B2D90E0062E02C09595879574
:101770000A94E2F780FD30C081E090E001C0880F5C
:101780006A95EAF7B82AD701BC9289859A850E94A2
:101790003911349C6001359CD00C1124C60CD71C27
:1017A000F601EC5BFF4FFA83E98311821082C201DC
:1017B0000196389EF001399EF00D1124E60DF71DBB
:1017C0009080990C990C990C5601F3E4AF0EB11C62
:1017D00021E2C20ED11C27C038E8C31633E1D3067C
:1017E0000CF495CFC9CFF60100811181692DC80194
:1017F0000E94E21EA981BA81ED91FC91EC59FE4F45
:10180000222021F140814823B701C8010E94981F7E
:10181000E981FA818081918101968B309105D1F027
:10182000918380839394D5018C9190E00196B3E0ED
:10183000880F991FBA95E1F7E92CF12CE816F90603
:1018400094F2E4E6F1E02CE631E00CC09081492FFF
:101850004095D9CFA981BA811D921C92E3CF2E1752
:101860003F0721F081918F3FD1F310C1211003C0B8
:1018700086E090E002C085E090E0349CF001359C69
:10188000F00D1124E60DF71DFFC0E981FA81EA5B36
:10189000FF4F80818F5F8083082E000C990B298178
:1018A0003A812F593F4FD9012C9130E0821793078D
:1018B0000CF01082C2010196389EF001399EF00DA5
:1018C0001124E60DF71D8081349CF001359CF00D4C
:1018D0001124E60DF71DAF014C5B5F4FB8E08B9F05
:1018E000C0011124BF01615A7F4FDB012C91821B83
:1018F00091090197DA012D913C912817390709F0D8
:10190000C5C025E030E073CC349C8001359C100DBF
:101910001124060D171DD8019C968D919C919D97C1
:101920008430910508F431C1059709F470C1E5E0F0
:10193000F0E0D8019D96FC93EE939C97A7C0E981B7
:10194000FA81EA5BFF4F80818F5F8083082E000C55
:10195000990B29813A812E593F4FD9012C9130E0C2
:10196000821793070CF01082349CF001359CF00D27
:101970001124E60DF71DAF014C5B5F4F9F012D5BFE
:101980003F4FD9018C91B8E08B9FC001112407967D
:10199000BF01605A7F4FDB012C91820F911D019690
:1019A000DA012D913C912817390709F06FC026E024
:1019B00030E01DCC349CF001359CF00D1124E60D77
:1019C000F71D84A595A58430910508F4DAC1059723
:1019D00009F4DAC166E070E075A764A757C0422D2C
:1019E00060E002C0422D61E089859A850E949911CC
:1019F0004DC041E001C040E0622D89859A850E947A
:101A00009C1344C041E001C040E0622D89859A8565
:101A10000E94D8123BC0422D60E002C0422D61E01E
:101A200089859A850E94381431C0422D60E002C039
:101A3000422D61E089859A850E94A21F27C0222D30
:101A400041E002C0222D40E061E089859A850E9434
:101A5000041F1CC0222D41E002C0222D40E060E0A6
:101A6000F4CF422D61E002C0422D60E089859A8565
:101A70000E9431220BC0349CF001359CF00D1124E2
:101A8000E60DF71D86E090E095A784A7349CF00151
:101A9000359CF00D1124E60DF71D83AD882339F038
:101AA00081E024A535A52530310509F480E0349C7A
:101AB000F001359CF00D1124E60DF71D83AF0C9459
:101AC000A804349CF001359CF00D1124E60DF71D9F
:101AD000DF01A75BBF4F2D913C912F5F3F4F42A984
:101AE00053A9241735070CF462CFED5BFF4F20811B
:101AF00058E0259F90011124295F3F4F02171307DB
:101B00003CF4B8016F5F7F4F482FC4010E94981FBB
:101B1000349C8001359C100D1124060D171DD80131
:101B2000DC964C91DC974195F801EC5BFF4FFA8312
:101B3000E9836081718191968D919C9192970E9429
:101B4000981FE981FA81208131812F5F3F4F3183D6
:101B50002083F801ED5BFF4F808190E00196A3E0C8
:101B6000880F991FAA95E1F72817390709F08ECF3A
:101B70003696808191819C012150310931832083E7
:101B8000A981BA818D939C9381CF019708F03FC0C2
:101B900089859A850E941122D801A95BBF4F8D913A
:101BA0009C911197F801E75BFF4F208131818217EB
:101BB000930724F42D933C9391838083349CF0010C
:101BC000359CF00D1124E60DF71DDF01A55ABF4F1E
:101BD0008D919C91892B09F4EACEDF01AA5BBF4F5E
:101BE0001C929F012C5B3F4FCF018D5B9F4FDC010F
:101BF0008C9190E00196A3E0880F991FAA95E1F7D8
:101C0000D9018D939C9383E090E095A784A7898563
:101C10009A850E943911349C6001359CD00C1124A6
:101C2000C3018C0D9D1DFC01EC5BFF4FF88BEF8712
:101C3000208131812150310931832083212C9C0165
:101C4000215A3F4F3A832983FE83ED83BC016D5BAC
:101C50007F4F7A87698792012F5F3F4F329E400105
:101C6000339E900C1124860C971C5C017CE3A70E1C
:101C7000B11C8C010A5B1F4FDC01A55ABF4F7D01CF
:101C80006C01B1E2CB0ED11CE981FA8140812416AE
:101C900008F047C0822D90E0AD81BE816D917C91AE
:101CA000680F791FE985FA85208130E02F5F3F4F6B
:101CB000E3E0220F331FEA95E1F7621773077CF523
:101CC000D4012C91B8E02B9F900111246217730767
:101CD00034F1F5012081222381F0D8012C912403D5
:101CE000F00111248E0F9F1FD701ED91FC91E80F99
:101CF000F91FE4914E2F40950DC0F8012081240377
:101D0000F00111248E0F9F1FD701ED91FC91E80F78
:101D1000F91F4491F601808191810E94981F2394BC
:101D2000B3CFAF85B8890D911C9101501109349C36
:101D3000F001359CF00D1124E60DF71DFA83E983BF
:101D40005F01F9E4AF0EB11CC980DA802CE3C20E4A
:101D5000D11CE980FA8031E2E30EF11CD5018D91AE
:101D60009C91081719070CF490CDF601408141951C
:101D7000B801D7018D919C910E94981F01501109C3
:101D8000EDCF019708F046C089859A850E941122FF
:101D9000349CF001359CF00D1124E60DF71DDF0198
:101DA000A95BBF4F8D919C911197E75BFF4F2081FD
:101DB00031818217930724F42D933C939183808380
:101DC000349CF001359CF00D1124E60DF71DDF0168
:101DD000A35ABF4F8D919C91892B09F4E8CDC20184
:101DE0000196389ED001399EB00D1124A60DB71D65
:101DF0008C91DF01AC5BBF4F38E0839FC0011124A1
:101E0000019711969C938E9312961C9283E090E01A
:101E100095A784A789859A850E943911349C600111
:101E2000359CD00C1124C3018C0D9D1DBC016C5B35
:101E30007F4F788B6F87DB012D913C9111972F5F3E
:101E40003F4F2D933C93212CFC01E05AFF4FFA8326
:101E5000E9837E836D839C012D5B3F4F3A87298701
:101E600092012F5F3F4F329E4001339E900C112410
:101E7000860C971C5C013CE3A30EB11C8C010A5B31
:101E80001F4F675E7F4F7B016C0171E2C70ED11C53
:101E9000A981BA814C91241608F046C0822D90E0A9
:101EA000ED81FE8160817181681B790BA985BA85FE
:101EB0002C9130E02F5F3F4F53E0220F331F5A9594
:101EC000E1F76217730774F5F4012081F8E02F9FA2
:101ED00090011124621773072CF1D5012C91F801A0
:101EE000222379F020812403F00111248E0F9F1FFB
:101EF000D701ED91FC91E80FF91FE4914E2F409529
:101F00000CC020812403F00111248E0F9F1FD701E4
:101F1000ED91FC91E80FF91F4491F60180819181C8
:101F20000E94981F2394B4CFAF85B8890D911C915E
:101F3000041B1109349CF001359CF00D1124E60DB1
:101F4000F71DFA83E9835F01F9E4AF0EB11CC98084
:101F5000DA802CE3C20ED11CE980FA8031E2E30E74
:101F6000F11CD5018D919C91081719070CF4E7CC51
:101F7000F60140814195B801D7018D919C910E9455
:101F8000981F01501109EDCF41E050E06AE070E088
:101F90008B859C850E94DD03888560960FB6F8943A
:101FA000DEBF0FBECDBFDF91CF911F910F91FF908C
:101FB000EF90DF90CF90BF90AF909F908F907F90E9
:101FC0006F905F904F903F902F900895CF92DF9247
:101FD000EF92FF92CF93DF93D82F0E94A6176B0149
:101FE0007C01C0E08D2F0E94FE1D892B79F40E9498
:101FF000A617DC01CB018C199D09AE09BF098D32F2
:102000009140A105B10570F3C1E0ECCFC11103C04F
:1020100081E090E002C082E090E0DF91CF91FF90FC
:10202000EF90DF90CF9008954F925F926F927F92E2
:102030008F929F92AF92BF92CF92DF92EF92FF92D8
:102040000F932B013C0149015A010E94A617641904
:10205000750986099709A50194010E94062CC601FD
:10206000820F931F6CE370E00E94372CE60EF71E80
:102070009F938F93602F70E0C7010E94372C9F932E
:102080008F938BE391E09F938F938CE091E09F93EC
:102090008F930E94BA2D8DB79EB708960FB6F8940D
:1020A0009EBF0FBE8DBF0F91FF90EF90DF90CF903E
:1020B000BF90AF909F908F907F906F905F904F9068
:1020C0000895FC01538D448D252F30E0842F90E03E
:1020D000821B930B541710F0CF9608950197089523
:1020E000FC01918D828D981761F0828DDF01A80F20
:1020F000B11D5D968C91928D9F5F9F73928F90E042
:1021000008958FEF9FEF0895FC01918D828D9817B0
:1021100031F0828DE80FF11D858D90E008958FEFED
:102120009FEF0895FC01918D228D892F90E0805CB6
:102130009F4F821B91098F739927089580E090E04B
:10214000892B29F00E94441781110C9400000895F6
:10215000FC01848DDF01A80FB11DA35ABF4F2C9144
:10216000848D90E001968F739927848FA689B78913
:102170002C93A089B1898C91837080648C93938D0A
:10218000848D981306C00288F389E02D80818F7DAD
:1021900080830895EF92FF920F931F93CF93DF9365
:1021A000EC0181E0888F9B8D8C8D981305C0E889A8
:1021B000F989808185FD26C0F62E0B8D10E00F5F1A
:1021C0001F4F0F731127E02E8C8DE8120CC00FB635
:1021D00007FCFACFE889F989808185FFF5CFCE0128
:1021E0000E94A810F1CF8B8DFE01E80FF11DE35A7C
:1021F000FF4FF0829FB7F8940B8FEA89FB898081AB
:1022000080620AC09FB7F894EE89FF896083E889ED
:10221000F98980818370806480839FBF81E090E032
:10222000DF91CF911F910F91FF90EF900895CF9381
:10223000DF93EC01888D8823C9F0EA89FB898081CE
:1022400085FD05C0A889B9898C9186FD0FC00FB6A0
:1022500007FCF5CF808185FFF2CFA889B9898C91E1
:1022600085FFEDCFCE010E94A810E7CFDF91CF917F
:102270000895CF92DF92EF92FF920F931F93CF9327
:10228000DF93EC010E94E91ECF84D8887E0185E3AC
:10229000E80EF11CB701CE010E949F211FAA1EAAC1
:1022A000860189899A8908171907D4F18DA9282FE1
:1022B00030E04EA95FA94217530711F081110AC0FF
:1022C0001DAA8EA5811104C0B701CE010E945A211A
:1022D0001FAA1EAA8DA9882321F34B8D8EA99FA921
:1022E0002AA93BA9442359F0AC014F5F5F4F5FAB74
:1022F0004EABF901E80FF91F4081409509C0AC01D0
:102300004F5F5F4F5FAB4EABF901E80FF91F4081A4
:10231000B801888199810E94981F01501109C1CF8D
:10232000DF91CF911F910F91FF90EF90DF90CF90B1
:102330000895FF920F931F93CF93DF93EC01F62E36
:102340008B859C85442309F457C08430910550F453
:10235000019758F4CE010E94112283E090E09C87FF
:102360008B8703C0059709F044C08B859C85059732
:1023700021F483E090E09C878B87CE010E94391185
:102380000BA11CA12DA188A599A5820F911D27FD48
:102390009A950817190769F04B8D4195B801888106
:1023A00099810E94981F8DA1080F111D87FD1A9514
:1023B000E9CFFF2069F06BA17CA10617170741F058
:1023C0004B8D81E048274195888199810E94981F13
:1023D0004BA15CA19DA1892F990F990B28A539A527
:1023E000280F391F4217530709F056C025E030E087
:1023F00051C085E090E057C08430910518F40197F2
:1024000020F00AC0059709F04CC0CE010E941122AD
:1024100083E090E09C878B87CE010E9439110EA14A
:102420001FA16BA17CA18DA1082E000C990B9B0113
:10243000280F391F0217130769F04B8D4195B8011A
:10244000888199810E94981F8DA1080F111D87FD19
:102450001A95E7CFFF2079F028A539A5820F931FA1
:102460006817790741F04B8D81E0482741958881B5
:1024700099810E94981F4BA15CA19DA1892F990F62
:10248000990B28A539A5280F391F4217530721F4A6
:1024900026E030E03C872B87840F951F9CA38BA3FD
:1024A00004C086E090E09C878B87DF91CF911F91DD
:1024B0000F91FF900895EF92FF920F931F93CF9388
:1024C000DF93EC01F62E8B859C854423F1F184305B
:1024D000910598F4019798F41CA21BA200E010E06B
:1024E0002BE030E04AA169A1888199810E94661D94
:1024F00083E090E09C878B8702C0059719F5CE0199
:102500000E94E91ECE010E9439111BA1FF2021F07B
:1025100093E0E92EF12C03C082E0E82EF12C173075
:1025200048F497014AA169A1888199810E94F0230A
:102530001F5FF5CF8BA19CA18730910551F525E058
:1025400030E025C085E090E02AC08430910518F481
:10255000019718F008C0059701F51CA21BA283E0A3
:1025600090E09C878B87F11003C023E030E002C02D
:1025700022E030E04AA169A1888199810E94F0237C
:102580008BA19CA18730910521F426E030E03C87A7
:102590002B8701969CA38BA304C086E090E09C87C8
:1025A0008B87DF91CF911F910F91FF90EF9008954E
:1025B000CF92DF92EF92FF921F93CF93DF93EC01C4
:1025C000D42E8B859C85662309F452C084309105F6
:1025D00060F4019768F4CE010E9411221CA21BA294
:1025E00083E090E09C878B8703C0059709F03DC08E
:1025F000CE010E9439112BA13CA128303105A9F14F
:10260000EEA0FFA081E090E001C0880F2A95EAF7D4
:10261000182FD11010952DA188A599A5820F911D75
:1026200027FD9A95E816F906E1F08B8DC880D980D0
:102630006E2D882339F0C6010E94E21E412F40957D
:10264000842B04C0C6010E94E21E8123482FB701DB
:10265000C6010E94981F8DA1E80EF11C87FDFA9417
:10266000DACF8BA19CA1019658C085E090E05AC0BA
:102670008430910518F4019720F00EC0059709F0F9
:102680004FC0CE010E94112287E090E09CA38BA353
:1026900083E090E09C878B87CE010E9439118BA14B
:1026A0009CA197FD06C011E001C0110F8A95EAF7C1
:1026B00001C010E0EEA0FFA0D11010952DA188A5BB
:1026C00099A5820F911D27FD9A95E816F906E1F06C
:1026D0008B8DC880D9806E2D882339F0C6010E9469
:1026E000E21E412F4095842B04C0C6010E94E21EC9
:1026F0008123482FB701C6010E94981F8DA1E80EC3
:10270000F11C87FDFA94DACF8BA19CA197FF04C03E
:1027100026E030E03C872B8701979CA38BA304C065
:1027200086E090E09C878B87DF91CF911F91FF908F
:10273000EF90DF90CF900895FF920F931F93CF9368
:10274000DF93EC01F42E8B859C85662309F442C04F
:102750008430910550F4019750F4CE010E9411226B
:1027600083E090E09C878B8702C0059781F5CE01BE
:102770000E9439112BA13CA188A599A528173907DA
:1027800031F10EA11FA18DA1082E000C990B48A5B7
:1027900059A5480F591F2BA13CA10417150709F48F
:1027A00058C0F11004C00217130721F40AC0021721
:1027B000130739F44B8D4195B801888199810E94A6
:1027C000981F8DA1080F111D87FD1A95DCCF85E09C
:1027D00090E046C08430910518F4019718F009C0C4
:1027E0000597E1F5CE010E94112283E090E09C87DD
:1027F0008B87CE010E9439110EA11FA148A559A5B2
:102800008DA1282F880F330BBA01620F731F8BA184
:102810009CA106171707B1F0F11004C0081719079B
:1028200021F40AC00817190739F44B8D4195B801F6
:10283000888199810E94981F8DA1080F111D87FD25
:102840001A95DCCF8417950724F446E050E05C87A6
:102850004B87820F931F9CA38BA304C086E090E05C
:102860009C878B87DF91CF911F910F91FF900895E7
:10287000EF92FF920F931F93CF93DF93EC01062FFC
:102880008B859C85442309F479C08330910518F029
:10289000039761F170C06F85788989899A899B0156
:1028A000281B390BC90137FD01969595879501962F
:1028B0009CA38BA30023B9F04B8D11E041274195D8
:1028C000681B790B888199810E94981F4B8D412745
:1028D000419569897A898BA19CA1680F791F8881AC
:1028E00099810E94981F83E090E0D0C08BA19CA1A9
:1028F00097FD41C0CE010E943911E12CF12C6BA152
:102900007CA1E616F706C4F44B8D419569897A8956
:102910006E0D7F1D888199810E94981F4B8D419576
:102920006F8578896E197F09888199810E94981F27
:102930003FEFE31AF30AE3CF615071097CA36BA365
:10294000002309F4A5C077FDA3C04B8D11E04127FA
:10295000419589899A89680F791F888199810E9498
:10296000981F4B8D412741956F8578898BA19CA13C
:10297000681B790B7FC085E090E088C083309105AB
:1029800049F120F4019708F47FC003C0059709F0CE
:102990007BC0CE010E94E91ECE010E9439111CA20B
:1029A0001BA2002399F04B8D11E0412741956F85C3
:1029B0007889888199810E94981F4B8D4127419584
:1029C00069897A89888199810E94981F83E090E0C3
:1029D0009C878B872BA13CA16F85788989899A89EF
:1029E000AB01481B590BCA0157FD01969595879578
:1029F000821793070CF448C04B8D4195621B730BF3
:102A0000888199810E94981F4B8D419569897A89A7
:102A10008BA19CA1680F791F888199810E94981FC2
:102A20002BA13CA12F5F3F4F3CA32BA3002381F19F
:102A30006F85788989899A89AB01481B590BCA012E
:102A400057FD019695958795821793070CF14B8D4D
:102A500011E041274195621B730B888199810E9487
:102A6000981F4B8D4127419569897A898BA19CA13B
:102A7000680F791F88819981DF91CF911F910F9104
:102A8000FF90EF900C94981F86E090E09C878B87D6
:102A9000DF91CF911F910F91FF90EF9008958F924A
:102AA0009F92AF92BF92CF92DF92EF92FF920F93DD
:102AB0001F93CF93DF93EC01D62E8B859C85442307
:102AC00009F4D3C08230910539F48E010B5C1F4F9D
:102AD00055E0E52EF12C28C08230910538F0833086
:102AE000910581F1049709F497C0BCC0BE016B5CED
:102AF0007F4FCE010E949F21882309F441C11FAA64
:102B00001EAA83E090E03EC1B801CE010E945A2186
:102B1000811102C0FC86EB862DA98B859C85211135
:102B200008C08530910529F01DAA8EA58111F2CF2C
:102B3000EBCF059709F433C11FAA1EAA83E090E0EA
:102B40009C878B878DA98823B9F121E02D2530E062
:102B50004AA169A1888199810E94F0234B8D2AA9FD
:102B60003BA98EA99FA9442359F0AC014F5F5F4F49
:102B70005FAB4EABF901E80FF91F4081409509C0EA
:102B8000AC014F5F5F4F5FAB4EABF901E80FF91F30
:102B90004081DD2031F069A128E0629FB00111245D
:102BA00007C06AA188E0689FB0011124695F7F4F68
:102BB000888199810E94981F8DA990E02EA93FA934
:102BC0002817390709F0EBC08EA5811103C082E0F8
:102BD00090E0D8C02F853889DD2071F049A18D851E
:102BE0009E85B901681B790BCB01019678E0479F60
:102BF00080199109112408C08AA148E0849FC0016E
:102C000011240796821B930B9FAB8EAB18161906E7
:102C10004CF584E090E0B6C021E0262730E04AA1E0
:102C200069A1888199810E94F0234B8D4195DD2017
:102C300031F069A188E0689FB001112407C06AA142
:102C400028E0629FB0011124695F7F4F88819981DC
:102C50000E94981F8EA99FA901979FAB8EAB892BCD
:102C600009F09DC085E090E08DC08430910539F079
:102C7000059709F085C084E090E09C878B8721E070
:102C80002D2530E04AA169A1888199810E94F02315
:102C90004B8D4195DD2031F069A188E0689FB0013E
:102CA000112407C06AA128E0629FB0011124695F66
:102CB0007F4F888199810E94981F0AA110E0A9A0E6
:102CC000B12C7801EA18FB084FEFE41AF40A43E04C
:102CD000EE0CFF1C4A95E1F78C8D9D8D009721F03D
:102CE0008E159F0508F47C010F5F1F4FDD2019F141
:102CF00023E0AA0CBB1C2A95E1F733E0000F111F5B
:102D00003A95E1F745016401CA18DB08801691067F
:102D1000A4F5682D888199810E94E21E90E02B8D98
:102D2000211103C020E030E002C02FEF30E028176F
:102D3000390719F52AC083E0000F111F8A95E1F7C2
:102D40000150110993E0AA0CBB1C9A95E1F7C12C24
:102D5000D12C0A151B058CF0602F888199810E9467
:102D6000E21E90E02B8D211103C020E030E002C074
:102D70002FEF30E02817390761F0CE14DF0478F028
:102D800086E090E09C878B870AC06FEF861A960AD0
:102D9000BACF015011097FEFC71AD70ADACFDF91F6
:102DA000CF911F910F91FF90EF90DF90CF90BF9048
:102DB000AF909F908F900895CF93DF9390E0FC01A8
:102DC000E152F94F2491FC01E553F94F8491882396
:102DD00061F190E0880F991FFC01E355F94FC5910F
:102DE000D491FC01E954F94FA591B491611109C046
:102DF0009FB7F8948881209582238883EC912E23B5
:102E00000BC0623061F49FB7F8948881322F3095FF
:102E100083238883EC912E2B2C939FBF06C08FB702
:102E2000F894E8812E2B28838FBFDF91CF910895EE
:102E3000CF92DF92EF92FF920F931F93CF93DF9386
:102E40006C017A018B01C0E0D0E0CE15DF0581F086
:102E5000D8016D918D01D601ED91FC910190F08129
:102E6000E02DC6010995892B11F02196EECF7E0148
:102E7000C701DF91CF911F910F91FF90EF90DF90ED
:102E8000CF9008950E94862D87E891E00E949210CD
:102E900021E0892B09F420E0822F0895833081F00E
:102EA00028F4813099F08230A1F008958730A9F09C
:102EB0008830B9F08430D1F4809180008F7D03C0D8
:102EC000809180008F7780938000089584B58F77FC
:102ED00002C084B58F7D84BD08958091B0008F7746
:102EE00003C08091B0008F7D8093B00008951F9340
:102EF000CF93DF93282F30E0F901ED50F94F849103
:102F0000F901E152F94FD491F901E553F94FC49118
:102F1000CC23C1F0162F81110E944E17EC2FF0E048
:102F2000EE0FFF1FE954F94FA591B4919FB7F894A4
:102F3000111104C08C91D095D82302C0EC91DE2BE6
:102F4000DC939FBFDF91CF911F9108952FB7F89425
:102F5000609181017091820180918301909184013F
:102F60002FBF08951F920F920FB60F9211242F9327
:102F70003F938F939F93AF93BF93809181019091E3
:102F80008201A0918301B09184013091800123E0FE
:102F9000230F2D3720F40196A11DB11D05C026E891
:102FA000230F0296A11DB11D209380018093810102
:102FB00090938201A0938301B093840180917C015E
:102FC00090917D01A0917E01B0917F010196A11D9C
:102FD000B11D80937C0190937D01A0937E01B093FD
:102FE0007F01BF91AF919F918F913F912F910F9052
:102FF0000FBE0F901F9018951F920F920FB60F9251
:1030000011242F933F934F935F936F937F938F93ED
:103010009F93AF93BF93EF93FF9387E891E00E9454
:10302000A810FF91EF91BF91AF919F918F917F91E8
:103030006F915F914F913F912F910F900FBE0F9025
:103040001F9018951F920F920FB60F9211242F9375
:103050008F939F93EF93FF93E0919701F0919801E5
:103060008081E0919D01F0919E0182FD12C09081CE
:103070008091A0018F5F8F732091A101821751F081
:10308000E091A001F0E0E957FE4F958F8093A001F9
:1030900001C08081FF91EF919F918F912F910F90AF
:1030A0000FBE0F901F901895CF92DF92EF92FF9274
:1030B0000F931F93CF93DF93FC018381882351F0FB
:1030C00087E090E0841B910991E001C0990F8A95F7
:1030D000EAF706C091E0042E01C0990F0A94EAF7BE
:1030E000218530E0A62FB0E0A217B3079CF5483049
:1030F00088F522853385A90189E0689F400D511D1F
:103100001124BA01E48140E050E080E0A7E0B0E0A3
:10311000C12CD12C7601C394EE2321F09D01241BF8
:10312000350B01C09A01EB01C20FD31F288129235F
:1031300059F097018601042E04C0000F111F221FB1
:10314000331F0A94D2F7802B4F5F5F4F48305105F1
:1031500019F701C080E0DF91CF911F910F91FF908F
:10316000EF90DF90CF900895DC0112963C9112977A
:103170001996EC91A62FB0E0F0E0332339F0AE17AA
:10318000BF075CF4483048F40C94AD25AE17BF0778
:1031900024F4483010F40C94172680E00895BF9270
:1031A000CF92DF92EF92FF920F931F93CF93DF9313
:1031B000EC0188858823B9F080918501882379F016
:1031C0008FB7F89490918501913039F49DB3909325
:1031D00086019DB39DBB8FBF02C08093860180E5B1
:1031E0008CBD81E08DBD60E08F810E94771788855E
:1031F000811102C0F12C2FC040E0242F30E08985DE
:1032000090E0880F991F28173907D0F58C859D8588
:10321000FC01E20FF31F80818EBD00000DB407FE9C
:10322000FDCF8EB54F5FE9CFB601002E02C0759578
:1032300067950A94E2F761708B2D0E94771761E021
:103240008E2D0E94771760E08E2D0E947717015017
:10325000110950F7F3942F2D30E0898590E0880F05
:10326000991F2817390760F48C859D85FC01E20FB2
:10327000F31FC080EE80BD8007E010E0D12CD4CFDA
:1032800061E08F810E9477178885882381F0809183
:103290008501882361F09FB7F89420918501809182
:1032A0008601213019F48DBB9FBF01C08FBFDF9114
:1032B000CF911F910F91FF90EF90DF90CF90BF9033
:1032C0000895FC01418550E0440F551F60E070E017
:1032D000848595850C94942DDC0112963C9112976F
:1032E0001996EC91A62FB0E0F0E0332339F0AE1739
:1032F000BF075CF4483048F40C941726AE17BF079C
:1033000024F4483010F40C94AD2580E00895FC01BD
:10331000228121110C945418FC01218530E0E62F04
:10332000F0E0E217F30724F4483010F40C94B726C9
:1033300080E00895962F9295692F6C7C862F869554
:103340008695937324E0929FB0011124682B862FF9
:103350008A7A86956575660F862B0895CF92DF92DF
:10336000EF92FF920F931F93CF93DF93E62EF12CF2
:10337000FC01218530E0E216F3060CF049C0EC01B7
:10338000F9E06F9F80011124C12CD12CEA85FB85C7
:10339000E00FF11F808590E00C2C02C09595879579
:1033A0000A94E2F780FF27C0CE010E946119E985E7
:1033B000F0E03197EE19FF09EE0FFF1F8C859D8518
:1033C000E80FF91F81E08C0D8083EA85FB85E00F13
:1033D000F11FEC0DFD1D8081E985F0E03197EE19BC
:1033E000FF09EE0FFF1F2C853D85E20FF31F818340
:1033F000CE010E94CF188FEFC81AD80AE8E0CE1687
:10340000D10421F66A857B85FB01E00FF11F108650
:10341000DF91CF911F910F91FF90EF90DF90CF90B0
:103420000895AF92BF92CF92DF92EF92FF920F93E7
:103430001F93CF93DF93FC018281A185C62FD0E03B
:10344000882309F451C0B0E0CA17DB070CF0B5C0FF
:10345000483008F0B2C0283008F0AFC0E284F384EE
:1034600079E0679F500111243481A22FB0E033230B
:1034700029F087E090E08A1B9B0B01C0CD01EA0C8C
:10348000FB1C50E0332331F007E010E0E801C41BDF
:10349000D50BAE014E0D5F1DEA0138818E0D9F1DCB
:1034A000EC01388382859385E501C80FD91F4885D3
:1034B0008481882321F027E030E02A1B3B0B81E048
:1034C00090E0A0E0B0E004C0880F991FAA1FBB1FC6
:1034D0002A95D2F7842B88878289882319F0CF0117
:1034E0000E94AE1981E06AC09381992359F007E0E8
:1034F00010E07801E41AF10831E001C0330FEA94DA
:10350000EAF706C031E0042E01C0330F0A94EAF74F
:10351000B0E0CA17DB070CF051C0483008F04EC0CD
:10352000283008F04BC0D9E06D9FA0011124C7E0FE
:10353000D0E0C21BD10981E090E0A0E0B0E06C01D6
:103540007D0104C0CC0CDD1CEE1CFF1CCA95D2F71B
:103550007C2D04C0880F991FAA1FBB1F2A95D2F784
:10356000182FC0948095C0E0D0E0A285B385A40F49
:10357000B51FAC0FBD1FFC902F2D23239381222359
:1035800041F0992311F0272F01C0212F2F292C93CF
:1035900007C0992311F09C2D01C0982F9F219C9367
:1035A0002196C830D10509F782859385DC01A40FE7
:1035B000B51F8FEF18968C938FCF80E0DF91CF915E
:1035C0001F910F91FF90EF90DF90CF90BF90AF9041
:1035D00008958F929F92AF92BF92CF92DF92FF9207
:1035E0000F931F93CF93DF93CDB7DEB728970FB616
:1035F000F894DEBF0FBECDBF4830510508F0DCC1E6
:10360000FA01F62E8C01E459FF4F0C945F2CDC017B
:1036100012962C91B9E06B9FC00111242223D9F09E
:1036200020E030E0F80143810284F385E02DE80FCB
:10363000F91FE20FF31F442329F0408150E0559514
:10364000479502C04081440F40832F5F3F4F283091
:10365000310541F7A3C127E030E0D8011A96ED917A
:10366000FC911B97E80FF91FE20FF31F4081418384
:103670002150310990F792C1FC018281F9E06F9FDE
:10368000900111248823E9F080E090E0D80113969E
:103690004C9113971A96ED91FC911B97E20FF31F33
:1036A000E80FF91F442319F04081440F04C0408102
:1036B00050E055954795408301968830910531F744
:1036C0006DC180E090E0F80142855385420F531FA1
:1036D000BC010196FA01E80FF91FE081DA01A60F9B
:1036E000B71FEC938730910571F758C1DC015396F1
:1036F0008C9153971296DC9012978823B9F0DD20B5
:1037000069F019968C9190E0262F30E02817390740
:1037100054F440E0C8010E94B72606C040E0C8014A
:103720000E94541801C080E0898301C01982DD2005
:1037300079F020E0DD24D394D20E4D2D6F2DC801F9
:103740000E94111A2D2D2730A9F7298147E041C089
:10375000B9E0FB9EA001112487E090E0D8011A9601
:10376000ED91FC911B97E40FF51FE80FF91F2081E5
:10377000220F2083019790F7E8CFFC018389D28044
:103780008823B1F0DD2061F0818590E0262F30E0C4
:103790002817390754F447E0C8010E94B72606C02D
:1037A00047E0C8010E94541801C080E0898301C02D
:1037B0001982DD2099F028E0DD24DA94D20E4D2D17
:1037C0006F2DC8010E94111A2D2DD110F5CF29811E
:1037D00040E06F2DC8010E94B418E0C0F9E0FF9EE0
:1037E000A001112420E030E0D8011A96ED91FC915F
:1037F0001B97E40FF51FE20FF31F808190E0959572
:10380000879580832F5F3F4F2830310569F7DFCFE1
:10381000FC018281F9E06F9F600111248823D1F0BF
:10382000812C912CD8011A96AD90BC901B97AC0CB2
:10383000BD1CA80CB91CF5016081C8010E949A1931
:10384000D5018C93BFEF8B1A9B0AE8E08E1691048A
:1038500049F7A4C020E030E067E070E0D8011A9694
:103860008D919C911B978C0D9D1DFC01E20FF31F08
:10387000B080AB01421B530B840F951FDC018C9170
:103880008083F801828593858C0D9D1DFC01E40FDA
:10389000F51FB0822F5F3F4F24303105F9F67EC00F
:1038A000DC0112968C91B9E06B9F400111248823B2
:1038B00021F120E030E067E070E0F8018285938537
:1038C000880D991DFC01E20FF31FD080AB01421B54
:1038D000530B840F951FDC018C918083F801828546
:1038E0009385880D991DFC01E40FF51FD0822F5F91
:1038F0003F4F2430310509F751C0A12CB12CD8011C
:103900001A96CD90DC901B97C80CD91CCA0CDB1CF6
:10391000F6016081C8010E949A19D6018C93BFEF0D
:10392000AB1ABB0AE8E0AE16B10449F737C09E01F6
:103930002F5F3F4F5901490187E0D82E4D2D6F2D44
:10394000C8010E948719D4018D934D01DA94BFEF0D
:10395000DB12F4CFD12CF50121915F014D2D6F2D9C
:10396000C8010E94B418D394F8E0DF12F4CF16C057
:1039700029E0629FA001112480E090E0D8011A960E
:10398000ED91FC911B97E40FF51FE80FF91F2081C3
:103990002095208301968830910581F7D8011A96E9
:1039A000ED91FC911B97B9E0FB9EE00DF11D1124F8
:1039B0008FEF808781E001C080E028960FB6F894F1
:1039C000DEBF0FBECDBFDF91CF911F910F91FF9052
:1039D000DF90CF90BF90AF909F908F900895DF922F
:1039E000EF92FF920F931F93CF93DF93EC01E12CA3
:1039F000F12C01E010E0CE010E94611998010E2C1B
:103A000002C0220F331F0A94E2F760E0D12C71E06C
:103A10007E0D898590E0462F50E0481759077CF5C8
:103A2000E9E06E9FD0011124EA85FB85EA0FFB1FB8
:103A3000E085F0E0E223F323EF2BF9F00197841BFC
:103A4000950B880F991FEC85FD85E80FF91F708392
:103A50008A859B85A80FB91FAE0DBF1D8C91E98586
:103A6000F0E03197E41BF50BEE0FFF1F4C855D85F1
:103A7000E40FF51F8183DD24D3946F5FCACFDD206F
:103A800019F0CE010E94CF188FEFE81AF80A98E0DB
:103A9000E916F10409F0AFCF80E0298530E0482F26
:103AA00050E04217530754F4EA85FB8599E0899F5B
:103AB000E00DF11D112410868F5FEFCFDF91CF91C4
:103AC0001F910F91FF90EF90DF900895CF92DF92BA
:103AD000EF92FF920F931F93CF93DF93EC01D62EBB
:103AE000C42E7901461708F47DC02A3031050CF048
:103AF0005EC0CE010E94611982E0E816F10401F176
:103B000040F4E114F10471F081E0E816F10489F069
:103B100046C083E0E816F10411F184E0E816F104F0
:103B2000B1F03DC081E00115110509F080E09CE095
:103B30001CC0802F083011050CF087E09BE015C0F9
:103B4000802F003111050CF08FE09AE00EC081E06B
:103B50000115110509F480E0819599E006C081E026
:103B60000115110509F480E09FE02D2D30E0E98575
:103B7000F0E03197E21BF30BEE0FFF1F4C855D85E4
:103B8000E40FF51F9083E985F0E03197E21BF30B1A
:103B9000EE0FFF1F2C853D85E20FF31F8183D39429
:103BA000CD1408F0A9CFCE010E94CF181DC02A3035
:103BB000310521F02B30310571F016C081E0013064
:103BC000110509F080E08A8B0130110569F4CE01FE
:103BD0000E94EF1C09C081E00130110509F080E06E
:103BE0008B8B02C080E001C081E0DF91CF911F91FB
:103BF0000F91FF90EF90DF90CF900895CF93DF93D8
:103C0000282F30E0F901ED50F94F8491F901E1528C
:103C1000F94FD491F901E553F94FC491CC2391F0B8
:103C200081110E944E17EC2FF0E0EE0FFF1FEF53B3
:103C3000F94FA591B491EC91ED2381E090E021F44E
:103C400080E002C080E090E0DF91CF910895FC0118
:103C5000968D828DA4A5B5A591FD0AC0882319F083
:103C60008689978902C0808D918D0597B1F409C02E
:103C7000882319F08689978902C0808D918D0597D8
:103C800061F081E022A533A52A173B0709F080E007
:103C900086A71197B5A7A4A70895CD01019695A76A
:103CA00084A781E011969C91911180E086A70895E8
:103CB000362FFB018E2F831B8417B8F48081982F39
:103CC0009695292F2575982F9575990F922B892FE9
:103CD00086958695282F2373937354E0959FC00192
:103CE0001124822B82958193E5CF0895242F269568
:103CF00050E0460F571F362FFB018E2F831B821774
:103D000040F4808141505109DA019C9191938C9348
:103D1000F4CF0895CF92DF92EF92FF920F931F930B
:103D2000CF93DF937C016B01EA01CA0101960E94E7
:103D3000652C8C010097B1F0AE01B6010E948B2D6D
:103D4000F801EC0FFD1F1082D701ED91FC9100846A
:103D5000F185E02DB801C7010995C8010E94FD2C2D
:103D6000CE0102C080E090E0DF91CF911F910F91D2
:103D7000FF90EF90DF90CF900895EF92FF920F9316
:103D80001F93CF93DF937C01EB01FC0125A936A99A
:103D900000E010E0AB0160E00E947623C7010E94C2
:103DA000EA038111FBCFFE0101900020E9F7CF016A
:103DB00001978C1B9D0BDF91CF911F910F91FF906D
:103DC000EF900895462F47706695669566950C941A
:103DD0008719CF93DF93EC014AA169A1461720F020
:103DE000888199810E94C8238B8D882351F027E018
:103DF00030E04AA169A188819981DF91CF910C942B
:103E0000F023DF91CF910895CF92DF92EF92FF924E
:103E10000F931F93CF93DF93EC01F62EC42E8B8567
:103E20009C85222309F446C08430910598F40197BB
:103E300098F41CA21BA200E010E02BE030E04AA1A5
:103E400069A1888199810E94661D83E090E09C872A
:103E50008B8702C0059759F5CE010E94E91ECE015D
:103E60000E9439111BA1FF2021F093E0E92EF12CD3
:103E700003C082E0E82EF12CD12C173080F497019A
:103E80004AA169A1888199810E94F02396014AA1E3
:103E900069A1888199810E94F0231F5FEECF8BA1D9
:103EA0009CA18730910599F525E030E02EC085E092
:103EB00090E033C08430910518F4019718F008C0E1
:103EC000059749F51CA21BA283E090E09C878B8795
:103ED000F11003C023E030E002C022E030E04AA14C
:103EE00069A1888199810E94F02321E02C2530E08E
:103EF0004AA169A1888199810E94F0238BA19CA18C
:103F00008730910521F426E030E03C872B8701962D
:103F10009CA38BA304C086E090E09C878B87DF91F5
:103F2000CF911F910F91FF90EF90DF90CF90089568
:103F3000242F462F477033E0769567953A95E1F741
:103F40000C946C19CF92DF92FF920F931F93CF9333
:103F5000DF93EC01F62E8B859C85442309F462C027
:103F60008330910518F00397F9F059C01CA21BA2E9
:103F7000CE010E94E91EFF2099F04B8D11E04127F0
:103F800041956F857889888199810E94981F4B8D12
:103F90004127419569897A89888199810E94981F72
:103FA00083E090E09C878B87CE010E94E91ECE01C2
:103FB0000E94391109891A898F859889801B910B74
:103FC00097FD01966C01D594C7948BA19CA1C8164E
:103FD000D9062CF1080F191F0F5F1F4F6F857889C5
:103FE0008BA19CA19B01281B390B0217130744F4DA
:103FF0004B8D4195B801888199810E94981FECCF23
:1040000001969CA38BA3FF2009F490C0C816D90683
:104010000CF48CC04B8D11E04127419569C085E0BF
:1040200090E082C083309105D1F120F4019708F42B
:1040300079C003C0059709F075C08F8598892989D3
:104040003A89821B930B97FD0196959587959CA3C2
:104050008BA3CE010E94E91ECE010E943911FF20E0
:10406000D9F04B8D11E0412741956F8578898BA15F
:104070009CA1681B790B888199810E94981F4B8DA8
:104080004127419569897A898BA19CA1680F791F85
:10409000888199810E94981F83E090E045C08BA1A0
:1040A0009CA197FD3FC04B8D41956F857889681B1A
:1040B000790B888199810E94981F4B8D4195698960
:1040C0007A898BA19CA1680F791F888199810E94B0
:1040D000981F8BA19CA101979CA38BA3FF2031F17A
:1040E00097FD24C04B8D11E0412741956F8578895C
:1040F000681B790B888199810E94981F4B8D4127FD
:10410000419569897A898BA19CA1680F791F888163
:104110009981DF91CF911F910F91FF90DF90CF9008
:104120000C94981F86E090E09C878B87DF91CF915D
:104130001F910F91FF90DF90CF900895CF92DF9263
:10414000EF92FF920F931F93CF93DF936C01D62FC3
:10415000C42F7901DC019F96ED91FC91D0973097A7
:10416000C1F080818D1311C00180F281E02DD081DA
:10417000CD1708F4DC2F4D2F50E0BF016F5F7F4F4C
:10418000C7010E948B2D8D2F6BC00380F481E02D21
:10419000E6CFF60120AD31AD80819181DC015496EE
:1041A0004D915C9155972417350751F02115310534
:1041B00011F428EF30E0FC01358B248B0E943F2561
:1041C000E114F10409F449C0F601A081B1815996C6
:1041D0008C915997D817C0F05A969C915A979D1771
:1041E00098F05B960D911C915C97D81769F05496E6
:1041F000ED91FC915597E00FF11FE4910E0F111D09
:104200000F5F1F4F8F5FF1CF0F3FFFEF1F0741F48D
:104210004C2F50E060E070E0C7010E94942D1DC05B
:104220005496ED91FC915597E00FF11F8491C817BA
:1042300008F0C4912E2DC7010F5F1F4F382F321B7E
:104240003C1768F45496ED91FC915597E00FF11FDF
:104250003491FC013193CF01EFCF80E001C08C2F6E
:10426000DF91CF911F910F91FF90EF90DF90CF9052
:1042700008951F93CF93DF93EC01142F2AA93BA934
:1042800049A90E949E20112389F0882379F090E0AB
:104290002CA9921758F429A9821730F4EAA9FBA98E
:1042A000E80FF11D10828F5F9F5FF2CFDF91CF91FA
:1042B0001F9108950F931F93CF93DF93EC018B0110
:1042C000ECA5FDA541E08181811101C040E0608144
:1042D000CE010E943921F80180832E8D9A8D21FD17
:1042E0000BC0992319F02E893F8902C0288D398D82
:1042F0002530310589F40AC0992319F02E893F89A8
:1043000002C0288D398D2530310531F06AA97BA98D
:10431000482FCE010E94761E8E8D80FF07C06AA9AD
:104320007BA9F8014081CE010E94581ECE010E9457
:10433000271E81E0DF91CF911F910F9108950F9378
:104340001F93CF93DF93EC01FB011082EAA5FBA53D
:10435000FDA7ECA7309719F08081811104C081E09E
:104360008EA780E059C01EA69E8D8A8D91FD0AC041
:10437000882319F08E899F8902C0888D998D0597B1
:1043800081F409C0882319F08E899F8902C0888D25
:10439000998D059731F001900020E9F73297FDA73C
:1043A000ECA7ECA5FDA541E08181811101C040E0B1
:1043B0008B016081CE010E943921F80180832E8D0E
:1043C0009A8D21FD0BC0992319F02E893F8902C0D7
:1043D000288D398D2530310589F40AC0992319F0CB
:1043E0002E893F8902C0288D398D2530310531F065
:1043F0006AA97BA9482FCE010E94761E8E8D80FF70
:1044000007C06AA97BA9F8014081CE010E94581E0D
:10441000CE010E94271E81E0DF91CF911F910F9165
:104420000895FC01848995898230910519F42189C8
:10443000328902C02785308934A323A337A326A35A
:104440008230910519F42785308902C0218932898B
:1044500031A720A7029711F08FEF01C081E085A35B
:104460000895CF92DF92EF92FF920F931F93CF9315
:10447000DF93EC01D62E8B859C85442309F45AC02A
:104480008430910518F4019720F013C0059789F046
:104490004EC0CE010E941122D11003C081E090E0F5
:1044A00002C08FEF90E09CA38BA383E090E09C87F9
:1044B0008B87CE010E9439112BA13CA1D11003C0E2
:1044C0008FEF90E002C080E090E08217930779F1CF
:1044D0000EA11FA12DA188A599A5820F911D27FDD1
:1044E0009A9508171907E9F0CB8CE880F980602FBE
:1044F000C701CC2021F00E94E21E809502C00E94DC
:10450000E21E4BA1D11040954823C1104095B8013F
:10451000C7010E94981F8DA1080F111D87FD1A95D4
:10452000D9CF8BA19CA1DD2009F456C05BC085E0EA
:1045300090E05FC08430910518F4019720F013C01B
:10454000059709F054C0CE010E941122D11003C07A
:104550008FEF90E002C081E090E09CA38BA383E00A
:1045600090E09C878B87CE010E9439110EA11FA17C
:104570002DA188A599A5820F911D27FD9A95081751
:104580001907E9F0CB8CE880F980602FC701CC20B7
:1045900021F00E94E21E809502C00E94E21E4BA103
:1045A000D11040954823C1104095B801C7010E9421
:1045B000981F8DA1080F111D87FD1A95D9CF8BA1CA
:1045C0009CA1DD2069F08F3F910531F426E030E0B9
:1045D0003C872B87DD2031F0880F991F816004C054
:1045E0000097A1F3959587959CA38BA304C086E0C3
:1045F00090E09C878B87DF91CF911F910F91FF9067
:10460000EF90DF90CF9008951F93CF93DF93FC013D
:10461000A081B18158961C9184A9180F81A9811796
:1046200070F4EF0182A993A9009711F00E94FD2C6C
:1046300019AB812F90E00E94652C9BAB8AABDF9178
:10464000CF911F910895009769F0FC01019000201F
:10465000E9F73197AF01481B590BBC0187E891E09E
:104660000C94181780E090E008958F929F92AF927B
:10467000BF920F931F93CF93DF93CDB7DEB7A19770
:104680000FB6F894DEBF0FBECDBF19A2423008F4BA
:104690004AE08E010F5D1F4F842E912CA12CB12C6E
:1046A000A50194010E94062CE62FB901CA01015010
:1046B0001109EA3014F4E05D01C0E95CD801EC9323
:1046C000232B242B252B61F7C8010E942323A196BD
:1046D0000FB6F894DEBF0FBECDBFDF91CF911F9113
:1046E0000F91BF90AF909F908F9008950F931F935D
:1046F000FC01E65DFE4F7081671758F4DC0172E43F
:10470000679FA00DB11D112491969B965C934E93CB
:104710009A974081641750F4DC0142E4649FA00D35
:10472000B11D1124D6963C932E93D5972081621704
:1047300050F4DC0172E4679FA00DB11D112499961D
:104740001C930E9398972081621750F4DC0122E4A9
:10475000629FA00DB11D11249B961C921E929A97E8
:104760002081621790F442E4649FB0011124FC019F
:10477000E60FF71F21E030E030AF27AB12AE11AEED
:10478000FC01E60FF71F15A614A61F910F910895BF
:10479000CF9378E05FEF4617D0F0A9E06A9F9001D1
:1047A0001124DC011A96ED91FC911B97E20FF31F87
:1047B000DF01C72F1D92CA95E9F7DC011A96ED912A
:1047C000FC911B97E20FF31F50876F5FE4CFFC0152
:1047D0002289222319F0CF910C94EF1CCF910895D8
:1047E0006F927F928F929F92AF92BF92CF92DF9201
:1047F000EF92FF920F931F93CF93DF93CDB7DEB766
:1048000029970FB6F894DEBF0FBECDBF8C01E62E00
:10481000F42E6901461708F41AC1DC0152967C9007
:10482000529752961C922830310508F010C1F901B8
:10483000EC58FF4F0C945F2CFC018389882351F0C6
:10484000642F660F660F660F695FC8010E94E21E43
:10485000B82E14C0C088D188C114D10471F0642F5F
:10486000660F660F660F695FC8010E94E21E482F3F
:1048700060E070E08F2DF6010995B12CCE2CD12C83
:104880008F2D0F2C000C990B8C159D05B4F040E07A
:1048900050E06F2DC8010E94E91AAA24AA94AF0C17
:1048A00047E06A2DC8010E948719282F40E06F2D2C
:1048B000C8010E946C19FA2CE3CFD8011E96ED9125
:1048C000FC911F97309749F053968C91811105C048
:1048D00060E070E08E2D0995B82EB60143E0660FBA
:1048E000771F4A95E1F74B2D4CC0FC018389882343
:1048F00041F0660F660F660FC8010E94E21ED82EB7
:1049000012C0C088D188C114D10461F0660F660F4F
:10491000660FC8010E94E21E482F61E070E08E2DF4
:10492000F6010995D12C41E050E06E2DC8010E949E
:10493000E91ACC24C394CE0C40E06C2DC8010E942F
:104940008719282F47E06E2DC8010E946C19EC2CA6
:10495000FC1448F7D8011E96ED91FC911F973097F3
:1049600049F053968C91811105C061E070E08F2D64
:104970000995D82EB8E0FB9EB0011124695F7F4FE6
:104980004D2DC8010E94981F59C0C42ED12CA62EAF
:10499000B12CC6018A199B0997FD019695958795BB
:1049A000812C39E0932E282D30E028173907A4F503
:1049B000F80162857385F901EA0DFB1D9E9EA00139
:1049C0009F9E500D1124460F571FFA01DE011196CC
:1049D000692C01900D926A94E1F7F601E21BF30B4A
:1049E0009E9E90019F9E300D1124FB01E20FF31F4C
:1049F000DA01492D01900D924A95E1F7F801A2855F
:104A0000B385A20FB31FFE013196292D01900D929F
:104A10002A95E1F78394C7CF44E050E06E2DC8019A
:104A20000E94E91AE394FE14B8F708C0A6016E2D9F
:104A3000C8010E94E91AE394FE14C0F7D801529607
:104A40007C92772031F0C8010E94EF1C02C080E008
:104A500001C081E029960FB6F894DEBF0FBECDBF2E
:104A6000DF91CF911F910F91FF90EF90DF90CF904A
:104A7000BF90AF909F908F907F906F9008951F93FD
:104A8000CF93DF93DC0156961C92569788E0579699
:104A90008C93579758961C92589759961C925997F1
:104AA0008FEF5A968C935A975C961C921E925B9746
:104AB00054968D919C915597009709F44AC0FC013A
:104AC00024912634F9F43196E491E130A9F4FC0103
:104AD0003296E4915996EC935997FC013396E49100
:104AE0005A96EC935A97FC013496E4915796EC93BE
:104AF000579725E030E002C022E030E05C963C931E
:104B00002E935B975B964D915C915C9759962C9197
:104B1000599730E05A966C915A9770E010E06217FE
:104B2000730770F0FC01E40FF51FE4911E1708F401
:104B30001E2FF0E031964E0F5F1F2F5F3F4FEFCFDC
:104B4000ED01612F70E080E090E04AE00E943523A3
:104B5000188FDF91CF911F9108958F929F92AF92FE
:104B6000BF92CF92DF92EF92FF920F931F93CF935A
:104B7000DF93EC01162F042F89E0689F4001112478
:104B8000AA84BB84A80CB91C8C81C42ED12C882388
:104B900031F087E090E07C01EC18FD0801C076015F
:104BA0008B81882329F0622FCE010E949A1901C0BF
:104BB000822FF501EE0DFF1D8083EA85FB85E80D50
:104BC000F91D40858C81882381F027E030E02C1985
:104BD0003D0981E090E0A0E0B0E004C0880F991F9B
:104BE000AA1FBB1F2A95D2F70BC081E090E0A0E07E
:104BF000B0E004C0880F991FAA1FBB1F0A95D2F707
:104C0000842B80878A89882321F0612FCE010E941E
:104C1000AE1981E0DF91CF911F910F91FF90EF903E
:104C2000DF90CF90BF90AF909F908F9008954F925C
:104C30005F926F927F929F92AF92BF92CF92DF92DC
:104C4000EF92FF920F931F93CF93DF93DC0189E0E4
:104C5000689F8001112487E090E0841B9109C12C9A
:104C6000D12C7601C3942601370104C0440C551C95
:104C7000661C771C8A95D2F7942C04C0CC0CDD1CE2
:104C8000EE1CFF1C4A95D2F77C2D342D30959C2DBF
:104C90009095C7E0D0E047E0A42EB12CE22EF12C95
:104CA000F501EC1BFD0B67010E2E02C0D594C794D5
:104CB0000A94E2F71A964D915C911B9714962C91E9
:104CC000149713968C911397C0FE16C0222311F0EF
:104CD0006E0101C06F01400F511F2111FE01E40F51
:104CE000F51F2081882311F0892D01C0872FFA013B
:104CF000EC0DFD1D822B15C0222311F06E0101C0A9
:104D00006F01400F511F2111FE01E40FF51F20819B
:104D1000882311F0832F01C0892FFA01EC0DFD1DAE
:104D200082238083219708F0BBCF1A968D919C91A6
:104D30001B97FC01E00FF11F8FEF808752968C913B
:104D40005297882319F0CD010E94AE1981E0DF91BE
:104D5000CF911F910F91FF90EF90DF90CF90BF9078
:104D6000AF909F907F906F905F904F900895FC015F
:104D7000A38129E0629FB0011124228533858481BB
:104D800050E0620F731FAA2379F0882331F087E087
:104D900090E09C01241B350BA901DB01A40FB51F7A
:104DA0006C91CF010C949A19882331F087E090E040
:104DB0009C01241B350BA901FB01E40FF51F808129
:104DC00008950F931F93CF93DF9381E391E0909326
:104DD00025028093240285E492E0892B29F48091B6
:104DE0003002882371F11AC0CBE0D3E08FA598A9D7
:104DF000009739F0FC01038114810E94FD2CC80149
:104E0000F7CF8AA99BA9009711F00E94FD2CC254EC
:104E1000D109F2E0C330DF0749F7E1CF9FB7F8943B
:104E200080916F01882319F0815080936F018091E8
:104E30006F01811105C08CB58F7B8CBD10928501EF
:104E40009FBF80913202909133020E94FD2C80918D
:104E5000340290913502DF91CF911F910F910C9404
:104E6000FD2C789484B5826084BD84B5816084BD56
:104E700085B5826085BD85B5816085BD80916E00F8
:104E8000816080936E001092810080918100826029
:104E90008093810080918100816080938100809166
:104EA00080008160809380008091B1008460809355
:104EB000B1008091B00081608093B00080917A0051
:104EC000846080937A0080917A00826080937A0077
:104ED00080917A00816080937A0080917A00806866
:104EE00080937A001092C100E0919701F0919801AF
:104EF00082E08083E0919301F09194011082E0912F
:104F00009501F09196018FEC808310929F01E091C2
:104F10009B01F0919C0186E08083E0919901F091E2
:104F20009A01808180618083E0919901F0919A01DA
:104F3000808188608083E0919901F0919A0180815D
:104F400080688083E0919901F0919A0180818F7D42
:104F5000808362E083E00E94DC1662E082E00E94CF
:104F6000DC1680913002882309F434C0CFB7F8945E
:104F700080916F01811127C0E5EDF6E08491E9EEA3
:104F8000F6E09491E82FF0E0EE0FFF1FE355F94FA4
:104F9000A591B491EC91E92321F461E08AE00E94AB
:104FA000771761E08AE00E94DC168CB580618CBDC9
:104FB0008CB580648CBD61E08DE00E94DC1661E000
:104FC0008BE00E94DC1680916F018F5F80936F01F0
:104FD000CFBF0AC061E080912D020E94DC1661E023
:104FE00080912E020E94DC1661E080912F020E94C7
:104FF000771761E080912F020E94DC161092370231
:10500000109236021092390210923802C091310289
:1050100029E0C29FC00111240E94652C90933302A5
:10502000809332028C2F90E0880F991F0E94652C8C
:10503000909335028093340280913C0290913D021E
:10504000885F904051F088EF90E090933D0280930C
:105050003C0288E292E00E943F2540E050E063E09D
:1050600070E088E292E00E94DD0347E050E061E0FA
:1050700070E088E292E00E94DD0347E050E062E0E9
:1050800070E088E292E00E94DD0340E050E064E0DE
:1050900070E088E292E00E94DD03409131024150CD
:1050A00060E088E292E00E94C82340E050E060E0C7
:1050B00070E088E292E00E94DD0382E080934E037C
:1050C000C0E0D2E408E212E080914E03C81770F409
:1050D000DC9FC0011124FC01EC5DFD4F12A301A374
:1050E0008B5B9D4F0E940423CF5FEECF813051F444
:1050F00090914D038FEF890F891720F4109266026B
:105100008093670280E092E42AE030E040914E0311
:10511000841748F4989FF0011124EB5BFD4F308712
:1051200027838F5FF3CF80914C0290914D024AE02C
:10513000489F9001499F300D112480E092E44091F6
:105140004E03841720F0C0E012E4D1E015C0989F10
:10515000F0011124EB5BFD4F328721878F5FEFCF8A
:105160001C9FC0011124FC01E758FD4FD0838B5BCD
:105170009D4F0E940423CF5F80914E03C81780F398
:1051800080E092E408C0989FF0011124EB5BFD4F92
:10519000158E148E8F5F20914E038217A0F380E04E
:1051A00022E490914E03891748F4289FF0011124BE
:1051B000EB5BFD4F158A148A8F5FF3CFE4E2F2E0D8
:1051C00080E021E030E0891741F030AF27AB12AE2C
:1051D00011AE8F5FEE5BFF4FF6CF10927002109210
:1051E0006F0280E092E420914E03821718F0C0E035
:1051F000D2E408C0989FF0011124EB5BFD4F138EA1
:105200008F5FF1CF80914E03C81750F4DC9FC0012F
:10521000112467E08B5B9D4F0E94CC03CF5FF2CFE0
:1052200080913C0290913D02892B51F088EF90E0F3
:1052300090933D0280933C0288E292E00E943F25D9
:1052400080E022E490914E038917D0F080914D03C5
:10525000823088F0992379F01092660221E0209341
:105260006702843040F0923030F082E08093A802F0
:1052700083E08093A902C2E0D0E0BB24B3947FC056
:10528000289FF0011124EB5BFD4F138E8F5FDACF67
:105290004AE0C701B6010E94352384E491E00E94F0
:1052A000232383E00E94FE1D892B09F080C083E048
:1052B0000E94E60F4C0182E00E94FE1D892B09F03E
:1052C00079C082E00E94E60F7C0182E0881691049A
:1052D00049F480917A0190917B01019690937B0132
:1052E00080937A0180917A0190917B01BE010E94A6
:1052F0004B2C90937B0180937A01009709F45DC059
:10530000019709F484C067E071E08CE091E00E94AD
:105310009B2D892B61F542E050E06CE071E084E068
:1053200091E00E94AB2D42E050E06EE071E081E040
:1053300091E00E94AB2D04E110E021E030E044E078
:1053400051E061E084E292E00E94762321E030E0C7
:1053500041E051E060E084E292E00E94762311E0B7
:1053600080914E038111C6C0112309F4CBC06CE0BB
:1053700071E087E091E00E94A42D0E949E10C090F1
:105380007A01D0907B010D2C000CEE08FF08F7FE8F
:105390007FCF6DE287E891E00E94CA1066277727E9
:1053A000CB016C197D098E099F094AE074CF812CCD
:1053B000912C81CFE12CF12C88CF87E491E00E94E1
:1053C000232384E491E00E94232321E0E216F104E8
:1053D00031F4809171018F5F8093710109C082E087
:1053E000E816F10429F4809170018F5F80937001B9
:1053F000C0907101D12CE0907001F12C08E120E601
:105400003AEE40E050E060E070E0CB0170C084E52F
:1054100091E00E94232384E491E00E942323EA94F4
:10542000EF28E1F580910001882389F080917601D1
:1054300090917701A0917801B091790180937201E8
:1054400090937301A0937401B093750114C0B0924E
:1054500000010E94A61760937601709377018093F4
:105460007801909379016093720170937301809336
:105470007401909375016091720170917301809134
:10548000740190917501C12CD12CE12CF12C04E612
:1054900028EE33E040E050E00E9414108A948928FE
:1054A00089F4809100018B2580930001882379F194
:1054B0000E94A6176093760170937701809378011C
:1054C000909379018091000181111DCF609172014B
:1054D000709173018091740190917501C12CD12C50
:1054E000E12CF12C04E628EE33E040E050E00E948D
:1054F000141009CF8091500290915102069709F43F
:1055000036CF10E084E292E00E94EA0329CF0E94A5
:10551000A617C0907201D0907301E0907401F090D2
:1055200075010091760110917701209178013091F9
:105530007901C01AD10AE20AF30ADC01CB018C0D11
:105540009D1DAE1DBF1D8093720190937301A093AA
:105550007401B0937501B6CF10928A01109289013F
:1055600088EE93E0A0E0B0E080938B0190938C01F3
:10557000A0938D01B0938E018FE191E0909388010B
:105580008093870185EC90E0909394018093930140
:1055900084EC90E0909396018093950180EC90E0EC
:1055A000909398018093970181EC90E090939A01F9
:1055B0008093990182EC90E090939C0180939B01F1
:1055C00086EC90E090939E0180939D011092A00143
:1055D0001092A1011092A2011092A3011092270231
:1055E0001092260281E391E0909325028093240299
:1055F00010922D0210922E028AE080932F0281E0F9
:105600008093300294E09093310280933A0223E039
:1056100030E0309329022093280280932A021092CE
:105620002B0210922C02E0E5F2E026E030E031831C
:105630002083128A118A138A15A214A216A210A618
:1056400017A281A716A615A610AA17A612AA11AA14
:10565000EE5BFF4F93E0E835F90749F784E080936C
:105660004D0308958F929F92AF92BF92CF92DF9297
:10567000EF92FF92CF93DF93EC01688179818A8169
:105680009B81611571058105910521F464E279ED35
:105690008BE597E02DE133EF41E050E00E94D42B01
:1056A00049015A019B01AC01A7EAB1E40E94F32B26
:1056B0006B017C01ACEEB4EFA50194010E94012CBA
:1056C000DC01CB018C0D9D1DAE1DBF1DB7FF03C0BE
:1056D0000197A109B04888839983AA83BB83BC0141
:1056E000CD019F77DF91CF91FF90EF90DF90CF902A
:1056F000BF90AF909F908F9008958F929F92AF929E
:10570000BF92CF92DF92EF92FF9260911101709160
:1057100012018091130190911401611571058105A9
:10572000910521F464E279ED8BE597E02DE133EF0B
:1057300041E050E00E94D42B49015A019B01AC0189
:10574000A7EAB1E40E94F32B6B017C01ACEEB4EF4D
:10575000A50194010E94012CDC01CB018C0D9D1D43
:10576000AE1DBF1DB7FF03C00197A109B0488093CC
:10577000110190931201A0931301B0931401BC0185
:10578000CD019F77FF90EF90DF90CF90BF90AF90CB
:105790009F908F90089560931101709312018093F0
:1057A0001301909314010895052E97FB1EF40094A5
:1057B0000E94EB2B57FD07D00E94062C07FC03D05C
:1057C0004EF40C94EB2B50954095309521953F4F1E
:1057D0004F4F5F4F089590958095709561957F4FDD
:1057E0008F4F9F4F08950E94282CA59F900DB49F26
:1057F000900DA49F800D911D11240895B7FF0C9466
:10580000F32B0E94F32B821B930B0895A1E21A2E17
:10581000AA1BBB1BFD010DC0AA1FBB1FEE1FFF1F54
:10582000A217B307E407F50720F0A21BB30BE40BA4
:10583000F50B661F771F881F991F1A9469F76095EB
:105840007095809590959B01AC01BD01CF010895A5
:10585000A29FB001B39FC001A39F700D811D1124B1
:10586000911DB29F700D811D1124911D0895AA1BD9
:10587000BB1B51E107C0AA1FBB1FA617B70710F03B
:10588000A61BB70B881F991F5A95A9F7809590956D
:10589000BC01CD01089597FB072E16F4009407D0A4
:1058A00077FD09D00E94372C07FC05D03EF4909577
:1058B00081959F4F0895709561957F4F0895EE0FE4
:1058C000FF1F0590F491E02D09940F931F93CF9340
:1058D000DF938230910510F482E090E0E091510373
:1058E000F091520320E030E0A0E0B0E0309719F1F1
:1058F000408151810281138148175907C8F08417EC
:10590000950769F4109731F012960C93129713963D
:105910001C9327C0009351031093520322C02115FA
:10592000310519F04217530718F49A01BD01EF0130
:10593000DF01F801DBCF21153105F9F0281B390B08
:105940002430310580F48A819B816115710521F035
:10595000FB019383828304C090935203809351038D
:10596000FE01329644C0FE01E20FF31F8193919332
:1059700022503109398328833AC020914F03309156
:105980005003232B41F420911701309118013093DB
:10599000500320934F0320911501309116012115DA
:1059A000310541F42DB73EB74091190150911A01CC
:1059B000241B350BE0914F03F0915003E217F307DE
:1059C000A0F42E1B3F0B2817390778F0AC014E5F6F
:1059D0005F4F2417350748F04E0F5F1F5093500359
:1059E00040934F038193919302C0E0E0F0E0CF0138
:1059F000DF91CF911F910F910895CF93DF9300977F
:105A000009F481C0FC01329713821282A0915103E4
:105A1000B0915203109781F420813181820F931F3E
:105A200020914F03309150032817390751F5F09317
:105A30005003E0934F0367C0ED0120E030E0CE1744
:105A4000DF0740F44A815B819E0141155105F1F069
:105A5000EA01F5CFD383C28340815181840F951F22
:105A6000C817D90759F488819981840F951F029628
:105A7000918380838A819B81938382832115310561
:105A800029F4F0935203E09351033DC0E901FB83F5
:105A9000EA8349915991C40FD51FEC17FD0761F4B2
:105AA00080819181840F951F0296E90199838883F3
:105AB000828193819B838A83E0E0F0E012968D914E
:105AC0009C911397009719F0FD01DC01F7CF8D91A0
:105AD0009C9111979D012E5F3F4F820F931F209144
