:100000000C948C030C94B4030C94B4030C94B403BC
:100010000C94B4030C94B4030C94B4030C94B40384
:100020000C94B4030C94B4030C94B4030C94B40374
:100030000C94B4030C94B4030C94B4030C94B40364
:100040000C94F3290C94B4030C9423120C94FD111A
:100050000C94B4030C94B4030C94B4030C94B40344
:100060000C94EA200C94B403AC05BD05C005C7058B
:10007000CA058A0CD105B007C708730A76095C0B5C
:10008000F50CF80C010DFF0C0A0D080D110D140DE7
:100090001B0D1E0D250D280D300D330D370D3A0D9E
:1000A000B805BD05C005C705CA05E00C3C073E08FC
:1000B0002509730A76095C0BF50CF80C010DFF0C91
:1000C0000A0D080D110D140D1B0D1E0D250D280D0B
:1000D000300D330D370D3A0D581C8D1CC71C0E1DED
:1000E000591DA11DE81D091E6C22C5226623662329
:1000F00015236623662366231F1C1F1E1F1E1F1F3A
:100100001E1F1E1F460100FF0800053E5B4F5B3EA1
:10011000053E6B4F6B3E051C3E7C3E1C05183C7E2D
:100120003C18051C577D571C051C5E7F5E1C040097
:10013000183C1805FFE7C3E7FF040018241805FF63
:10014000E7DBE7FF0530483A060E05262979292620
:1001500005407F05050705407F05253F055A3CE71B
:100160003C5A057F3E1C1C0805081C1C3E7F0514DC
:10017000227F2214055F5F005F5F0506097F017F14
:10018000046689956A0560606060600594A2FFA2BC
:10019000940508047E04080510207E201005080838
:1001A0002A1C0805081C2A0808051E101010100536
:1001B0000C1E0C1E0C0530383E383005060E3E0E67
:1001C00006020000015F0307000705147F147F1477
:1001D00005242A7F2A12052313086462053649562E
:1001E000205003080703031C22410341221C052A57
:1001F0001C7F1C2A0508083E08080380703005088B
:1002000008080808026060052010080402053E5135
:1002100049453E03427F400572494949460521410F
:10022000494D33051814127F1005274545453905FA
:100230003C4A4949310541211109070536494949D7
:100240003605464949291E01140280680408142213
:100250004105141414141404412214080502015910
:100260000906053E415D594E057C1211127C057F41
:1002700049494936053E41414122057F4141413EC0
:10028000057F49494941057F09090901053E414169
:100290005173057F0808087F03417F4105204041D5
:1002A0003F01057F08142241057F40404040057F03
:1002B000021C027F057F0408107F053E4141413E3C
:1002C000057F09090906053E4151215E057F09198F
:1002D00029460526494949320503017F0103053FA7
:1002E0004040403F051F2040201F053F4038403F11
:1002F0000563140814630503047804030561594970
:100300004D43037F41410502040810200341417F12
:100310000504020102040540404040400303070871
:10032000052054547840057F284444380538444417
:10033000442805384444287F053854545418040888
:100340007E09020518A4A49C78057F08040478039C
:10035000447D40044080807A047F10284403417F1C
:1003600040057C04780478057C080404780538444A
:1003700044443805FC182424180518242418FC05C6
:100380007C0804040805485454542404043F4424BD
:10039000053C4040207C051C2040201C053C403092
:1003A000403C054428102844054C9090907C05441E
:1003B00064544C4403083641017703413608050272
:1003C00001020402053C2623263C051EA1A1611260
:1003D0000538424022780538545455590521555561
:1003E0007941052154547841052155547840052020
:1003F0005455794005183CA4E42405395555555900
:1004000005385554555805395554545803457C41C1
:100410000402457D420401457C4005F0292429F071
:1004200005F0282528F0047C545545072054547CB9
:10043000545408067C0A097F494905324949493222
:1004400005304A484A3005324A484830053A414169
:10045000217A053A42402078049DA0A07D053845C8
:10046000444538053C4140413C053C24FF242405DB
:10047000487E494366052B2FFC2F2B05FF0929F6E3
:100480002005C0887E090305205454794103447D2A
:1004900041053048484A3205384040227A047A0AF9
:1004A0000A72057D0D19317D052629292F2805267B
:1004B000292929260530484D402005380808080814
:1004C000050808080838052F10C8ACBA052F1028F1
:1004D00034FA017B0508142A14220522142A140870
:1004E00005AA005500AA05AA55AA55AA05000000AC
:1004F00000FF0510101010FF0514141414FF051050
:1005000010FF00FF051010F010F00514141414FC77
:10051000051414F700FF050000FF00FF051414F494
:1005200004FC05141417101F0510101F101F0514CC
:100530001414141F0510101010F0050000001F10F7
:10054000051010101F1005101010F010050000000D
:10055000FF1005101010101005101010FF100500EE
:100560000000FF14050000FF00FF0500001F10172A
:10057000050000FC04F4051414171017051414F4F6
:1005800004F4050000FF00F70514141414140514F6
:1005900014F700F70514141417140510101F101F7A
:1005A00005141414F414051010F010F00500001FC9
:1005B000101F050000001F1405000000FC140500BA
:1005C00000F010F0051010FF10FF05141414FF14B4
:1005D00005101010101F05000000F01005FFFFFFB0
:1005E000FFFF05F0F0F0F0F003FFFFFF0500000053
:1005F000FFFF050F0F0F0F0F053844443844057CEB
:100600002A2A3E14057E0202060605027E027E02AA
:10061000056355494163053844443C0405407E2048
:100620001E200506027E02020599A5E7A599051C74
:100630002A492A1C054C7201724C05304A4D4D3036
:1006400005304878483005BC625A463D043E494969
:1006500049057E0101017E052A2A2A2A2A054444E9
:100660005F44440540514A44400540444A514005D6
:100670000000FF010303E080FF0508086B6B08051D
:10068000361236243605060F090F06040000181826
:100690000400001010053040FF010105001F01019A
:1006A0001E0500191D171205003C3C3C3C05FF814E
:1006B0008181FF05FFFFFFFFFF00000000240027EE
:1006C000002A0000000000250028002B0000000088
:1006D0000023002600290004040404040404040286
:1006E00002020202020303030303030102040810CF
:1006F000204080010204081020010204081020009C
:1007000000000800020100000304070000000000D0
:1007100000000000CE2E3D2A11241FBECFEFD8E0EE
:10072000DEBFCDBF11E0A0E0B1E0ECE8F9E602C029
:1007300005900D92A03BB107D9F724E0A0EBB1E002
:1007400001C01D92AD36B207E1F713E0CBE8D3E06C
:1007500004C02197FE010E947F30CA38D107C9F733
:100760000E948D2A0C94B9340C940000CF93DF932F
:1007700000D0CDB7DEB769831A82DC01ED91FC9120
:100780000084F185E02DBE016F5F7F4F099581E008
:1007900090E00F900F90DF91CF910895089580E041
:1007A00090E008950F931F93FC01678F062F10E0D0
:1007B00022E030E042A161A1808191810E94BB28AA
:1007C0001F910F9108950F931F939B018A01FC01C4
:1007D0004185415060E00E94BB281F910F91089510
:1007E0002F923F924F925F926F927F928F929F9241
:1007F000AF92BF92CF92DF92EF92FF920F931F932F
:10080000CF93DF93CDB7DEB760970FB6F894DEBF16
:100810000FBECDBF3C019C012C5F3F4F3C872B8717
:1008200040E050E06AE070E0C9010E94E3031F82EB
:100830001886B301665D7E4F7E876D8782E4382E11
:10084000AD85BE858C91BF81B81710F00C94CA0F8E
:100850004B2E512CF3013B9EE00DF11D1124FA8328
:10086000E983EF5BFF4F1082A981BA819C968D913D
:100870009C919D978630910509F446C0059731F10A
:100880000E94E729349CF001359CF00D1124FA8375
:10089000E9838F01060D171DD8019496CD90DD9048
:1008A000ED90FC909797AB01BC014C195D096E0966
:1008B0007F0998968D919C919997A0E0B0E0481798
:1008C00059076A077B0708F456C018C00E94E72939
:1008D000E981FA8104A115A126A137A1AB01BC01D0
:1008E000401B510B620B730B82A593A5A0E0B0E0F7
:1008F000481759076A077B07F0F1C2CFD8019396D2
:100900008C91811138C008C081E09885982B988718
:10091000AF81AF5FAF8394CF0E94E729F80164A352
:1009200075A386A397A381E0EF5BFF4F80833A9680
:10093000C080D180C114D10489F0E981FA81B196D7
:10094000E60DF71DFA87E987D8019C968D919C9159
:100950009D97009791F0069709F0DCC0349CF00158
:10096000359CF00D1124E60DF71D81E024A535A579
:100970002630310551F280E0C8CFF801E35BFF4F2C
:10098000D182C0825301EF81B2E4EB9FA00CB11C75
:100990001124F2E4AF0EB11CD5018C91F801ED5B8E
:1009A000FF4F8080B8E08B9E90011124295F3F4F5C
:1009B0004901E8E08E9F801891081124FFEF8F1AFB
:1009C0009F0AE12CF12C98012D5A3F4F3A8329833D
:1009D000B8016E5A7F4F7E836D830B5A1F4FD6012D
:1009E0006D916D016623C9F0E981FA812081318121
:1009F000AD81BE814C9189859A850E94062690E042
:100A0000E80EF91E892B59F3F6018081882339F30A
:100A1000D8018C91E80EF11CE2CF349CF001359C9A
:100A2000F00D1124E60DF71DF7A6E6A685A996A9F7
:100A300081309105B9F118F00297C9F05FC0DF016C
:100A4000AD5BBF4F8C9190E0019603E0880F991F3A
:100A50000A95E1F79C012150310931AB20AB8E148E
:100A60009F0470F18E199F0993AB82AB47C0D501EB
:100A70008C91B8E08B9FC001112493AB82AB8E1494
:100A80009F0460F4DF01AD5BBF4F8C9128E0829F33
:100A9000C0011124079691AB80AB1AC00197E80EF4
:100AA000F91E2AC08E149F04A8F4DF01AD5BBF4F6E
:100AB0008C9138E0839FC0011124079691AB80ABE5
:100AC000D5018C91B8E08B9FC001112493AB82AB10
:100AD00080E015C0D5018C918E189F08969487945C
:100AE000B8E08B9F800C911C112493AA82AA21E06C
:100AF000E21AF108E80CF91CF1AAE0AA81E0349CA2
:100B0000F001359CF00D1124E60DF71D91E08927C9
:100B100084AB93AF349CF001359CF00D1124E60DAD
:100B2000F71D23AC222061F007A8F0ADE02D31972E
:100B3000EC31F10508F0A5C7EC5CFF4F0C947F3059
:100B400001ACF2ADE02D3197EC31F10508F099C719
:100B5000E05BFF4F0C947F3089859A850E948D124F
:100B6000349CF001359CF00D1124E60DF71D83C275
:100B700089859A850E94512484C7422D61E002C074
:100B8000422D60E089859A850E94AF1385C7422D6A
:100B900061E002C0422D60E089859A850E94A3161B
:100BA0007BC7349C7001359CF00C112483010E0D21
:100BB0001F1D68019CE2C90ED11CD8019C968D9125
:100BC0009C919D978230910561F45801B6E5AB0E7A
:100BD000B11C015B1F4FE6E5EE0EF11CE60CF71CA5
:100BE0004EC08230910520F0039709F464C041C1E2
:100BF000F6E5EF0EF11CB3016E0D7F1D89859A8518
:100C00000E940727882309F46EC389859A850E946C
:100C10005124F801E95AFF4F11821082C201019656
:100C2000389EF001399EF00D1124E60DF71D8081EC
:100C3000F801EC5BFF4F28E0829FC00111249183F3
:100C40008083D801D0968D919C91D19735969183D0
:100C5000808346C4B70189859A850E94C226811186
:100C600005C0E5E0F0E0D601ED93FC93D5018C9151
:100C700081110CC0F60180819181059739F0D50171
:100C80001C92F80180818111ECCFE4CF349CF001FB
:100C9000359CF00D1124E60DF71D84A595A505974B
:100CA00009F4FAC6DF01A95ABF4F1D921C9283E0D6
:100CB00090E095A784A7349C9001359C300D1124B9
:100CC000260D371D3A832983690134E4C30ED11CF4
:100CD000D6016D917C91E981FA81E75BFF4F20811C
:100CE0003181E981FA81ED5AFF4F7F0109811A8133
:100CF000095A1F4F6217730761F5A981BA81DC9603
:100D00008C91882359F00190F081E02DD8018D91CC
:100D10009C91E80FF91F4081409509C00190F08136
:100D2000E02DD8018D919C91E80FF91F4081349CF2
:100D3000F001359CF00D1124E60DF71DFA83E983CF
:100D400081A192A10E940025E5E0F0E0A981BA818D
:100D5000F7C50190F081E02DD8018D919C91E80FAD
:100D6000F91F8081811104C0F6013183208331C0D5
:100D7000A981BA81DC964C91DC97419591968D9131
:100D80009C9192970E940025F601608171816F5FAE
:100D90007F4F71836083A981BA81DC964C91F70102
:100DA00020813181D8018D919C91F901E80FF91FC3
:100DB000442319F04081409501C04081349CF001EA
:100DC000359CF00D1124E60DF71D81A192A10E9422
:100DD0000025349CC001359C900D1124860D971D73
:100DE000DC01AC5BBF4F2D913C9111978C01075BEF
:100DF0001F4FF801408151812417350701F5B201D9
:100E00006F5F7F4F369EA001379E500D1124460D17
:100E1000571DFA014081F8E04F9FA001112411965F
:100E20005C934E9353964D915C9111974F5F5F4F3A
:100E30004D935C9321503109D8012D933C93349C00
:100E4000F001359CF00D1124E60DF71D9F01295A84
:100E50003F4FAF014A5A5F4FDA018C9190E0D901C0
:100E60002D913C912817390709F016C682E090E0D1
:100E700011C625E030E0C0C1349CF001359CF00D76
:100E80001124E60DF71D84A595A58130910508F480
:100E90005FC08430910590F0059709F059C080A992
:100EA00091A9DF01A75BBF4F11969C938E93159775
:100EB0008D939C9383E090E095A784A7349CF001E8
:100EC000359CF00D1124E60DF71D81A092A084AD94
:100ED000882321F0AA24AA94B12C02C0A12CB12C01
:100EE000349CB001359C700D1124660D771D7A83FA
:100EF00069837B0174E4E70EF11CC980DA8089E420
:100F0000C80ED11CA981BA81D296BA83A983F701F0
:100F100000811181602FC4010E944A24282F30E0F3
:100F20002A153B0509F0D3C5D6012D913C91E981E5
:100F3000FA8140815181241735070CF4C8C5C901D5
:100F40000197D6018D939C93F70131832083DFCFE6
:100F5000349CF001359CF00D1124E60DF71D2DC5D4
:100F6000349CF001359CF00D1124E60DF71D84A58D
:100F700095A58430910560F4019768F4DF01AC5BBE
:100F8000BF4F1D921C9283E090E095A784A703C0F9
:100F9000059709F070C089859A850E94512489853A
:100FA0009A850E948D12C2010196389EF001399EE9
:100FB000F00D1124E60DF71D9080990C990C990CF9
:100FC00088248394349CB001359C700D1124660DE7
:100FD000771D7E836D836D5B7F4F7A8369830D817F
:100FE0001E810C5B1F4FAD80BE8071E2A70EB11C4D
:100FF00022242394A981BA818C9190E0019673E018
:10100000880F991F7A95E1F7C92CD12CC816D906FB
:101010001CF5F501E080F180692DC7010E944A248A
:10102000482F50E0D8018D919C91E7E0F0E0E81B5B
:10103000F90B882031F002C055954795EA95E2F703
:1010400004C001C0440FEA95EAF7B601C7010E9447
:10105000002582249394CECFD8018D919C91119735
:1010600001968D939C93089709F016C525E030E012
:10107000ED81FE81C2C065E070E0B4C4349CF00133
:10108000359CF00D1124E60DF71D84A595A584303F
:10109000910518F4019720F015C0059709F08DC44B
:1010A000349CF001359CF00D1124E60DF71DDF0195
:1010B000AC5BBF4F81E090E08D939C9383E090E028
:1010C00095A784A7C2010196389EF001399EF00DC4
:1010D0001124E60DF71D9080990C990C990C882429
:1010E0008394349CD001359CB00D1124A60DB71DFE
:1010F000BE83AD83AD5BBF4FBA83A9830D811E81D3
:101100000C5B1F4FAD80BE80B1E2AB0EB11C222440
:101110002394E981FA81808190E0019663E0880F51
:10112000991F6A95E1F7C92CD12CC816D9060CF580
:10113000D501ED90FC90692DC7010E944A24482FEB
:1011400050E0882041F0F801008002C0440F551F94
:101150000A94E2F707C0D8010C9002C05595479554
:101160000A94E2F7B601C7010E94002582249394F5
:10117000D0CFF80180819181019691838083089777
:1011800009F08AC4E6E0F0E0AD81BE81D9C3349CA9
:101190008001359C100D1124060D171DD8019C9659
:1011A0008D919C919D978430910580F482309105BA
:1011B00038F5009771F0019709F03FC0F801EC5B3A
:1011C000FF4F60817181CB01019665C00597C1F029
:1011D00034C0F801EC5BFF4F118210823596A9856F
:1011E000BA855F968C915F9790E091838083CD0163
:1011F0000E94512421E030E0F80135A724A74CC417
:10120000349CF001359CF00D1124E60DF71D9F0173
:101210002C5B3F4FD9016D917C91CF01875B9F4F34
:10122000DC018D919C91861797070CF470C3CB015C
:101230000196D9018D939C9351C0349CF001359C4B
:10124000F00D1124E60DF71D62C3349C8001359C1E
:10125000100D1124060D171DD8019C968D919C919F
:101260009D978430910518F4019718F01FC00597D9
:10127000D1F5E985FA85678D862F90E0349C800151
:10128000359C100D1124060D171DF801E75BFF4F6B
:101290009183808335979183808389859A850E9485
:1012A000D20389859A850E948D12F2C1F801EC5B08
:1012B000FF4F6081718177FF0DC035966081898510
:1012C0009A850E94D20389859A850E94512426E03E
:1012D00030E092CFCB0101979183808389859A85F5
:1012E0000E94D203D9C3E6E0F0E029C3349CF001A8
:1012F000359CF00D1124E60DF71D84A595A58230CF
:10130000910509F482C028F4009751F00197C1F0CB
:10131000B3C28330910509F4C3C1059709F0ACC28B
:10132000349CF001359CF00D1124E60DF71DDF0112
:10133000AC5BBF4F1D921C9221E030E035A724A783
:10134000349C8001359C100D1124060D171D780169
:1013500034E4E30EF11CD7018D919C911197019615
:101360008D939C93C2010196389EF001399EF00D39
:101370001124E60DF71DB08128E0B29FF001112481
:10138000FE83ED83680198012D5B3F4F3A832983EB
:10139000470158013CE3A30EB11C2224239451E2DF
:1013A000C50ED11CA981BA818C9190E0019653E0C1
:1013B000880F991F5A95E1F7ED81FE81E817F9072B
:1013C000D4F4D4012D913C91CF01837099278217D9
:1013D00093075CF4F5014081422541956D817E8142
:1013E000D6018D919C910E940025ED81FE81319660
:1013F000FE83ED83D7CFD7018D919C91049709F09F
:101400004BC382E090E0F80145C389859A850E942C
:101410005124222021F089859A850E948D12349CC6
:101420008001359C100D1124060D171D6801F4E490
:10143000CF0ED11CD6018D919C91119701978D9360
:101440009C93C2010196389EF001399EF00D112443
:10145000E60DF71DB08128E0B29FF0011124FE8354
:10146000ED83780198012D5B3F4F3A832983460134
:1014700058013CE3A30EB11C2224239451E2E50E53
:10148000F11CA981BA818C9190E0019643E0880F0C
:10149000991F4A95E1F7ED81FE81E817F907D4F429
:1014A000D4012D913C91CF01837099278217930726
:1014B0005CF4F5014081422541956D817E81D70123
:1014C0008D919C910E940025ED81FE813196FE83D5
:1014D000ED83D7CFD6018D919C91892B09F0DCC289
:1014E00083E090E090CF349CF001359CF00D112406
:1014F000E60DF71D84A595A58230910509F464C019
:1015000038F08330910509F4CBC0059709F0B4C1D8
:10151000C2010196389EF001399EF00D1124E60DAE
:10152000F71D208188E0289FB00111247A83698308
:10153000349C8001359C100D1124060D171D580197
:1015400073E4A70EB11C68018CE3C80ED11CD8014E
:1015500091967D01F501808190E0019633E0880F3E
:10156000991F3A95E1F729813A81281739074CF5F7
:10157000D6019C906981992039F0F7018081918191
:101580000E944A24809505C0D7018D919C910E94AC
:101590004A24B981B0FD02C09AEA01C095E5482FFE
:1015A000492B9110409569817A81F7018081918161
:1015B0000E94002529813A812F5F3F4F3A8329837A
:1015C000C9CF82E090E066C089859A850E94512447
:1015D000222021F089859A850E948D12C2010196F0
:1015E000389EF001399EF00D1124E60DF71DB081F3
:1015F00028E0B29FF0011124FA83E983349C800132
:10160000359C100D1124060D171D5801F3E4AF0E83
:10161000B11C68012CE3C20ED11CB8016F5D7F4F75
:101620007B01D5018C9190E0019623E0880F991FF2
:101630002A95E1F7E981FA81E817F9074CF5D60117
:101640009C906981992039F0F701808191810E94F5
:101650004A24809505C0D7018D919C910E944A240F
:10166000B981B0FD02C095E501C09AEA482F492B27
:101670009110409569817A81F701808191810E9462
:10168000002529813A812F5F3F4F3A832983C9CFB3
:1016900083E090E0D8019D969C938E939C97FCC12B
:1016A00089859A850E945124222009F4E7C0898502
:1016B0009A850E948D12E5C0349CF001359CF00D96
:1016C0001124E60DF71D84A595A58430910518F425
:1016D000019720F015C0059709F0CEC0E4EBF1E0CA
:1016E0001192B1E0EF3BFB07D9F7349CF001359C38
:1016F000F00D1124E60DF71D83E090E095A784A777
:10170000349C8001359C100D1124060D171DF80125
:10171000EC5BFF4F118210828F010E94B12F4B01B1
:101720005C010E94B12F69837A838B839C83F801CB
:10173000C080D180FFEFCF1ADF0AD801CD92DC92B2
:10174000C501B4012BE030E040E050E00E940830D9
:1017500070E0FB01EC54FE4F7F01B08069817A811B
:101760008B819C8128E030E040E050E00E9408300E
:101770008B2D90E0062E02C0959587950A94E2F78E
:1017800080FD30C081E090E001C0880F6A95EAF7E3
:10179000B82AD701BC9289859A850E948D12349C03
:1017A0006001359CD00C1124C60CD71CF601EC5BF3
:1017B000FF4FFA83E98311821082C2010196389E9D
:1017C000F001399EF00D1124E60DF71D9080990C63
:1017D000990C990C5601F3E4AF0EB11C21E2C20E34
:1017E000D11C27C038E8C31633E1D3060CF495CFDB
:1017F000C9CFF60100811181692DC8010E944A24D8
:10180000A981BA81ED91FC91EC54FE4F222021F187
:1018100040814823B701C8010E940025E981FA816F
:101820008081918101968B309105D1F091838083E5
:101830009394D5018C9190E00196B3E0880F991FA5
:10184000BA95E1F7E92CF12CE816F90694F2E4EBED
:10185000F1E02CEB31E00CC09081492F4095D9CFBD
:10186000A981BA811D921C92E3CF2E173F0721F068
:1018700081918F3FD1F310C1211003C086E090E029
:1018800002C085E090E0349CF001359CF00D1124FD
:10189000E60DF71DFFC0E981FA81EA5BFF4F808109
:1018A0008F5F8083082E000C990B29813A812F5974
:1018B0003F4FD9012C9130E0821793070CF0108232
:1018C000C2010196389EF001399EF00D1124E60DFB
:1018D000F71D8081349CF001359CF00D1124E60D3C
:1018E000F71DAF014C5B5F4FB8E08B9FC001112427
:1018F000BF01615A7F4FDB012C91821B9109019737
:10190000DA012D913C912817390709F0C5C025E06F
:1019100030E073CC349C8001359C100D1124060DF1
:10192000171DD8019C968D919C919D9784309105AF
:1019300008F431C1059709F470C1E5E0F0E0D80181
:101940009D96FC93EE939C97A7C0E981FA81EA5B90
:10195000FF4F80818F5F8083082E000C990B2981B7
:101960003A812E593F4FD9012C9130E082179307CD
:101970000CF01082349CF001359CF00D1124E60D22
:10198000F71DAF014C5B5F4F9F012D5B3F4FD901AE
:101990008C91B8E08B9FC00111240796BF01605A5B
:1019A0007F4FDB012C91820F911D0196DA012D9161
:1019B0003C912817390709F06FC026E030E01DCCB4
:1019C000349CF001359CF00D1124E60DF71D84A523
:1019D00095A58430910508F4DAC1059709F4DAC1B8
:1019E00066E070E075A764A757C0422D60E002C0B2
:1019F000422D61E089859A850E94ED124DC041E03B
:101A000001C040E0622D89859A850E94F01444C08F
:101A100041E001C040E0622D89859A850E942C1426
:101A20003BC0422D60E002C0422D61E089859A856D
:101A30000E948C1531C0422D60E002C0422D61E051
:101A400089859A850E940A2527C0222D41E002C07F
:101A5000222D40E061E089859A850E946C241CC09B
:101A6000222D41E002C0222D40E060E0F4CF422D63
:101A700061E002C0422D60E089859A850E9430189D
:101A80000BC0349CF001359CF00D1124E60DF71DC0
:101A900086E090E095A784A7349CF001359CF00D7A
:101AA0001124E60DF71D83AD882339F081E024A5CC
:101AB00035A52530310509F480E0349CF001359CD2
:101AC000F00D1124E60DF71D83AF0C94AE04349C89
:101AD000F001359CF00D1124E60DF71DDF01A75B29
:101AE000BF4F2D913C912F5F3F4F42A953A924171F
:101AF00035070CF462CFED5BFF4F208158E0259F46
:101B000090011124295F3F4F021713073CF4B801DD
:101B10006F5F7F4F482FC4010E940025349C8001D5
:101B2000359C100D1124060D171DD801DC964C9123
:101B3000DC974195F801EC5BFF4FFA83E983608104
:101B4000718191968D919C9192970E940025E981D7
:101B5000FA81208131812F5F3F4F31832083F8014B
:101B6000ED5BFF4F808190E00196A3E0880F991F05
:101B7000AA95E1F72817390709F08ECF36968081AC
:101B800091819C012150310931832083A981BA813F
:101B90008D939C9381CF019708F03FC089859A85EA
:101BA0000E947927D801A95BBF4F8D919C91119715
:101BB000F801E75BFF4F208131818217930724F4FE
:101BC0002D933C9391838083349CF001359CF00DE0
:101BD0001124E60DF71DDF01A55ABF4F8D919C9191
:101BE000892B09F4EACEDF01AA5BBF4F1C929F014B
:101BF0002C5B3F4FCF018D5B9F4FDC018C9190E0C0
:101C00000196A3E0880F991FAA95E1F7D9018D935A
:101C10009C9383E090E095A784A789859A850E948C
:101C20008D12349C6001359CD00C1124C3018C0DA5
:101C30009D1DFC01EC5BFF4FF88BEF87208131810C
:101C40002150310931832083212C9C01215A3F4F9F
:101C50003A832983FE83ED83BC016D5B7F4F7A87D6
:101C6000698792012F5F3F4F329E4001339E900C57
:101C70001124860C971C5C017CE3A70EB11C8C011F
:101C80000A5B1F4FDC01A55ABF4F7D016C01B1E219
:101C9000CB0ED11CE981FA814081241608F047C09F
:101CA000822D90E0AD81BE816D917C91680F791F8E
:101CB000E985FA85208130E02F5F3F4FE3E0220F76
:101CC000331FEA95E1F7621773077CF5D4012C9175
:101CD000B8E02B9F900111246217730734F1F501CE
:101CE0002081222381F0D8012C912403F0011124BA
:101CF0008E0F9F1FD701ED91FC91E80FF91FE49122
:101D00004E2F40950DC0F80120812403F0011124CD
:101D10008E0F9F1FD701ED91FC91E80FF91F4491A1
:101D2000F601808191810E9400252394B3CFAF8575
:101D3000B8890D911C9101501109349CF001359C1A
:101D4000F00D1124E60DF71DFA83E9835F01F9E434
:101D5000AF0EB11CC980DA802CE3C20ED11CE98021
:101D6000FA8031E2E30EF11CD5018D919C910817A8
:101D700019070CF490CDF60140814195B801D701C7
:101D80008D919C910E94002501501109EDCF019782
:101D900008F046C089859A850E947927349CF00115
:101DA000359CF00D1124E60DF71DDF01A95BBF4F37
:101DB0008D919C911197E75BFF4F208131818217B4
:101DC000930724F42D933C9391838083349CF001FA
:101DD000359CF00D1124E60DF71DDF01A35ABF4F0E
:101DE0008D919C91892B09F4E8CDC2010196389E12
:101DF000D001399EB00D1124A60DB71D8C91DF01C5
:101E0000AC5BBF4F38E0839FC0011124019711964E
:101E10009C938E9312961C9283E090E095A784A7E2
:101E200089859A850E948D12349C6001359CD00C66
:101E30001124C3018C0D9D1DBC016C5B7F4F788B01
:101E40006F87DB012D913C9111972F5F3F4F2D93B1
:101E50003C93212CFC01E05AFF4FFA83E9837E83F7
:101E60006D839C012D5B3F4F3A87298792012F5F3D
:101E70003F4F329E4001339E900C1124860C971CDC
:101E80005C013CE3A30EB11C8C010A5B1F4F675E33
:101E90007F4F7B016C0171E2C70ED11CA981BA8111
:101EA0004C91241608F046C0822D90E0ED81FE8111
:101EB00060817181681B790BA985BA852C9130E00E
:101EC0002F5F3F4F53E0220F331F5A95E1F7621700
:101ED000730774F5F4012081F8E02F9F900111241D
:101EE000621773072CF1D5012C91F801222379F0A8
:101EF00020812403F00111248E0F9F1FD701ED9143
:101F0000FC91E80FF91FE4914E2F40950CC0208101
:101F10002403F00111248E0F9F1FD701ED91FC9136
:101F2000E80FF91F4491F601808191810E940025FC
:101F30002394B4CFAF85B8890D911C91041B11096E
:101F4000349CF001359CF00D1124E60DF71DFA8349
:101F5000E9835F01F9E4AF0EB11CC980DA802CE39C
:101F6000C20ED11CE980FA8031E2E30EF11CD501EA
:101F70008D919C91081719070CF4E7CCF60140816C
:101F80004195B801D7018D919C910E940025015087
:101F90001109EDCF41E050E06AE070E08B859C854F
:101FA0000E94E303888560960FB6F894DEBF0FBEEB
:101FB000CDBFDF91CF911F910F91FF90EF90DF90F8
:101FC000CF90BF90AF909F908F907F906F905F90D9
:101FD0004F903F902F900895CF92DF92EF92FF9213
:101FE0000F931F93CF93DF93EC0181E08093DE0189
:101FF00088E68093E0011092DF011092E10160E039
:1020000085E092E00E946A1F81E00E948E2067E0D6
:1020100088E60E944C201092D9018093D80185E077
:1020200092E00E94211F8F77982F92959F701AEF50
:10203000082F919F000D112485E092E00E94211F3E
:102040009C01332794E0359527959A95E1F7F82E72
:10205000129FF00C112485E092E00E94211F9C0148
:10206000332744E0359527954A95E1F7E82E129FEE
:10207000E00C112485E092E00E94211F85E092E0AF
:102080000E94211F9C01332754E0359527955A95CE
:10209000E1F7D82E129FD00C112485E092E00E9427
:1020A000211F9C01332764E0359527956A95E1F758
:1020B000C82E129FC00C112485E092E00E94211FBF
:1020C0009C01332774E0359527957A95E1F7129FA7
:1020D000800D11248883C982DA82EB82FC820D8311
:1020E000CE01DF91CF911F910F91FF90EF90DF9084
:1020F000CF900895EF92FF920F931F93CF93DF93AA
:10210000EC0169813881432F50E08A8190E0E8EF4B
:10211000F0E021E0261730F47491870F911D2F5FB6
:102120003196F8CF633018F0337009F401966DE6FC
:1021300071E0469F9001479F300D569F300D11244E
:10214000215031094D5F5F4F5695479556954795FC
:10215000240F351F280F391FA8E1B0E00E945C3022
:102160002B817B018C01E20EF11C011D111DA801C8
:102170009701ACE3B0E00E9427302C817B018C01F9
:10218000E20EF11C011D111DA80197010E942730CC
:102190002D81620F711D811D911DDF91CF911F91C6
:1021A0000F91FF90EF900895CF92DF92EF92FF9200
:1021B000CF93DF93D82F0E945329892B19F080E009
:1021C00090E03EC00E94E7296B017C01C0E08D2FAA
:1021D0000E945329892B79F40E94E729DC01CB0165
:1021E0008C199D09AE09BF098D329140A105B10539
:1021F00070F3C1E0ECCFC11121C00E94E729C0906B
:10220000B001D090B101E090B201F090B301DC01D7
:10221000CB018C199D09AE09BF09C397A105B10572
:1022200070F20E94E7296093B0017093B10180932E
:10223000B2019093B30181E090E002C082E090E0AF
:10224000DF91CF91FF90EF90DF90CF900895CF92E4
:10225000DF92EF92FF920F931F93CF93DF936C0166
:102260007A018B01C0E0D0E0CE15DF0581F0D80106
:102270006D918D01D601ED91FC910190F081E02DE1
:10228000C6010995892B11F02196EECF7E01C70179
:10229000DF91CF911F910F91FF90EF90DF90CF9042
:1022A0000895FC01538D448D252F30E0842F90E05C
:1022B000821B930B541710F0CF9608950197089541
:1022C000FC01918D828D981761F0828DDF01A80F3E
:1022D000B11D5D968C91928D9F5F9F73928F90E060
:1022E00008958FEF9FEF0895FC01918D828D9817CF
:1022F00031F0828DE80FF11D858D90E008958FEF0C
:102300009FEF08950E94BA3181E192E00E94551238
:1023100021E0892B09F420E0822F0895EF92FF92AB
:102320000F931F93CF93DF93EC0181E0888F9B8DF8
:102330008C8D981305C0E889F989808185FD26C0B8
:10234000F62E0B8D10E00F5F1F4F0F731127E02E3D
:102350008C8DE8120CC00FB607FCFACFE889F9891A
:10236000808185FFF5CFCE010E946B12F1CF8B8D5E
:10237000FE01E80FF11DE35AFF4FF0829FB7F8947A
:102380000B8FEA89FB89808180620AC09FB7F8942D
:10239000EE89FF896083E889F98980818370806490
:1023A00080839FBF81E090E0DF91CF911F910F91DB
:1023B000FF90EF900895CF93DF93EC01888D8823F1
:1023C000C9F0EA89FB89808185FD05C0A889B989A2
:1023D0008C9186FD0FC00FB607FCF5CF808185FF7D
:1023E000F2CFA889B9898C9185FFEDCFCE010E94EB
:1023F0006B12E7CFDF91CF9108951F920F920FB626
:102400000F9211242F933F934F935F936F937F937A
:102410008F939F93AF93BF93EF93FF9381E192E0EC
:102420000E946B12FF91EF91BF91AF919F918F919D
:102430007F916F915F914F913F912F910F900FBEC0
:102440000F901F9018951F920F920FB60F921124A4
:102450002F938F939F93EF93FF93E0912102F0913D
:1024600022028081E0912702F091280282FD12C0B1
:10247000908180912A028F5F8F7320912B028217A7
:1024800051F0E0912A02F0E0EF5EFD4F958F8093CE
:102490002A0201C08081FF91EF919F918F912F912E
:1024A0000F900FBE0F901F901895FC01918D228DFB
:1024B000892F90E0805C9F4F821B91098F73992731
:1024C000089580E090E0892B29F00E948411811109
:1024D0000C9400000895FC01848DDF01A80FB11D4C
:1024E000A35ABF4F2C91848D90E001968F7399274A
:1024F000848FA689B7892C93A089B1898C91837028
:1025000080648C93938D848D981306C00288F38920
:10251000E02D80818F7D80830895CF92DF92EF92AE
:10252000FF920F931F93CF93DF93EC010E945124EE
:10253000CF84D8887E0185E3E80EF11CB701CE0177
:102540000E9407271FAA1EAA860189899A8908174F
:102550001907D4F18DA9282F30E04EA95FA94217A1
:10256000530711F081110AC01DAA8EA5811104C064
:10257000B701CE010E94C2261FAA1EAA8DA98823D8
:1025800021F34B8D8EA99FA92AA93BA9442359F079
:10259000AC014F5F5F4F5FAB4EABF901E80FF91F26
:1025A0004081409509C0AC014F5F5F4F5FAB4EABC0
:1025B000F901E80FF91F4081B801888199810E94D3
:1025C000002501501109C1CFDF91CF911F910F91CB
:1025D000FF90EF90DF90CF900895FF920F931F939D
:1025E000CF93DF93EC01F62E8B859C85442309F471
:1025F00057C08430910550F4019758F4CE010E94E1
:10260000792783E090E09C878B8703C0059709F0CA
:1026100044C08B859C85059721F483E090E09C87DE
:102620008B87CE010E948D120BA11CA12DA188A524
:1026300099A5820F911D27FD9A950817190769F032
:102640004B8D4195B801888199810E9400258DA10B
:10265000080F111D87FD1A95E9CFFF2069F06BA1C6
:102660007CA10617170741F04B8D81E04827419563
:10267000888199810E9400254BA15CA19DA1892F91
:10268000990F990B28A539A5280F391F4217530711
:1026900009F056C025E030E051C085E090E057C019
:1026A0008430910518F4019720F00AC0059709F0CD
:1026B0004CC0CE010E94792783E090E09C878B87F5
:1026C000CE010E948D120EA11FA16BA17CA18DA134
:1026D000082E000C990B9B01280F391F02171307B6
:1026E00069F04B8D4195B801888199810E94002540
:1026F0008DA1080F111D87FD1A95E7CFFF2079F0F6
:1027000028A539A5820F931F6817790741F04B8DD3
:1027100081E048274195888199810E9400254BA13D
:102720005CA19DA1892F990F990B28A539A5280F88
:10273000391F4217530721F426E030E03C872B87EE
:10274000840F951F9CA38BA304C086E090E09C8718
:102750008B87DF91CF911F910F91FF900895EF929A
:10276000FF920F931F93CF93DF93EC01F62E8B858F
:102770009C854423F1F18430910598F4019798F4F5
:102780001CA21BA200E010E02BE030E04AA169A1EE
:10279000888199810E94BB2883E090E09C878B8789
:1027A00002C0059719F5CE010E945124CE010E9466
:1027B0008D121BA1FF2021F093E0E92EF12C03C024
:1027C00082E0E82EF12C173048F497014AA169A164
:1027D000888199810E9440221F5FF5CF8BA19CA127
:1027E0008730910551F525E030E025C085E090E087
:1027F0002AC08430910518F4019718F008C0059795
:1028000001F51CA21BA283E090E09C878B87F1104E
:1028100003C023E030E002C022E030E04AA169A119
:10282000888199810E9440228BA19CA187309105CB
:1028300021F426E030E03C872B8701969CA38BA3F4
:1028400004C086E090E09C878B87DF91CF911F9139
:102850000F91FF90EF900895CF92DF92EF92FF9249
:102860001F93CF93DF93EC01D42E8B859C85662339
:1028700009F452C08430910560F4019768F4CE01E8
:102880000E9479271CA21BA283E090E09C878B8783
:1028900003C0059709F03DC0CE010E948D122BA107
:1028A0003CA128303105A9F1EEA0FFA081E090E025
:1028B00001C0880F2A95EAF7182FD11010952DA185
:1028C00088A599A5820F911D27FD9A95E816F9060E
:1028D000E1F08B8DC880D9806E2D882339F0C60138
:1028E0000E944A24412F4095842B04C0C6010E94B7
:1028F0004A248123482FB701C6010E9400258DA1DB
:10290000E80EF11C87FDFA94DACF8BA19CA1019609
:1029100058C085E090E05AC08430910518F40197C2
:1029200020F00EC0059709F04FC0CE010E94792714
:1029300087E090E09CA38BA383E090E09C878B874B
:10294000CE010E948D128BA19CA197FD06C011E0C3
:1029500001C0110F8A95EAF701C010E0EEA0FFA0B8
:10296000D11010952DA188A599A5820F911D27FD45
:102970009A95E816F906E1F08B8DC880D9806E2D06
:10298000882339F0C6010E944A24412F4095842BA8
:1029900004C0C6010E944A248123482FB701C60102
:1029A0000E9400258DA1E80EF11C87FDFA94DACF74
:1029B0008BA19CA197FF04C026E030E03C872B87C9
:1029C00001979CA38BA304C086E090E09C878B8733
:1029D000DF91CF911F91FF90EF90DF90CF900895FE
:1029E000FF920F931F93CF93DF93EC01F42E8B850F
:1029F0009C85662309F442C08430910550F4019708
:102A000050F4CE010E94792783E090E09C878B8769
:102A100002C0059781F5CE010E948D122BA13CA129
:102A200088A599A52817390731F10EA11FA18DA1FD
:102A3000082E000C990B48A559A5480F591F2BA12A
:102A40003CA10417150709F458C0F11004C002177F
:102A5000130721F40AC00217130739F44B8D41956F
:102A6000B801888199810E9400258DA1080F111D50
:102A700087FD1A95DCCF85E090E046C08430910553
:102A800018F4019718F009C00597E1F5CE010E94EE
:102A9000792783E090E09C878B87CE010E948D127E
:102AA0000EA11FA148A559A58DA1282F880F330B72
:102AB000BA01620F731F8BA19CA106171707B1F013
:102AC000F11004C00817190721F40AC008171907E4
:102AD00039F44B8D4195B801888199810E94002578
:102AE0008DA1080F111D87FD1A95DCCF841795075E
:102AF00024F446E050E05C874B87820F931F9CA331
:102B00008BA304C086E090E09C878B87DF91CF91F8
:102B10001F910F91FF900895EF92FF920F931F93D3
:102B2000CF93DF93EC01062F8B859C85442309F41A
:102B300079C08330910518F0039761F170C06F85FB
:102B4000788989899A899B01281B390BC90137FD2E
:102B500001969595879501969CA38BA30023B9F0C8
:102B60004B8D11E041274195681B790B8881998134
:102B70000E9400254B8D4127419569897A898BA157
:102B80009CA1680F791F888199810E94002583E0AC
:102B900090E0D0C08BA19CA197FD41C0CE010E94C6
:102BA0008D12E12CF12C6BA17CA1E616F706C4F482
:102BB0004B8D419569897A896E0D7F1D8881998138
:102BC0000E9400254B8D41956F8578896E197F098C
:102BD000888199810E9400253FEFE31AF30AE3CF31
:102BE000615071097CA36BA3002309F4A5C077FD94
:102BF000A3C04B8D11E04127419589899A89680FBF
:102C0000791F888199810E9400254B8D412741952C
:102C10006F8578898BA19CA1681B790B7FC085E0AB
:102C200090E088C08330910549F120F4019708F4C1
:102C30007FC003C0059709F07BC0CE010E945124DC
:102C4000CE010E948D121CA21BA2002399F04B8D75
:102C500011E0412741956F857889888199810E948B
:102C600000254B8D4127419569897A898881998111
:102C70000E94002583E090E09C878B872BA13CA1DC
:102C80006F85788989899A89AB01481B590BCA01DC
:102C900057FD019695958795821793070CF448C0C8
:102CA0004B8D4195621B730B888199810E94002591
:102CB0004B8D419569897A898BA19CA1680F791FF9
:102CC000888199810E9400252BA13CA12F5F3F4F55
:102CD0003CA32BA3002381F16F85788989899A8988
:102CE000AB01481B590BCA0157FD01969595879575
:102CF000821793070CF14B8D11E041274195621B20
:102D0000730B888199810E9400254B8D4127419545
:102D100069897A898BA19CA1680F791F8881998123
:102D2000DF91CF911F910F91FF90EF900C940025B0
:102D300086E090E09C878B87DF91CF911F910F9168
:102D4000FF90EF9008958F929F92AF92BF92CF9293
:102D5000DF92EF92FF920F931F93CF93DF93EC01DB
:102D6000D62E8B859C85442309F4D3C082309105EF
:102D700039F48E010B5C1F4F55E0E52EF12C28C075
:102D80008230910538F08330910581F1049709F480
:102D900097C0BCC0BE016B5C7F4FCE010E9407276D
:102DA000882309F441C11FAA1EAA83E090E03EC116
:102DB000B801CE010E94C226811102C0FC86EB86BA
:102DC0002DA98B859C85211108C08530910529F09E
:102DD0001DAA8EA58111F2CFEBCF059709F433C15F
:102DE0001FAA1EAA83E090E09C878B878DA9882369
:102DF000B9F121E02D2530E04AA169A188819981AE
:102E00000E9440224B8D2AA93BA98EA99FA9442349
:102E100059F0AC014F5F5F4F5FAB4EABF901E80F6C
:102E2000F91F4081409509C0AC014F5F5F4F5FAB18
:102E30004EABF901E80FF91F4081DD2031F069A1A7
:102E400028E0629FB001112407C06AA188E0689F52
:102E5000B0011124695F7F4F888199810E9400250C
:102E60008DA990E02EA93FA92817390709F0EBC0DA
:102E70008EA5811103C082E090E0D8C02F853889EB
:102E8000DD2071F049A18D859E85B901681B790B04
:102E9000CB01019678E0479F80199109112408C061
:102EA0008AA148E0849FC00111240796821B930BDE
:102EB0009FAB8EAB181619064CF584E090E0B6C0B7
:102EC00021E0262730E04AA169A1888199810E94EA
:102ED00040224B8D4195DD2031F069A188E0689F4B
:102EE000B001112407C06AA128E0629FB00111243B
:102EF000695F7F4F888199810E9400258EA99FA9D3
:102F000001979FAB8EAB892B09F09DC085E090E0C7
:102F10008DC08430910539F0059709F085C084E0B3
:102F200090E09C878B8721E02D2530E04AA169A1A4
:102F3000888199810E9440224B8D4195DD2031F09E
:102F400069A188E0689FB001112407C06AA128E048
:102F5000629FB0011124695F7F4F888199810E942F
:102F600000250AA110E0A9A0B12C7801EA18FB08FD
:102F70004FEFE41AF40A43E0EE0CFF1C4A95E1F728
:102F80008C8D9D8D009721F08E159F0508F47C0196
:102F90000F5F1F4FDD2019F123E0AA0CBB1C2A95FF
:102FA000E1F733E0000F111F3A95E1F745016401A5
:102FB000CA18DB0880169106A4F5682D88819981CE
:102FC0000E944A2490E02B8D211103C020E030E0C4
:102FD00002C02FEF30E02817390719F52AC083E027
:102FE000000F111F8A95E1F70150110993E0AA0C17
:102FF000BB1C9A95E1F7C12CD12C0A151B058CF04E
:10300000602F888199810E944A2490E02B8D2111A4
:1030100003C020E030E002C02FEF30E0281739076E
:1030200061F0CE14DF0478F086E090E09C878B8717
:103030000AC06FEF861A960ABACF015011097FEFC6
:10304000C71AD70ADACFDF91CF911F910F91FF9066
:10305000EF90DF90CF90BF90AF909F908F900895AA
:10306000CF92DF92EF92FF920F931F93CF93DF9354
:10307000EC01D62E8B859C85442309F45AC08430FC
:10308000910518F4019720F013C0059789F04EC000
:10309000CE010E947927D11003C081E090E002C0E8
:1030A0008FEF90E09CA38BA383E090E09C878B87BD
:1030B000CE010E948D122BA13CA1D11003C08FEF35
:1030C00090E002C080E090E08217930779F10EA1B2
:1030D0001FA12DA188A599A5820F911D27FD9A9565
:1030E00008171907E9F0CB8CE880F980602FC70139
:1030F000CC2021F00E944A24809502C00E944A24DC
:103100004BA1D11040954823C1104095B801C7018B
:103110000E9400258DA1080F111D87FD1A95D9CF9A
:103120008BA19CA1DD2009F456C05BC085E090E036
:103130005FC08430910518F4019720F013C0059703
:1031400009F054C0CE010E947927D11003C08FEF3F
:1031500090E002C081E090E09CA38BA383E090E02C
:103160009C878B87CE010E948D120EA11FA12DA1DD
:1031700088A599A5820F911D27FD9A950817190713
:10318000E9F0CB8CE880F980602FC701CC2021F0DA
:103190000E944A24809502C00E944A244BA1D1106B
:1031A00040954823C1104095B801C7010E940025F1
:1031B0008DA1080F111D87FD1A95D9CF8BA19CA158
:1031C000DD2069F08F3F910531F426E030E03C8747
:1031D0002B87DD2031F0880F991F816004C0009794
:1031E000A1F3959587959CA38BA304C086E090E0FE
:1031F0009C878B87DF91CF911F910F91FF90EF906C
:10320000DF90CF900895CF92DF92EF92FF920F93CD
:103210001F93CF93DF93FC018381882351F087E0D4
:1032200090E0841B910991E001C0990F8A95EAF71B
:1032300006C091E0042E01C0990F0A94EAF7218597
:1032400030E0A62FB0E0A217B3079CF5483088F510
:1032500022853385A90189E0689F400D511D112405
:10326000BA01E48140E050E080E0A7E0B0E0C12C8A
:10327000D12C7601C394EE2321F09D01241B350B44
:1032800001C09A01EB01C20FD31F2881292359F0F5
:1032900097018601042E04C0000F111F221F331F47
:1032A0000A94D2F7802B4F5F5F4F4830510519F7D2
:1032B00001C080E0DF91CF911F910F91FF90EF90BF
:1032C000DF90CF900895962F9295692F6C7C862F72
:1032D00086958695937324E0929FB0011124682B04
:1032E000862F8A7A86956575660F862B0895FC0170
:1032F000A38129E0629FB001112422853385848156
:1033000050E0620F731FAA2379F0882331F087E021
:1033100090E09C01241B350BA901DB01A40FB51F14
:103320006C91CF010C946319882331F087E090E011
:103330009C01241B350BA901FB01E40FF51F8081C3
:1033400008958F929F92AF92BF92CF92DF92EF92A9
:10335000FF920F931F93CF93DF93EC01162F042F4F
:1033600089E0689F40011124AA84BB84A80CB91C81
:103370008C81C42ED12C882331F087E090E07C0131
:10338000EC18FD0801C076018B81882329F0622F9B
:10339000CE010E94631901C0822FF501EE0DFF1DC1
:1033A0008083EA85FB85E80DF91D40858C818823A3
:1033B00081F027E030E02C193D0981E090E0A0E0A9
:1033C000B0E004C0880F991FAA1FBB1F2A95D2F72F
:1033D0000BC081E090E0A0E0B0E004C0880F991F2E
:1033E000AA1FBB1F0A95D2F7842B80878A8988235E
:1033F00021F0612FCE010E94E12781E0DF91CF9182
:103400001F910F91FF90EF90DF90CF90BF90AF9002
:103410009F908F9008954F925F926F927F929F92AC
:10342000AF92BF92CF92DF92EF92FF920F931F93D2
:10343000CF93DF93DC0189E0689F8001112487E04E
:1034400090E0841B9109C12CD12C7601C3942601F4
:10345000370104C0440C551C661C771C8A95D2F7B2
:10346000942C04C0CC0CDD1CEE1CFF1C4A95D2F73A
:103470007C2D342D30959C2D9095C7E0D0E047E011
:10348000A42EB12CE22EF12CF501EC1BFD0B6701F3
:103490000E2E02C0D594C7940A94E2F71A964D9165
:1034A0005C911B9714962C91149713968C911397FB
:1034B000C0FE16C0222311F06E0101C06F01400F43
:1034C000511F2111FE01E40FF51F2081882311F007
:1034D000892D01C0872FFA01EC0DFD1D822B15C02F
:1034E000222311F06E0101C06F01400F511F211105
:1034F000FE01E40FF51F2081882311F0832F01C006
:10350000892FFA01EC0DFD1D82238083219708F09D
:10351000BBCF1A968D919C911B97FC01E00FF11F78
:103520008FEF808752968C915297882319F0CD01A6
:103530000E94E12781E0DF91CF911F910F91FF90D1
:10354000EF90DF90CF90BF90AF909F907F906F9063
:103550005F904F900895DC0112963C911297199656
:10356000EC91A62FB0E0F0E0332339F0AE17BF079F
:103570005CF4483048F40C94A119AE17BF0724F44A
:10358000483010F40C940B1A80E00895AF92BF926B
:10359000CF92DF92EF92FF920F931F93CF93DF931F
:1035A000FC018281A185C62FD0E0882309F451C097
:1035B000B0E0CA17DB070CF0B5C0483008F0B2C065
:1035C000283008F0AFC0E284F38479E0679F5001AF
:1035D00011243481A22FB0E0332329F087E090E05A
:1035E0008A1B9B0B01C0CD01EA0CFB1C50E033236E
:1035F00031F007E010E0E801C41BD50BAE014E0D21
:103600005F1DEA0138818E0D9F1DEC013883828594
:103610009385E501C80FD91F48858481882321F04F
:1036200027E030E02A1B3B0B81E090E0A0E0B0E017
:1036300004C0880F991FAA1FBB1F2A95D2F7842B9D
:1036400088878289882319F0CF010E94E12781E0D1
:103650006AC09381992359F007E010E07801E41AD9
:10366000F10831E001C0330FEA94EAF706C031E017
:10367000042E01C0330F0A94EAF7B0E0CA17DB0743
:103680000CF051C0483008F04EC0283008F04BC054
:10369000D9E06D9FA0011124C7E0D0E0C21BD10981
:1036A00081E090E0A0E0B0E06C017D0104C0CC0CB2
:1036B000DD1CEE1CFF1CCA95D2F77C2D04C0880FC0
:1036C000991FAA1FBB1F2A95D2F7182FC094809567
:1036D000C0E0D0E0A285B385A40FB51FAC0FBD1F1D
:1036E000FC902F2D23239381222341F0992311F065
:1036F000272F01C0212F2F292C9307C0992311F0C8
:103700009C2D01C0982F9F219C932196C830D105F4
:1037100009F782859385DC01A40FB51F8FEF1896FA
:103720008C938FCF80E0DF91CF911F910F91FF900D
:10373000EF90DF90CF90BF90AF9008951F93CF93FD
:10374000DF93DC0156961C92569788E057968C932F
:10375000579758961C92589759961C9259978FEFE5
:103760005A968C935A975C961C921E925B9754962D
:103770008D919C915597009709F44AC0FC012491C2
:103780002634F9F43196E491E130A9F4FC01329643
:10379000E4915996EC935997FC013396E4915A962B
:1037A000EC935A97FC013496E4915796EC93579713
:1037B00025E030E002C022E030E05C963C932E939E
:1037C0005B975B964D915C915C9759962C915997BC
:1037D00030E05A966C915A9770E010E062177307C8
:1037E00070F0FC01E40FF51FE4911E1708F41E2F82
:1037F000F0E031964E0F5F1F2F5F3F4FEFCFED018F
:10380000612F70E080E090E04AE00E94B91F188FBD
:10381000DF91CF911F910895DC0112963C91129790
:103820001996EC91A62FB0E0F0E0332339F0AE17F3
:10383000BF075CF4483048F40C940B1AAE17BF076E
:1038400024F4483010F40C94A11980E00895FC0190
:10385000228121110C940319FC01218530E0E62F0F
:10386000F0E0E217F30724F4483010F40C947719D1
:1038700080E008958F929F92AF92BF92CF92DF9295
:10388000FF920F931F93CF93DF93CDB7DEB72897A7
:103890000FB6F894DEBF0FBECDBF4830510508F01B
:1038A000DCC1FA01F62E8C01E459FF4F0C947F30F5
:1038B000DC0112962C91B9E06B9FC00111242223E8
:1038C000D9F020E030E0F80143810284F385E02D57
:1038D000E80FF91FE20FF31F442329F0408150E065
:1038E0005595479502C04081440F40832F5F3F4F5D
:1038F0002830310541F7A3C127E030E0D8011A96FE
:10390000ED91FC911B97E80FF91FE20FF31F408127
:1039100041832150310990F792C1FC018281F9E085
:103920006F9F900111248823E9F080E090E0D80196
:1039300013964C9113971A96ED91FC911B97E20FF9
:10394000F31FE80FF91F442319F04081440F04C00E
:10395000408150E055954795408301968830910508
:1039600031F76DC180E090E0F80142855385420F48
:10397000531FBC010196FA01E80FF91FE081DA013B
:10398000A60FB71FEC938730910571F758C1DC0182
:1039900053968C9153971296DC9012978823B9F026
:1039A000DD2069F019968C9190E0262F30E02817E1
:1039B000390754F440E0C8010E94771906C040E07E
:1039C000C8010E94031901C080E0898301C01982E7
:1039D000DD2079F020E0DD24D394D20E4D2D6F2D23
:1039E000C8010E94C61A2D2D2730A9F7298147E06A
:1039F00041C0B9E0FB9EA001112487E090E0D8010E
:103A00001A96ED91FC911B97E40FF51FE80FF91F33
:103A10002081220F2083019790F7E8CFFC01838952
:103A2000D2808823B1F0DD2061F0818590E0262FDF
:103A300030E02817390754F447E0C8010E9477198D
:103A400006C047E0C8010E94031901C080E08983D5
:103A500001C01982DD2099F028E0DD24DA94D20E2D
:103A60004D2D6F2DC8010E94C61A2D2DD110F5CFF6
:103A7000298140E06F2DC8010E94AB1AE0C0F9E037
:103A8000FF9EA001112420E030E0D8011A96ED91AC
:103A9000FC911B97E40FF51FE20FF31F808190E06C
:103AA0009595879580832F5F3F4F2830310569F7C3
:103AB000DFCFFC018281F9E06F9F60011124882330
:103AC000D1F0812C912CD8011A96AD90BC901B9707
:103AD000AC0CBD1CA80CB91CF5016081C8010E948A
:103AE0006319D5018C93BFEF8B1A9B0AE8E08E1601
:103AF000910449F7A4C020E030E067E070E0D8010D
:103B00001A968D919C911B978C0D9D1DFC01E20FC7
:103B1000F31FB080AB01421B530B840F951FDC01D8
:103B20008C918083F801828593858C0D9D1DFC010D
:103B3000E40FF51FB0822F5F3F4F24303105F9F6B7
:103B40007EC0DC0112968C91B9E06B9F400111247C
:103B5000882321F120E030E067E070E0F801828501
:103B60009385880D991DFC01E20FF31FD080AB01F6
:103B7000421B530B840F951FDC018C918083F8014D
:103B800082859385880D991DFC01E40FF51FD08275
:103B90002F5F3F4F2430310509F751C0A12CB12CC4
:103BA000D8011A96CD90DC901B97C80CD91CCA0C72
:103BB000DB1CF6016081C8010E946319D6018C9359
:103BC000BFEFAB1ABB0AE8E0AE16B10449F737C045
:103BD0009E012F5F3F4F5901490187E0D82E4D2D9F
:103BE0006F2DC8010E94271CD4018D934D01DA94DA
:103BF000BFEFDB12F4CFD12CF50121915F014D2DE8
:103C00006F2DC8010E94AB1AD394F8E0DF12F4CFF5
:103C100016C029E0629FA001112480E090E0D80145
:103C20001A96ED91FC911B97E40FF51FE80FF91F11
:103C300020812095208301968830910581F7D80155
:103C40001A96ED91FC911B97B9E0FB9EE00DF11DDA
:103C500011248FEF808781E001C080E028960FB6A5
:103C6000F894DEBF0FBECDBFDF91CF911F910F91B2
:103C7000FF90DF90CF90BF90AF909F908F9008956E
:103C8000BF92CF92DF92EF92FF920F931F93CF9349
:103C9000DF93EC0188858823B9F08091D6018823D1
:103CA00079F08FB7F8949091D601913039F49DB3A3
:103CB0009093D7019DB39DBB8FBF02C08093D70166
:103CC00080E58CBD81E08DBD60E08F810E947C2904
:103CD0008885811102C0F12C2FC040E0242F30E0F4
:103CE000898590E0880F991F28173907D0F58C85B2
:103CF0009D85FC01E20FF31F80818EBD00000DB495
:103D000007FEFDCF8EB54F5FE9CFB601002E02C092
:103D1000759567950A94E2F761708B2D0E947C2956
:103D200061E08E2D0E947C2960E08E2D0E947C290E
:103D30000150110950F7F3942F2D30E0898590E060
:103D4000880F991F2817390760F48C859D85FC0121
:103D5000E20FF31FC080EE80BD8007E010E0D12CA1
:103D6000D4CF61E08F810E947C298885882381F0EF
:103D70008091D601882361F09FB7F8942091D601F5
:103D80008091D701213019F48DBB9FBF01C08FBF37
:103D9000DF91CF911F910F91FF90EF90DF90CF9027
:103DA000BF900895FC01418550E0440F551F60E02D
:103DB00070E0848595850C94C83185ED8093BC00B6
:103DC0008091BC0084FDFCCF1092040208954091C4
:103DD000F903262F30E0240F311D21323105DCF4A8
:103DE000209104022430C9F4FC0180E090E08617A1
:103DF00058F43091F9032191DC01A752BC4FA30F75
:103E0000B11D2C930196F3CF8091F903680F609355
:103E1000F90380E0089581E0089582E0089508950F
:103E200008950895E091D9018091D801E81730F400
:103E3000F0E0EE51FE4F808190E008958FEF9FEF0C
:103E400008959091D9018091D801981750F4E92FE5
:103E5000F0E0EE51FE4F208130E09F5F9093D9015A
:103E600002C02FEF3FEFC90108958091D80190E083
:103E70002091D901821B91090895CF92DF92EF9290
:103E8000FF920F931F93CF93DF937C01CB018A01A5
:103E90002091DE01222389F0EB016B01C40ED51EB7
:103EA000CC15DD0569F06991D701ED91FC91019088
:103EB000F081E02DC7010995F3CF642F0E94E71E22
:103EC000C801DF91CF911F910F91FF90EF90DF908C
:103ED000CF900895CF93DF931F92CDB7DEB769835C
:103EE0002091DE012223D1F02091E101203240F027
:103EF00021E030E0FC013383228380E090E015C0B4
:103F00008091DF01E82FF0E0E45EFB4F9981908320
:103F10008F5F8093DF018093E10105C061E0CE01F6
:103F200001960E94E71E81E090E00F90DF91CF9113
:103F30000895009769F0FC0101900020E9F731979E
:103F4000AF01481B590BBC0181E192E00C94271191
:103F500080E090E00895CF93DF930E94991FEC01D9
:103F60008DE891E00E94991F8C0F9D1FDF91CF91EA
:103F700008958F929F92AF92BF920F931F93CF930A
:103F8000DF93CDB7DEB7A1970FB6F894DEBF0FBEB3
:103F9000CDBF19A2423008F44AE08E010F5D1F4FD9
:103FA000842E912CA12CB12CA50194010E943A30B1
:103FB000E62FB901CA0101501109EA3014F4E05D9D
:103FC00001C0E95CD801EC93232B242B252B61F74E
:103FD000C8010E94991FA1960FB6F894DEBF0FBECC
:103FE000CDBFDF91CF911F910F91BF90AF909F9068
:103FF0008F9008950F931F93FC01E65DFE4F708133
:10400000671758F4DC0172E4679FA00DB11D1124FD
:1040100091969B965C934E939A974081641750F4C7
:10402000DC0142E4649FA00DB11D1124D6963C939F
:104030002E93D5972081621750F4DC0172E4679FBC
:10404000A00DB11D112499961C930E939897208171
:10405000621750F4DC0122E4629FA00DB11D11240F
:104060009B961C921E929A972081621790F442E4CC
:10407000649FB0011124FC01E60FF71F21E030E03E
:1040800030AF27AB12AE11AEFC01E60FF71F15A63D
:1040900014A61F910F910895909104029111FCCFE5
:1040A00091E090930402909303022FEF20935F041A
:1040B00010925E04260F20935D0490935C0490910F
:1040C0005C04880F892B80935C048091020281300C
:1040D00061F41092020280915C048093BB00809195
:1040E000BC0083FDF8CF85EC01C085EE8093BC0059
:1040F000809104028130E1F380915E04861710F410
:1041000060915E04ACE3B4E0E2EEF1E080E086179B
:1041100021F09D9191938F5FFACF0895282F3091D0
:10412000E101313208F04AC0809104028111FCCFD4
:104130009091E00142E040930402209303022FEFAC
:1041400020935F0410925E0430935D04ECE1F4E090
:10415000ACE3B4E020E0321721F041914D932F5FA2
:10416000FACF10925C0420915C04990F922B9093EB
:104170005C0490910202913061F4109202029091DD
:104180005C049093BB009091BC0093FDF8CF95EC3C
:1041900001C095EE9093BC00909104029230E1F33F
:1041A00090915F049F3F79F080915F04803241F0ED
:1041B00080915F04803331F084E005C081E003C06A
:1041C00082E001C083E01092DF011092E1011092C1
:1041D000DE0108951F920F920FB60F9211242F93B4
:1041E0003F934F935F936F937F938F939F93AF937F
:1041F000BF93EF93FF938091B900887F803609F4D5
:104200009CC068F5883209F45BC090F4803109F4F1
:1042100054C038F4882309F4F6C0883009F44DC03E
:10422000F6C0883109F44CC0803209F45DC0EFC09B
:10423000803409F468C048F4803309F455C08833E9
:1042400009F0E5C080935F04D8C0803509F44FC001
:10425000883509F45DC0883409F0D9C0D6C08839E2
:1042600009F4C7C0A8F4883709F467C038F4883661
:1042700009F463C0803709F460C0C9C0883809F404
:10428000B8C0803909F45FC0803809F0C0C05BC095
:10429000803B09F486C038F4803A09F466C0883A55
:1042A00009F47FC0B4C0803C09F4A7C0883C09F47D
:1042B000A4C0883B09F48AC0AAC080915C0410C0E5
:1042C00090915E0480915D04981770F5E0915E0412
:1042D00081E08E0F80935E04F0E0E45CFB4F808110
:1042E0008093BB0085EC86C080935F048EC0E09114
:1042F0005E0481E08E0F80935E048091BB00F0E04D
:10430000E45CFB4F808390915E0480915D046EC0FD
:10431000E0915E0481E08E0F80935E048091BB008B
:10432000F0E0E45CFB4F80838091030281116DC05B
:1043300081E08093020284EA61C083E080930402FA
:1043400010921B04CFCF80911B04803208F051C023
:10435000E0911B0481E08E0F80931B048091BB00D1
:10436000F0E0E550FC4F8083BDCF85EC8093BC002E
:104370001092040280911B04803230F4E0911B04FF
:10438000F0E0E550FC4F108260911B0470E0E0917A
:10439000DC01F091DD018BEF93E0099510921B0495
:1043A00036C084E0809304021092FA031092F9035D
:1043B000E091DA01F091DB0109958091F903811117
:1043C00005C081E08093F9031092D903E091FA03CC
:1043D00081E08E0F8093FA03F0E0E752FC4F80817A
:1043E0008093BB009091FA038091F903981708F429
:1043F00079CF85E88093BC000AC085EC8093BC002F
:104400001092040204C010925F040E94DD1EFF910E
:10441000EF91BF91AF919F918F917F916F915F913C
:104420004F913F912F910F900FBE0F901F901895B5
:10443000CF9378E05FEF4617D0F0A9E06A9F900134
:104440001124DC011A96ED91FC911B97E20FF31FEA
:10445000DF01C72F1D92CA95E9F7DC011A96ED918D
:10446000FC911B97E20FF31F50876F5FE4CFFC01B5
:104470002289222319F0CF910C944428CF910895DA
:104480006F927F928F929F92AF92BF92CF92DF9264
:10449000EF92FF920F931F93CF93DF93CDB7DEB7C9
:1044A00029970FB6F894DEBF0FBECDBF8C01E62E64
:1044B000F42E6901461708F41AC1DC0152967C906B
:1044C000529752961C922830310508F010C1F9011C
:1044D000EC58FF4F0C947F30FC018389882351F006
:1044E000642F660F660F660F695FC8010E944A2439
:1044F000B82E14C0C088D188C114D10471F0642FC3
:10450000660F660F660F695FC8010E944A24482F34
:1045100060E070E08F2DF6010995B12CCE2CD12CE6
:104520008F2D0F2C000C990B8C159D05B4F040E0DD
:1045300050E06F2DC8010E943A1CAA24AA94AF0C27
:1045400047E06A2DC8010E94271C282F40E06F2DEC
:10455000C8010E940C1CFA2CE3CFD8011E96ED91E5
:10456000FC911F97309749F053968C91811105C0AB
:1045700060E070E08E2D0995B82EB60143E0660F1D
:10458000771F4A95E1F74B2D4CC0FC0183898823A6
:1045900041F0660F660F660FC8010E944A24D82EAC
:1045A00012C0C088D188C114D10461F0660F660FB3
:1045B000660FC8010E944A24482F61E070E08E2DEA
:1045C000F6010995D12C41E050E06E2DC8010E9402
:1045D0003A1CCC24C394CE0C40E06C2DC8010E9440
:1045E000271C282F47E06E2DC8010E940C1CEC2CC4
:1045F000FC1448F7D8011E96ED91FC911F97309757
:1046000049F053968C91811105C061E070E08F2DC7
:104610000995D82EB8E0FB9EB0011124695F7F4F49
:104620004D2DC8010E94002559C0C42ED12CA62EA4
:10463000B12CC6018A199B0997FD0196959587951E
:10464000812C39E0932E282D30E028173907A4F566
:10465000F80162857385F901EA0DFB1D9E9EA0019C
:104660009F9E500D1124460F571FFA01DE0111962F
:10467000692C01900D926A94E1F7F601E21BF30BAD
:104680009E9E90019F9E300D1124FB01E20FF31FAF
:10469000DA01492D01900D924A95E1F7F801A285C2
:1046A000B385A20FB31FFE013196292D01900D9203
:1046B0002A95E1F78394C7CF44E050E06E2DC801FE
:1046C0000E943A1CE394FE14B8F708C0A6016E2DB0
:1046D000C8010E943A1CE394FE14C0F7D801529618
:1046E0007C92772031F0C8010E94442802C080E00B
:1046F00001C081E029960FB6F894DEBF0FBECDBF92
:10470000DF91CF911F910F91FF90EF90DF90CF90AD
:10471000BF90AF909F908F907F906F900895FC0115
:10472000968D828DA4A5B5A591FD0AC0882319F0A8
:104730008689978902C0808D918D0597B1F409C053
:10474000882319F08689978902C0808D918D0597FD
:1047500061F081E022A533A52A173B0709F080E02C
:1047600086A71197B5A7A4A70895CD01019695A78F
:1047700084A781E011969C91911180E086A708950D
:10478000362FFB018E2F831B8417B8F48081982F5E
:104790009695292F2575982F9575990F922B892F0E
:1047A00086958695282F2373937354E0959FC001B7
:1047B0001124822B82958193E5CF0895242F26958D
:1047C00050E0460F571F362FFB018E2F831B821799
:1047D00040F4808141505109DA019C9191938C936E
:1047E000F4CF0895CF92DF92EF92FF920F931F9331
:1047F000CF93DF937C016B01EA01CA0101960E940D
:1048000099308C010097B1F0AE01B6010E94BF3122
:10481000F801EC0FFD1F1082D701ED91FC9100848F
:10482000F185E02DB801C7010995C8010E94313119
:10483000CE0102C080E090E0DF91CF911F910F91F7
:10484000FF90EF90DF90CF900895EF92FF920F933B
:104850001F93CF93DF937C01EB01FC0125A936A9BF
:1048600000E010E0AB0160E00E94FA1FC7010E9467
:10487000F0038111FBCFFE0101900020E9F7CF0189
:1048800001978C1B9D0BDF91CF911F910F91FF9092
:10489000EF900895462F47706695669566950C943F
:1048A000271CCF93DF93EC014AA169A1461720F0A2
:1048B000888199810E9418228B8D882351F027E0EE
:1048C00030E04AA169A188819981DF91CF910C9450
:1048D0004022DF91CF910895CF92DF92EF92FF9225
:1048E0000F931F93CF93DF93EC01F62EC42E8B858D
:1048F0009C85222309F446C08430910598F40197E1
:1049000098F41CA21BA200E010E02BE030E04AA1CA
:1049100069A1888199810E94BB2883E090E09C87EF
:104920008B8702C0059759F5CE010E945124CE0114
:104930000E948D121BA1FF2021F093E0E92EF12CA3
:1049400003C082E0E82EF12CD12C173080F49701BF
:104950004AA169A1888199810E94402296014AA1B9
:1049600069A1888199810E9440221F5FEECF8BA1AF
:104970009CA18730910599F525E030E02EC085E0B7
:1049800090E033C08430910518F4019718F008C006
:10499000059749F51CA21BA283E090E09C878B87BA
:1049A000F11003C023E030E002C022E030E04AA171
:1049B00069A1888199810E94402221E02C2530E064
:1049C0004AA169A1888199810E9440228BA19CA162
:1049D0008730910521F426E030E03C872B87019653
:1049E0009CA38BA304C086E090E09C878B87DF911B
:1049F000CF911F910F91FF90EF90DF90CF9008958E
:104A0000242F462F477033E0769567953A95E1F766
:104A10000C940C1CCF92DF92FF920F931F93CF93B5
:104A2000DF93EC01F62E8B859C85442309F462C04C
:104A30008330910518F00397F9F059C01CA21BA20E
:104A4000CE010E945124FF2099F04B8D11E04127A7
:104A500041956F857889888199810E9400254B8DC9
:104A60004127419569897A89888199810E94002529
:104A700083E090E09C878B87CE010E945124CE0179
:104A80000E948D1209891A898F859889801B910B44
:104A900097FD01966C01D594C7948BA19CA1C81673
:104AA000D9062CF1080F191F0F5F1F4F6F857889EA
:104AB0008BA19CA19B01281B390B0217130744F4FF
:104AC0004B8D4195B801888199810E940025ECCFDA
:104AD00001969CA38BA3FF2009F490C0C816D906A9
:104AE0000CF48CC04B8D11E04127419569C085E0E5
:104AF00090E082C083309105D1F120F4019708F451
:104B000079C003C0059709F075C08F8598892989F8
:104B10003A89821B930B97FD0196959587959CA3E7
:104B20008BA3CE010E945124CE010E948D12FF2042
:104B3000D9F04B8D11E0412741956F8578898BA184
:104B40009CA1681B790B888199810E9400254B8D5F
:104B50004127419569897A898BA19CA1680F791FAA
:104B6000888199810E94002583E090E045C08BA157
:104B70009CA197FD3FC04B8D41956F857889681B3F
:104B8000790B888199810E9400254B8D4195698917
:104B90007A898BA19CA1680F791F888199810E94D5
:104BA00000258BA19CA101979CA38BA3FF2031F131
:104BB00097FD24C04B8D11E0412741956F85788981
:104BC000681B790B888199810E9400254B8D4127B4
:104BD000419569897A898BA19CA1680F791F888189
:104BE0009981DF91CF911F910F91FF90DF90CF902E
:104BF0000C94002586E090E09C878B87DF91CF9115
:104C00001F910F91FF90DF90CF900895CF92DF9288
:104C1000EF92FF920F931F93CF93DF936C01D62FE8
:104C2000C42F7901DC019F96ED91FC91D0973097CC
:104C3000C1F080818D1311C00180F281E02DD081FF
:104C4000CD1708F4DC2F4D2F50E0BF016F5F7F4F71
:104C5000C7010E94BF318D2F6BC00380F481E02D0E
:104C6000E6CFF60120AD31AD80819181DC01549613
:104C70004D915C9155972417350751F02115310559
:104C800011F424E031E0FC01358B248B0E949E1B43
:104C9000E114F10409F449C0F601A081B1815996EB
:104CA0008C915997D817C0F05A969C915A979D1796
:104CB00098F05B960D911C915C97D81769F054960B
:104CC000ED91FC915597E00FF11FE4910E0F111D2E
:104CD0000F5F1F4F8F5FF1CF0F3FFFEF1F0741F4B3
:104CE0004C2F50E060E070E0C7010E94C8311DC049
:104CF0005496ED91FC915597E00FF11F8491C817E0
:104D000008F0C4912E2DC7010F5F1F4F382F321BA3
:104D10003C1768F45496ED91FC915597E00FF11F04
:104D20003491FC013193CF01EFCF80E001C08C2F93
:104D3000DF91CF911F910F91FF90EF90DF90CF9077
:104D400008951F93CF93DF93EC01142F2AA93BA959
:104D500049A90E940626112389F0882379F090E062
:104D60002CA9921758F429A9821730F4EAA9FBA9B3
:104D7000E80FF11D10828F5F9F5FF2CFDF91CF911F
:104D80001F9108950F931F93CF93DF93EC018B0135
:104D9000ECA5FDA541E08181811101C040E0608169
:104DA000CE010E94A126F80180832E8D9A8D21FDCF
:104DB0000BC0992319F02E893F8902C0288D398DA7
:104DC0002530310589F40AC0992319F02E893F89CD
:104DD00002C0288D398D2530310531F06AA97BA9B3
:104DE000482FCE010E94DE238E8D80FF07C06AA966
:104DF0007BA9F8014081CE010E94C023CE010E9410
:104E00008F2381E0DF91CF911F910F9108950F9330
:104E10001F93CF93DF93EC01FB011082EAA5FBA562
:104E2000FDA7ECA7309719F08081811104C081E0C3
:104E30008EA780E059C01EA69E8D8A8D91FD0AC066
:104E4000882319F08E899F8902C0888D998D0597D6
:104E500081F409C0882319F08E899F8902C0888D4A
:104E6000998D059731F001900020E9F73297FDA761
:104E7000ECA7ECA5FDA541E08181811101C040E0D6
:104E80008B016081CE010E94A126F80180832E8DC6
:104E90009A8D21FD0BC0992319F02E893F8902C0FC
:104EA000288D398D2530310589F40AC0992319F0F0
:104EB0002E893F8902C0288D398D2530310531F08A
:104EC0006AA97BA9482FCE010E94DE238E8D80FF28
:104ED00007C06AA97BA9F8014081CE010E94C023C6
:104EE000CE010E948F2381E0DF91CF911F910F911E
:104EF0000895FC01848995898230910519F42189EE
:104F0000328902C02785308934A323A337A326A37F
:104F10008230910519F42785308902C021893289B0
:104F200031A720A7029711F08FEF01C081E085A380
:104F300008951F93CF93DF93FC01A081B181589610
:104F40001C9184A9180F81A9811770F4EF0182A91F
:104F500093A9009711F00E94313119AB812F90E095
:104F60000E9499309BAB8AABDF91CF911F9108953E
:104F7000833081F028F4813099F08230A1F00895D7
:104F80008730A9F08830B9F08430D1F48091800066
:104F90008F7D03C0809180008F778093800008957B
:104FA00084B58F7702C084B58F7D84BD08958091CC
:104FB000B0008F7703C08091B0008F7D8093B000E8
:104FC0000895CF92DF92EF92FF920F931F93CF93AA
:104FD000DF93E62EF12CFC01218530E0E216F3068A
:104FE0000CF049C0EC01F9E06F9F80011124C12C45
:104FF000D12CEA85FB85E00FF11F808590E00C2C19
:1050000002C0959587950A94E2F780FF27C0CE01EC
:105010000E94D21EE985F0E03197EE19FF09EE0FEC
:10502000FF1F8C859D85E80FF91F81E08C0D808323
:10503000EA85FB85E00FF11FEC0DFD1D8081E98500
:10504000F0E03197EE19FF09EE0FFF1F2C853D852B
:10505000E20FF31F8183CE010E94401E8FEFC81A1A
:10506000D80AE8E0CE16D10421F66A857B85FB01DB
:10507000E00FF11F1086DF91CF911F910F91FF90EC
:10508000EF90DF90CF900895DF92EF92FF920F9311
:105090001F93CF93DF93EC01E12CF12C01E010E0A2
:1050A000CE010E94D21E98010E2C02C0220F331F87
:1050B0000A94E2F760E0D12C71E07E0D898590E0E2
:1050C000462F50E0481759077CF5E9E06E9FD00164
:1050D0001124EA85FB85EA0FFB1FE085F0E0E2235F
:1050E000F323EF2BF9F00197841B950B880F991F81
:1050F000EC85FD85E80FF91F70838A859B85A80FD5
:10510000B91FAE0DBF1D8C91E985F0E03197E41B0E
:10511000F50BEE0FFF1F4C855D85E40FF51F8183B6
:10512000DD24D3946F5FCACFDD2019F0CE010E9439
:10513000401E8FEFE81AF80A98E0E916F10409F02A
:10514000AFCF80E0298530E0482F50E04217530769
:1051500054F4EA85FB8599E0899FE00DF11D112447
:1051600010868F5FEFCFDF91CF911F910F91FF904E
:10517000EF90DF900895CF92DF92EF92FF920F931E
:105180001F93CF93DF93EC01D62EC42E79014617DF
:1051900008F47DC02A3031050CF05EC0CE010E94BB
:1051A000D21E82E0E816F10401F140F4E114F104AA
:1051B00071F081E0E816F10489F046C083E0E8165A
:1051C000F10411F184E0E816F104B1F03DC081E092
:1051D0000115110509F080E09CE01CC0802F08300B
:1051E00011050CF087E09BE015C0802F0031110500
:1051F0000CF08FE09AE00EC081E00115110509F472
:1052000080E0819599E006C081E00115110509F45F
:1052100080E09FE02D2D30E0E985F0E03197E21B42
:10522000F30BEE0FFF1F4C855D85E40FF51F908398
:10523000E985F0E03197E21BF30BEE0FFF1F2C85A1
:105240003D85E20FF31F8183D394CD1408F0A9CFDD
:10525000CE010E94401E1DC02A30310521F02B30A6
:10526000310571F016C081E00130110509F080E0D0
:105270008A8B0130110569F4CE010E94442809C0CF
:1052800081E00130110509F080E08B8B02C080E0E5
:1052900001C081E0DF91CF911F910F91FF90EF90BE
:1052A000DF90CF900895CF93DF93282F30E0F9015E
:1052B000E150F94F8491F901E551F94FD491F90189
:1052C000E952F94FC491CC2391F081110E94B82783
:1052D000EC2FF0E0EE0FFF1FE353F94FA591B491CF
:1052E000EC91ED2381E090E021F480E002C080E0C9
:1052F00090E0DF91CF9108951F93CF93DF93282FF4
:1053000030E0F901E150F94F8491F901E551F94F8D
:10531000D491F901E952F94FC491CC23C1F0162F71
:1053200081110E94B827EC2FF0E0EE0FFF1FED5324
:10533000F94FA591B4919FB7F894111104C08C91C5
:10534000D095D82302C0EC91DE2BDC939FBFDF9178
:10535000CF911F910895CF93DF9390E0FC01E55129
:10536000F94F2491FC01E952F94F8491882361F1AE
:1053700090E0880F991FFC01E754F94FC591D49133
:10538000FC01ED53F94FA591B491611109C09FB78C
:10539000F8948881209582238883EC912E230BC07A
:1053A000623061F49FB7F8948881322F309583235F
:1053B0008883EC912E2B2C939FBF06C08FB7F89457
:1053C000E8812E2B28838FBFDF91CF9108952FB7CF
:1053D000F8946091650470916604809167049091DF
:1053E00068042FBF08951F920F920FB60F921124D9
:1053F0002F933F938F939F93AF93BF9380916504B7
:1054000090916604A0916704B0916804309164049F
:1054100023E0230F2D3720F40196A11DB11D05C0F7
:1054200026E8230F0296A11DB11D209364048093EA
:10543000650490936604A0936704B0936804809118
:10544000600490916104A0916204B091630401969C
:10545000A11DB11D8093600490936104A093620428
:10546000B0936304BF91AF919F918F913F912F9122
:105470000F900FBE0F901F9018950F931F93CF930F
:10548000DF9389E391E09093AF028093AE028FECBB
:1054900092E0892B29F48091BA02882371F11AC015
:1054A000C5E9D3E08FA598A9009739F0FC010381E5
:1054B00014810E943131C801F7CF8AA99BA90097B6
:1054C00011F00E943131C254D109F2E0CD38DF072A
:1054D00049F7E1CF9FB7F8948091BF01882319F075
:1054E00081508093BF018091BF01811105C08CB5AF
:1054F0008F7B8CBD1092D6019FBF8091BC02909192
:10550000BD020E9431318091BE029091BF02DF91B5
:10551000CF911F910F910C943131CF93DF93CDB781
:10552000DEB72E970FB6F894DEBF0FBECDBF7894CE
:1055300084B5826084BD84B5816084BD85B5826098
:1055400085BD85B5816085BD80916E008160809349
:105550006E001092810080918100826080938100B2
:1055600080918100816080938100809180008160C2
:10557000809380008091B10084608093B10080911D
:10558000B00081608093B00080917A008460809345
:105590007A0080917A00826080937A0080917A000C
:1055A000816080937A0080917A00806880937A008D
:1055B0001092C100E0912102F091220282E08083EA
:1055C000E0911D02F0911E021082E0911F02F09105
:1055D00020028FEC808310922902E0912502F09145
:1055E000260286E08083E0912302F09124028081EC
:1055F00080618083E0912302F091240280818860A1
:105600008083E0912302F09124028081806880836E
:10561000E0912302F091240280818F7D808362E0FB
:1056200083E00E94AB2962E082E00E94AB2961E046
:1056300084E00E94AB298091BA02882309F434C027
:105640001FB7F8948091BF01811127C0E1EEF6E009
:105650008491E5EFF6E09491E82FF0E0EE0FFF1F64
:10566000E754F94FA591B491EC91E92321F461E05D
:105670008AE00E947C2961E08AE00E94AB298CB517
:1056800080618CBD8CB580648CBD61E08DE00E9432
:10569000AB2961E08BE00E94AB298091BF018F5F55
:1056A0008093BF011FBF0AC061E08091B7020E94D2
:1056B000AB2961E08091B8020E94AB2961E0809142
:1056C000B9020E947C2961E08091B9020E94AB2955
:1056D0001092C1021092C0021092C3021092C20234
:1056E0001091BB0229E0129FC00111240E94993041
:1056F0009093BD028093BC02812F90E0880F991F88
:105700000E9499309093BF028093BE028091C6029E
:105710009091C7028450914051F084E091E09093C1
:10572000C7028093C60282EB92E00E949E1B40E07B
:1057300050E063E070E082EB92E00E94E30347E018
:1057400050E061E070E082EB92E00E94E30347E00A
:1057500050E062E070E082EB92E00E94E30340E000
:1057600050E064E070E082EB92E00E94E30340913D
:10577000BB02415060E082EB92E00E94182240E0C0
:1057800050E060E070E082EB92E00E94E30382E090
:105790008093D80310E002E442EBE42E42E0F42EC2
:1057A0008091D803181770F4019FC0011124FC01E7
:1057B000E255FD4FF2A2E1A281539D4F0E9499272D
:1057C0001F5FEECF813051F49091D7038FEF890F97
:1057D000891720F41092F0028093F10280E092E4A5
:1057E0002AE030E04091D803841748F4989FF001F4
:1057F0001124E153FD4F308727838F5FF3CF8091D2
:10580000D6029091D7024AE0489F9001499F300DFF
:10581000112480E092E44091D803841728F010E02E
:1058200032E4F32E01E015C0989FF0011124E153FA
:10583000FD4F328721878F5FEECFF19EC00111248B
:10584000FC01ED5FFC4F008381539D4F0E9499271F
:105850001F5F8091D803181780F380E092E408C09E
:10586000989FF0011124E153FD4F158E148E8F5F28
:105870002091D8038217A0F380E022E49091D8030E
:10588000891748F4289FF0011124E153FD4F158A30
:10589000148A8F5FF3CFEEEAF2E080E021E030E09F
:1058A000891741F030AF27AB12AE11AE8F5FEE5BC0
:1058B000FF4FF6CF1092FA021092F90280E092E4C4
:1058C0002091D803821718F010E002E408C0989FD6
:1058D000F0011124E153FD4F138E8F5FF1CF8091C2
:1058E000D803181750F4019FC001112467E08153B9
:1058F0009D4F0E94D2031F5FF2CF8091C60290910C
:10590000C702892B51F084E091E09093C702809305
:10591000C60282EB92E00E949E1B80E022E49091FE
:10592000D803891708F46CC08091D703823088F0BF
:10593000992379F01092F00221E02093F102843053
:1059400040F0923030F082E08093320383E0809325
:1059500033031092D9011092D8011092DF011092F6
:10596000E1011092040211E010930302109202026E
:1059700061E082E10E947C2961E083E10E947C2950
:105980008091B9008E7F8093B9008091B9008D7F9E
:105990008093B90088E48093B80085E48093BC00CC
:1059A0008FE09FE19093DB018093DA0180E19FE13A
:1059B0009093DD018093DC011093DE0188E68093F3
:1059C000E0011092DF011092E1016FE085E092E0CA
:1059D0000E946A1F81E00E948E2061E088E60E949A
:1059E0004C201092D9018093D80185E092E00E946A
:1059F000211F87FF0DC083E491E00E94AB1F08C008
:105A0000289FF0011124E153FD4F138E8F5F87CF44
:105A100083E0282E312C94E9E92E91E0F92E24E63A
:105A2000422E512C612C712C86E691E00E94991F28
:105A300084E091E00E94AB1F81E791E00E94991FF2
:105A400081E091E00E94AB1F83E00E94D4108C01A2
:105A500082E00E94D4106C0102301105D1F48091D3
:105A6000D4019091D5010196B1010E946B309093C1
:105A7000D5018093D4010E94E7296093D0017093EF
:105A8000D1018093D2019093D30161E084E00E9420
:105A90007C290E94E7292091D0013091D1014091C9
:105AA000D2015091D301DC01CB01821B930BA40BDB
:105AB000B50B8D329140A105B10520F060E084E086
:105AC0000E947C298091D4019091D501813091056B
:105AD00009F4DCC08230910509F4EDC0892B09F08E
